:020000040800F2
:10000000C80A0020490200088F3200088D3000081D
:100010008D320008B7140008D9390008000000002C
:100020000000000000000000000000009332000803
:10003000B9140008000000009132000829330008BC
:1000400063020008630200086302000863020008FC
:100050006302000863020008BB1400086302000882
:1000600063020008630200086302000863020008DC
:1000700063020008630200086302000863020008CC
:1000800063020008630200086302000863020008BC
:1000900063020008630200086302000863020008AC
:1000A000630200083133000863020008630200089D
:1000B0006302000849330008553300086302000852
:1000C000630200086302000863020008630200087C
:1000D000630200087939000863020008630200081F
:1000E000630200086302000863020008630200085C
:1000F000630200086302000863020008630200084C
:1001000063020008630200088133000863020008EC
:100110003536000863020008630200086302000825
:10012000630200086302000863020008630200081B
:10013000630200086302000863020008630200080B
:1001400063020008630200086302000863020008FB
:1001500063020008630200086302000863020008EB
:1001600063020008630200086302000863020008DB
:100170006302000863020008630200080000000038
:10018000630200086302000800F002F800F04DF876
:100190000AA090E8000C82448344AAF10107DA45E2
:1001A00001D100F042F8AFF2090EBAE80F0013F0E7
:1001B000010F18BFFB1A43F001031847B468000091
:1001C000D4680000103A24BF78C878C1FAD8520722
:1001D00024BF30C830C144BF04680C6070470000C1
:1001E0000023002400250026103A28BF78C1FBD840
:1001F000520728BF30C148BF0B607047662906F020
:100200006E83642900F02281732900F0FE830020B0
:1002100070471FB500F010FC04000020002105F01D
:10022000DBFDE0601FBD10B510BD00F01DFD1146E7
:10023000FFF7EFFF04F0C0FA00F03BFD03B4FFF757
:10024000F2FF03BC03F0EDFB094880470948004773
:10025000FEE7FEE7FEE7FEE7FEE7FEE7FEE7FEE776
:10026000FEE7FEE704480549054A064B70470000D3
:100270002D33000889010008C8040020C80A0020A6
:10028000C8060020C8060020704753EA020C00F0A0
:1002900069802DE9F04B4FF00006002B1FBFB3FA29
:1002A00083F503FA05F424FA05F65E4012BF1643FF
:1002B000B2FA82F502FA05F4C5F120051EBF22FA52
:1002C00005FC44EA0C04203556EA044C4FEA144479
:1002D00018BF641C4FF000084FF00009904271EB0A
:1002E000030C39D3002919BFB1FA81F701FA07F6D7
:1002F000B0FA80F700FA07F6C7F120071EBF20FA10
:1003000007FC46EA0C062037B6FBF4FCA7EB050712
:10031000103F07F01F0BCBF120060CFA0BFB2CFA59
:1003200006F644BFB3460026202FA4BF5E464FF01A
:10033000000B5BEA060C08BF4FF0010B19EB0B0931
:10034000ABFB027C48EB0608C01B06FB02CC0BFB98
:1003500003CC71EB0C01C1E70B460246414648460F
:10036000BDE8F08B13B54FF000004FF00001AFF384
:100370000080BDE81C4070470FB4044910B503AAC3
:10038000029800F047FB10BC5DF814FBF40000205D
:100390002DE9F0410E460446002020622046E16827
:1003A000884730B3252805D0D4E901219047206A39
:1003B000401CF2E7E168204600278847050018D076
:1003C000A5F14100192802D820354FF400673246C4
:1003D000294620462760FFF711FF40B1012804D0CD
:1003E000F61D26F007060836D8E7361DD6E728465C
:1003F000DAE7206ABDE8F08170B50C460546012AAF
:1004000005D02878800600D5EA69002302E00123A0
:1004100005E05B1C934202D2E05C0028F9D1A86998
:10042000E618C01AA861286A184428622846AFF363
:10043000008004E0D5E9012114F8010B9047B44293
:10044000F8D32846AFF3008070BD00002DE9F041DD
:100450000646002410687529314616A510D0AFF362
:100460000080002802DA404213A507E031688A07BD
:1004700001D512A502E0490704D511A5012401E028
:10048000AFF3008000210A2206F1240709E0B0FB47
:10049000F2FCB0FBF2F302FB1C003030785418463B
:1004A000491C0028F3D123462A463046BDE8F041D6
:1004B00000F033B8000000002D0000002B00000009
:1004C000200000004FF0000200B513469446964607
:1004D000203922BFA0E80C50A0E80C50B1F1200157
:1004E000BFF4F7AF090728BFA0E80C5048BF0CC005
:1004F0005DF804EB890028BF40F8042B08BF704763
:1005000048BF20F8022B11F0804F18BF00F8012BD4
:10051000704770477047704770472DE9F0470D46A8
:1005200099469246044600F124080168880604D5DD
:10053000E06921F01001216000E00120A84201DD06
:10054000471B00E00027A1697A1902EB0900081A8D
:10055000A0612078C00602D42046AFF300800026B8
:1005600008E0D4E901211AF806009047206A401CEF
:10057000761C20624E45F4DB2078C0060AD5204662
:10058000AFF3008006E0D4E9012130209047206AD3
:10059000401C2062381EA7F10107F4DC07E0D4E913
:1005A000012118F805009047206A401C2062281E8F
:1005B000A5F10105F3DC2046AFF3008020780006AA
:1005C00002D50220BDE8F0870120FBE770472DE946
:1005D000FF4F0C461E464FF0FF378BB0D2E90001AB
:1005E000DDF860800A908A46C1F30A5505B93D4698
:1005F000002108464FF00000BAF1000F00F440005F
:1006000005DA00EB80004FF4400101EA50004FEAA8
:100610009059B9F1010F00DDB9460A9850EA4A0035
:100620000ED044F61050A5F2FF3545432F14B8F113
:10063000000F1ED07542291E1EDDC9F100021CE00C
:10064000B8F1010F4FF0000001D0302103E0F24378
:1006500005E02154401CB042FBDB30460022002163
:1006600021540B99C1F80880C1E900200FB0BDE802
:10067000F08FBD1B6D1CDEE74A4600DA694206A812
:1006800000F07CFA06AB93E8070003AB83E80700B1
:1006900050460A9900F054FB8DE80700A0F5005081
:1006A0001F3800900398002D09DD42F21F014A46D1
:1006B000084403A90390684600F0B3FD08E0A0F5E4
:1006C00000504A461F3803A90390684600F0BDFD5C
:1006D0008DE807000004000C03D04FF0FF30410804
:1006E00000E01046B8F1000F03D00022009215463A
:1006F0001EE0751E05D400F0A3F9303262556D1E60
:10070000F9D5B3460122084302D000227F1C04E041
:100710002078302801D100227F1E002A099786D038
:100720001DE0112D07DA00F08BF9303262556D1C97
:1007300050EA0102F5D1084302D00098C8B10EE09A
:100740000021681E05E0235C625C63542254401E55
:10075000491C8142F7DBAB46A81B401E09900020D4
:1007600004F80B000B98099AC0F80880C0E9002B28
:100770007CE711264FF0000859E72DE9F04F884635
:100780000446D21D22F0070191B0D1E90001CDE964
:100790000A0103F022F902460B98C00F01D02D2068
:1007A00007E02068810701D52B2002E0202101EA23
:1007B000C000032A099001D0072A05DB0346414601
:1007C000204600F09BF90BE12078800601D5E06916
:1007D00000E00620B8F1650F814606D0B8F1660F3B
:1007E00018D0B8F1670F70D131E00020B9F1110FC6
:1007F000009001DB112301E009F101030AAA01A91C
:100800000CA8FFF7E4FEDDE90C70002609F10105F4
:10081000834647E001204B4600904FF000470AAA6C
:1008200001A90CA8FFF7D3FEDDE90DB00C995D46D8
:10083000002610B909F101000D18B9EB050003D429
:10084000C0F1FF3609F10105A5EB09002BE0B9F174
:10085000010F01DA4FF001090020B9F1110F0090EA
:10086000484601DD112300E003460AAA01A90CA8AD
:10087000FFF7ADFEDDE90C704D460026834620787B
:1008800000070AD4AB4500DA5D4601A8012D04DD5E
:10089000411911F8011C302907D04F4502DA17F130
:1008A000040F04DA012082460FE06D1EEEE7002FF0
:1008B00002DCED1B3E4403E0781CA84200DD7D1CF9
:1008C000B81B00F1010A4FF000472078000703D45D
:1008D000AA4501DB4FF0FF3A0021B7F1004F0DF1BF
:1008E00043088DF8431024D002202B23002F01DA77
:1008F0007F422D230A21021EA0F1010000DC5FB11E
:1009000097FBF1FC97FBF1F201FB1C7C17460CF105
:10091000300C08F801CDEEE7A8F101000370218842
:10092000090501D5452100E06521A0F1010800F885
:10093000011C09980FA9A1EB0807FF1D00B10120B8
:10094000411901EBEA70A1693844081A401EA06100
:100950002078C00602D42046AFF30080099828B161
:10096000D4E901219047206A401C20622078C0060B
:1009700022D52046AFF300801EE0002E04DBB345F5
:1009800002DD01A8805D00E03020D4E9012190471C
:10099000206A401C2062761CAAF101005FEA000A6E
:1009A0000AD100F049F8C0680168405CD4E901212F
:1009B0009047206A401C2062281EA5F10105DCDC5E
:1009C00007E0D4E9012118F8010B9047206A401C88
:1009D0002062381EA7F10107F3DC2046AFF3008048
:1009E000032011B043E610B5436913B1AFF30080A3
:1009F00001E0FFF701FD012010BD127800F1240194
:100A00000A7000224A700122EDE711684FF0FF32B0
:100A1000E9E70000074B70B50D467B4400F05BF83A
:100A20000446284600F018F910B14FF0FF3070BDB1
:100A3000204670BD3F3B0000004870478404002002
:100A400030B5B0F10A024FEA900E71F100034EEAA0
:100A5000817EB0EB0E0061EB91014FEA101E4EEA71
:100A6000017E10EB0E0041EB11114FEA102E4EEA01
:100A7000016E10EB0E0041EB11214FEA104E4EEAD1
:100A8000014E10EB0E0041EB1141401841F1000105
:100A90004FEAD00040EA41704FEAD10110EB8005E7
:100AA0004FEA810444EA907444EB01046D1944EB6D
:100AB0000404521BA3414FF0000348BF0A3200D583
:100AC00030BD401C41F1000130BD000001694A1CED
:100AD00002610878704700B58FB0CDE9013100217F
:100AE000059105497944CDE9031011466846FFF7A1
:100AF0004FFC0FB000BD0000E5FFFFFF2DE9F04106
:100B00001F46044603260168072A01F4006004DB3F
:100B100008B116A505E016A503E008B115A500E08B
:100B200015A521F010002060A069C01EA0610FB1C2
:100B3000401EA0612046AFF300804FB1D4E90121EF
:100B400038469047206A401C2062C01C206206E0A4
:100B5000206AFAE7D4E9012115F8010B9047761EC7
:100B6000F8D22046AFF30080BDE8F0814E414E0040
:100B70006E616E00494E4600696E66002DE9F047D1
:100B8000814616468AB0334878440DC88DE80D007A
:100B900030487844801C03AC0DC884E80D0041F651
:100BA0009B300844372190FBF1F290FBF1F5A5F161
:100BB000800501FB12041B3C02D56442012000E0C9
:100BC0000020DFF890A080460027FA44AAF1BE0A70
:100BD0000DE0E00709D03246684607EB47010AEB13
:100BE000810100F032FB8DE8070064107F1C002CAF
:100BF000EFD1184F7F44AC3F18E0E80714D007EB63
:100C000004100DF1180A90E80E008AE80E00C06882
:100C1000F04201D198190890324606A903A800F0C5
:100C200014FB03AB83E807006D10641C002DE4D1B6
:100C300032466946B8F1000F03A802D000F0F1FA7D
:100C400001E000F002FBC9E90001C9F808200AB080
:100C5000BDE8F087CC5E0000007B00F080007047AC
:100C600000487047640400207546FFF7F9FFAE4660
:100C700005006946534620F00700854618B020B5A8
:100C8000FFF7F0FABDE820404FF000064FF00007F4
:100C90004FF000084FF0000B21F00701AC46ACE824
:100CA000C009ACE8C009ACE8C009ACE8C0098D4691
:100CB00070470446AFF300802046FFF7BFFA0000FC
:100CC0004FF0013C50F8042B51F8043B9A4221D1DB
:100CD000A2EB0C03934313EACC1317D150F8042B67
:100CE00051F8043B9A4215D1A2EB0C03934313EA4B
:100CF000CC130BD150F8042B51F8043B9A4209D184
:100D0000A2EB0C03934313EACC13DBD04FF00000AB
:100D1000704700BFD01A01BAB1FA81F101F0180191
:100D200022FA01F0CB40C1F12001DBB2C0B2C01AFF
:100D30002CFA01F3D11A914311EAC311E6D170479D
:100D40005FEA400C08BF91F0000F4FEA8C234FEA96
:100D5000C12243EA51514FEA1C5018BF00F5F04040
:100D60004FEA300018BF41F000415FEA6C5C00F0D0
:100D70002980BCF1FF3F08BF40F080407047130C52
:100D800006BF12044FF0100C4FF0000C130E04BFFE
:100D900012020CF1080C130F04BF12010CF1040C29
:100DA000930F04BF92000CF1020CD30F04BF52004A
:100DB0000CF1010C11464FF00002A0F11F00A0EB56
:100DC0000C00704711F0004F08BF704731F0004130
:100DD0003FF4D5AF0B0C06BF09044FF0100C4FF0D9
:100DE000000C0B0E04BF09020CF1080C0B0F04BF22
:100DF00009010CF1040C8B0F04BF89000CF1020CEB
:100E0000CB0F04BF49000CF1010CCCF12003A0EB87
:100E10000C0022FA03F302FA0CF241EA030100F19A
:100E20000100704720F07F4C80EA030023F07F47E9
:100E3000ACEB070303F57C5300F0004003F1FF0324
:100E40002DE980494FEA154B09B44FEA144325EACE
:100E50000B4E24EA03480FF2042606EB1327490839
:100E60003E785FEA320203FB0667C7F5000707FB1F
:100E700006F64FEA54374FEAD64606F1020607FB5C
:100E8000066CCCF1005C4FEA1C472CEA074C07FBD0
:100E900006F40CFB06F504EB15464FEA961634BF34
:100EA00000204FF000404FEAD13706FB07FC4FEA25
:100EB0001C4C0CFB0BF7D21B03FB0CF761EB07017F
:100EC0000CFB0EF7B0EB074072EB17420CFB08F778
:100ED00034BFA2EB0742B2EB074261EB17414FEA86
:100EE0000C444FEA910706FB07FC4FEA1C4C0CFB35
:100EF0000BF7B0EBC74072EB573203FB0CF734BF74
:100F0000A2EBC742B2EBC74261EB57310CFB0EF7C5
:100F1000B0EBC70072EB57720CFB08F734BFA2EBC3
:100F2000C702B2EBC70261EB5771039F4FEA8161C1
:100F300041EA921104EBCC044FEAD1374FEA8262C6
:100F400006FB07FC42EA90124FEA80604FEA1C4C15
:100F50000CFB0BF7D21B03FB0CF761EB07010CFB3F
:100F60000EF7B0EB074072EB17420CFB08F734BFEB
:100F7000A2EB0742B2EB074261EB17414FEA8C55F7
:100F80004FEA910704EB9C2406FB07FC4FEA1C4C3C
:100F90000CFB0BF7B0EBC74072EB573203FB0CF7BF
:100FA00034BFA2EBC742B2EBC74261EB57310CFB37
:100FB0000EF7B0EBC70072EB57720CFB08F734BFAB
:100FC000A2EBC702B2EBC70261EB577115EB4C25E0
:100FD0004FEA816141EA92114FEA82624FEAD137CA
:100FE00042EA901206FB07FC44F100044FEA8060DD
:100FF0004FEA1C4C0CFB0BF7D21B03FB0CF761EB0D
:1010000007010CFB0EF7B0EB074072EB17420CFB2D
:1010100008F734BFA2EB0742B2EB074261EB17417E
:1010200015EB1C154FEA813141EA92414FEA8232B9
:1010300042EA90424FEA80304FEA0C7644F10004D5
:1010400048EA03434EEA0B484FF0000EB2EB080C9F
:1010500071EB030724BF624639464EEB0E0E4FF08C
:10106000000B0018524149414BEB0B0BB2EB080C43
:1010700071EB03077BF1000B24BF624639464EEB50
:101080000E0E4FF0000B0018524149414BEB0B0B79
:10109000B2EB080C71EB03077BF1000B24BF624637
:1010A00039464EEB0E0E51EA020718BF46F0010614
:1010B00016EB0E7655F1000254F1000103D5BDE8A0
:1010C0008901BDE80088BDE88901BDE80048B6197E
:1010D000524141EB0101A3F10103704780807F7E03
:1010E0007D7C7B7A7978777676757473727171709E
:1010F0006F6E6E6D6C6C6B6A6A6968686766666550
:101100006464636362616160605F5F5E5E5D5D5CDD
:101110005C5B5B5A5A59595858575756565555554E
:101120005454535352525251515050504F4F4F4EAE
:101130004E4D4D4D4C4C4C4B4B4B4A4A4A494949FC
:10114000484848474747474646464545454444443E
:10115000444343434342424242414141002B26D44F
:10116000770021D01CB54FEA370703B44FF01000C9
:101170004FF010014FF000000FBCBDE810400BF124
:10118000010BBBF1010F08BF5FEA170722BF12F185
:10119000010211F101014FF0004143F1000300F0A1
:1011A000004043EA00007047F9D35708DAE746EAFF
:1011B000064613F1400F4FEA16461FDD13F1200FCC
:1011C000DFBF16430A46002120335B42C8D0C3F17B
:1011D000200746EA064602FA07F74FEA164646EAAD
:1011E0000706C3F1200722FA03F201FA07F721FAF2
:1011F00003F14FF0000342EA0702B1E746EA0206B4
:1012000046EA06464FEA164646EA0106BCBF46EAEB
:101210000646360C4FF000034FF000024FF000017D
:101220009EE72DE9C048934630B491E8380007C8DE
:1012300031EA400C48BF34EA430C03D5FFF7F2FD16
:10124000FFF78CFFF0BCBDE800882DE9C04893464D
:1012500030B491E8380007C810F0804F08BF13F091
:10126000804F03D100F005F8FFF778FFF0BCBDE830
:10127000008820F07F4780EA030023F07F4C07EBD3
:101280000C03A3F57C5300F00040A3F1FE0392F0A1
:10129000000F00F0B38095F0000F00F077802DE98B
:1012A00001494FEA11404FEA144621EA004800FB89
:1012B00006FC24EA064708FB06F607FB08F800FBD5
:1012C00007F718EB06484CEB164C4FEA124B18EB9D
:1012D00007484FEA15464CEB174022EA0B4E0BFB32
:1012E00006FC25EA06470EFB06F607FB0EFE0BFB87
:1012F00007F71EEB064E4CEB164C4FF000061EEBAC
:10130000074E4CEB174B18EB0B0840F1000018EBA5
:101310000E0B58EB000840F100008F1A4FF000014F
:101320003CBFC943661B14BFB5EB040C00213CBF96
:10133000C943F61B4FEA17444EEA8E0E27EA0445CE
:101340004FEA1C4704FB07622CEA074C05FB07F732
:101350000CFB05F604FB0CFC16EB074642EB1742B0
:1013600016EB0C4642EB1C421BEB060658EB020246
:10137000414146EA9E0601D5BDE80189B6195241B0
:1013800041EB0101A3F10103BDE801894FEA1445D6
:101390004FEA114724EA054621EA074C05FB07F40A
:1013A00006FB07F70CFB06F105FB0CFC11EB0741F4
:1013B00044EB17444FEA124711EB0C4144EB1C4439
:1013C00022EA074C05FB07F206FB07F70CFB06F6C3
:1013D00005FB0CFC16EB074642EB174216EB0C46DE
:1013E00042EB1C456A1854F1000148BF7047B6191A
:1013F000524141EB0101A3F10103704795F0000F49
:1014000037D04FEA11424FEA144721EA024624EA54
:10141000074C02FB07F106FB07F70CFB06F402FB87
:101420000CFC14EB074441EB17414FEA154714EB52
:101430000C4441EB1C4125EA074C02FB07F506FB77
:1014400007F70CFB06F602FB0CFC16EB074645EB18
:10145000174516EB0C4645EB1C42121951F10001E1
:1014600048BF7047B619524141EB0101A3F1010396
:1014700070474FEA14454FEA114724EA054621EA2E
:10148000074C05FB07F106FB07F70CFB06F24FF0D4
:10149000000605FB0CFC12EB074241EB174112EB77
:1014A0000C4251EB1C4148BF7047921841EB0101BF
:1014B000A3F101037047FEE77047012000F032BA44
:1014C000002229B101291AD002291BD04FF4407201
:1014D0000E490B6823F440730B600B6813430B60D9
:1014E0000A6822F078020A600A68022303EBC0004F
:1014F00002430A60086840F48030086070474FF487
:101500008072E5E74FF40072E2E70000103C024011
:101510001348016889050FD5016821F40071016045
:10152000016841F400610160016821F4006101601B
:10153000016841F400710160016849050FD5016837
:1015400021F480610160016841F48051016001680B
:1015500021F480510160016841F4806101607047AD
:10156000003C024008490A6822F440720A600A6896
:1015700042F004020A600A684FF4803343EA002014
:1015800002430A6070470000103C0240064A13689C
:1015900023F44073136013681360136843F001036E
:1015A0001360017070470000103C0240094910B5FB
:1015B0000C6824F440740C600C6844F440740C60B3
:1015C0000C6844F001040C600260BFF36F8F43604D
:1015D00010BD0000103C0240074A136823F440731A
:1015E0001360136843F480731360136843F00103BE
:1015F0001360018070470000103C0240074A1368E6
:1016000023F440731360136843F40073136013688A
:1016100043F001031360016070470000103C02407A
:1016200017490868C206174805D5C26942F010027A
:10163000C26110220A600A68920605D5C26942F0AA
:101640000802C26120220A600A68520605D5C269F2
:1016500042F00402C26140220A600A68120605D5FF
:10166000C26942F00202C26180220A600A689207DF
:1016700005D5C26942F02002C261022008607047AD
:101680000C3C0240A400002070B511490446002023
:10169000C86100F055FA06460E4D09E0601C07D0FF
:1016A00024B100F04DFA801BA04201D9032070BD87
:1016B0002868C003F2D42868C00701D00120286040
:1016C000286810F0F200F2D0FFF7AAFF012070BDE9
:1016D000A40000200C3C02402DE9F0410446876D37
:1016E00000F02EFA064694F835000025022806D0B0
:1016F0008020606584F834500120BDE8F0812068C6
:10170000016821F0160101602068416921F0800123
:101710004161206C08B9A06C20B12068016821F0FB
:10172000080101602068016821F0010101600CE0FE
:1017300000F006FA801B052807D9202060650320E9
:1017400084F8350084F83450D7E720680068C00773
:10175000EED194F85C103F208840B860012084F8F6
:10176000350084F834500020C7E790F8351002297E
:1017700003D08021416501207047052180F8351094
:101780000068016821F0010101600020704700003D
:101790002DE9F047044622480F46017E01290AD070
:1017A0000121804601764CF250394846FFF76CFF24
:1017B000020003D02FE00220BDE8F0874FF0FF3099
:1017C00038602068174D012801D0A6681CE0207CF5
:1017D0006168FFF7C7FE4846FFF756FF02462868D4
:1017E00020F00400286014E0217C3046FFF768FEFA
:1017F0004846FFF749FF0200286820F07A00286079
:1018000001D03E6005E0761CD4E902100844B042E5
:10181000EAD8FFF77DFE002188F818101046CBE7C4
:10182000A4000020103C02400348016841F0004140
:101830000160002070470000103C02402DE9F04795
:101840001B4E05461446307E1F468946012808D0A7
:10185000012030764CF250384046FFF715FF18B1A2
:1018600014E00220BDE8F0879DB1012D16D0022DB5
:1018700019D022463B464846FFF798FE4046FFF700
:1018800003FF0C490A6822F001020A600021317648
:10189000E8E7E1B24846FFF779FEEFE7A1B2484634
:1018A000FFF79AFEEAE721464846FFF7A7FEE5E77D
:1018B000A4000020103C0240074900200A68002ACA
:1018C00009DA054A054B0C3A1360054B13600968A9
:1018D000002900DA01207047103C024023016745CF
:1018E000AB89EFCD10B504460A2002F0CBFD012CE8
:1018F00007D1044901200860BDE8104002A0FEF7AE
:101900003BBD10BD1C000020EFBFBDEFBFBDEFBF52
:10191000BDEFBFBDEFBFBDD8BCEFBFBDEFBFBD0DBD
:101920000A000000044910B50A68024202D00860AB
:10193000FFF7D8FF10BD0000143C01402DE9F84F1F
:10194000DFF8BCA10022012503264FF00F090AF1A0
:10195000040BAAF1040E00BF0B6805FA02F4234041
:10196000A34270D10F7907F00307012F01D0022F96
:1019700016D187684FEA420806FA08FC27EA0C07E6
:10198000D1F80CC00CFA08FC4CEA070CC0F808C0EF
:101990004768A7430C79C4F3001494403C43446067
:1019A0000C79E443A4070AD0C4684FEA420C06FA53
:1019B0000CF7BC438F6807FA0CF72743C7600C7914
:1019C00004F00304022C12D1D40800EB840CDCF8E0
:1019D00020405707FF0E09FA07F824EA0804D1F857
:1019E000108008FA07F848EA0408CCF82080046858
:1019F0004FEA420C06FA0CF7BC430F7907F00307D5
:101A000007FA0CF7274307604C6814F4403F70D086
:101A10003C4C276847F480472760246822F003077E
:101A200004F480440094384C07EB040CDCF80848BC
:101A300097074FEA177809FA08F7BC43334FB842C3
:101A400002D1002724E054E0314FB84201D10127F0
:101A50001EE0304FB84201D1022719E02E4FB842A4
:101A600001D1032714E02D4FB84201D104270FE024
:101A70002B4FB84201D105270AE02A4FB84201D1C5
:101A8000062705E0284FB84201D1072700E00827C4
:101A900007FA08F72743CCF80878DAF800405746E9
:101AA000D1F804C09C435FEACC2C00D51C433C60B9
:101AB000DBF800405F46D1F804C09C435FEA8C2C01
:101AC00000D51C433C60DEF800407746D1F804C0E6
:101AD0009C435FEA8C3C00D51C433C60084F083FA8
:101AE0003C68D1F804C09C435FEACC3C00D51C4361
:101AF0003C60521C102AFFF42FAFBDE8F88F0000A5
:101B0000083C0140443802400030014000000240DF
:101B10000004024000080240000C02400010024095
:101B20000014024000180240001C024000690840F6
:101B300000D0012070470AB1816170470904FBE7BA
:101B40000148806870470000C40000200248816896
:101B50000278114481607047C40000200B4810B522
:101B6000016841F400710160016841F48061016025
:101B7000016841F480710160032000F06FF80F20CC
:101B800000F006F800F024F8002010BD003C0240F0
:101B900070B50D4D04464FF47A712878B1FBF0F022
:101BA0000A490968B1FBF0F000F028FB48B9102C95
:101BB00007D200222146501E00F030F800206C6051
:101BC00070BD012070BD0000C40000200000002096
:101BD0000A4808B5016841F480410160006800F4DA
:101BE000804000900548001F016841F0805101606D
:101BF000006800F08050009008BD000044380240AA
:101C0000002809DB00F01F020121914040098000FB
:101C100000F1E020C0F8001170470000F0B40E4B56
:101C20001B680C46C3F30223C3F10705042D00D93A
:101C30000425191D072901D2002300E0DB1E01261F
:101C400006FA05F1491E214099409E40761E164035
:101C50003143F0BC01F0D5BE0CED00E0064900F0C8
:101C6000070208684FF6FF03184040EA0220034AC3
:101C700010430860704700000CED00E00000FA051A
:101C8000BFF34F8F05480168054A01F4E061114335
:101C90000160BFF34F8F00BFFDE700000CED00E0D7
:101CA0000400FA052DE9F0470E46050065D0DFF87F
:101CB0001481D8F80000F7B200F00700B04207D254
:101CC00088F80070D8F8000000F00700B04254D146
:101CD00028683D4C810712D5400703D5206840F4A1
:101CE000E05020602878000703D5206840F4604069
:101CF00020602068A96820F0F00008432060287860
:101D0000C0072DD0304968680839012812D0022850
:101D100013D0032811D00968890700292DDA21681A
:101D200021F0030101432160FFF70AFF814641F2E0
:101D3000883A0EE009688903EFE709688901ECE752
:101D4000FFF7FEFEA0EB0901514502D90320BDE8D3
:101D5000F0872068696800F00C00B0EB810FEFD1CC
:101D6000D8F80010404601F00701B14207D90770CA
:101D7000006800F00700B04201D00120E7E72878B2
:101D8000400705D52068E96820F4E050084320604A
:101D90002878000706D52068296920F4604040EAC9
:101DA000C100206000F038F82168084AC1F303112F
:101DB000515CC8400649086006480068FFF7E8FE25
:101DC0000020C4E7003C024008380240C269000815
:101DD00000000020C8000020044805490068096888
:101DE000044AC1F38221515CC840704700000020C2
:101DF00008380240D26900080448054900680968AB
:101E0000044AC1F34231515CC840704700000020D1
:101E100008380240D2690008154810B5006810F073
:101E20000C02144813D04110042A0FD0082A0ED1F6
:101E30000F4C241F2268236802F03F025B0207D583
:101E40002068C0F38810A0FB010106E0084610BD21
:101E50002168C1F38811A1FB00010023FEF715FAE8
:101E60002168C1F30141491C4900B0FBF1F010BDEC
:101E7000083802400024F4002DE9F84F04006ED029
:101E80002078DFF84C93C007A9F104054AD009F186
:101E900004000168C1F38101012908D00068C0F382
:101EA000810002280AD1D9F80000400206D528682E
:101EB000800337D560680028E1D033E06068B0F572
:101EC000803F10D0B0F5A02F286810D020F48030CB
:101ED0002860286820F4802028606068A8B1FFF797
:101EE0002FFE06460DE0286840F48030F4E740F409
:101EF00080202860F7E700BFFFF722FE801B6428E0
:101F000073D828688003F7D50CE0FFF719FE064662
:101F100005E000BFFFF714FE801B6428F0D8286896
:101F20008003F7D42078DFF8AC8280074FF0000AF6
:101F30003ED5A748001D016811F00C0F08D00068BD
:101F4000C0F3810002280BD1D9F80000400207D469
:101F50002868800716D5E068012800D112E033E137
:101F6000E068B8B10120C8F80000FFF7E9FD0646B7
:101F700005E000BFFFF7E4FD801B0228C0D82868F9
:101F80008007F7D52868216920F0F80040EAC100F1
:101F900028600DE0C8F800A0FFF7D2FD064604E077
:101FA000FFF7CEFD801B02281FD828688007F7D4D2
:101FB0002078000722D5864F87486169703771B154
:101FC00001210160FFF7BCFD064604E0FFF7B8FD04
:101FD000801B022809D838688007F7D50EE0C0F8C2
:101FE00000A0FFF7ADFD064605E082E0FFF7A8FD83
:101FF000801B02287DD838688007F7D420784007F6
:1020000068D5DFF8CCB100270BF13C0BDBF8000002
:10201000C0000BD4DBF8001041F08051CBF8001069
:10202000DBF80000012700F0805000906B4E306814
:10203000C00510D4306840F480703060FFF780FD38
:10204000009005E0FFF77CFD0099401A022850D867
:102050003068C005F6D55E4EA0686C3601280FD0FA
:102060000528306810D020F001003060306820F082
:1020700004003060A068B8B1FFF762FD00900FE087
:10208000306840F00100F4E740F004003060F7E70A
:10209000FFF756FD0099411A41F28830814266D817
:1020A00030688007F4D50EE0FFF74AFD009007E0A6
:1020B000FFF746FD0099411A41F28830814256D817
:1020C00030688007F4D42FB1DBF8001021F0805184
:1020D000CBF80010A069C8B33D49091D0968C1F3D8
:1020E000810102294AD00228504607D0C8F8600072
:1020F00000E03CE0FFF724FD04463BE04746C8F81B
:102100006000FFF71DFD064605E000BFFFF718FD64
:10211000801B02282BD828688001F7D4D4E9070156
:102120000843A16A2E4A490802EB0141626A41EA6A
:102130008211084394F82C1040EA0161C9F800109C
:1021400001203866FFF7FCFC044606E03EE000BFD5
:10215000FFF7F6FC001B022809D828688001F7D594
:1021600034E000BFFFF7ECFC001B022802D903207B
:10217000BDE8F88F28688001F4D427E00128F7D063
:10218000D9F80000E26900F4800191421CD1226A72
:1021900000F03F01914217D147F6C071626A0140D9
:1021A000B1EB821F10D1A26A4FF0FF3300F440312F
:1021B00003EB5202B1EB024F06D194F82C1000F061
:1021C0007060B0EB016F01D00120D1E70020CFE7B4
:1021D0000438024000004742800E47420070004031
:1021E0000000FFFF4FF0E0210428086903D020F031
:1021F00004000861704740F00400FAE710B5401E83
:10220000B0F1807F01D3012010BD4FF0E024606168
:102210000F21601701F0F5FB0020A061072020616D
:10222000002010BD7047704710B590F83C20012A7F
:1022300022D0012280F83C20CA688C6822F44072C7
:1022400022434C6822F4806222430C6822F400622C
:1022500022430C6922F4805222434C6922F400523A
:102260002243C969002322F480420A4301684A6478
:1022700080F83C30002010BD022010BD10B504468F
:10228000022249B104290ED0082913D094F8450040
:10229000012816D0012010BD94F842000128F9D180
:1022A00084F842200FE094F843000128F2D184F82A
:1022B000432008E094F844000128EBD184F844203E
:1022C00001E084F845200422206801F0E4F8206849
:1022D000416C41F40041416411492068884214D0A6
:1022E000B0F1804F11D00F4988420ED00E4988427C
:1022F0000BD00E49884208D00D49884205D00D49BF
:10230000884202D00C49884204D1816801F007015B
:10231000062903D0016841F001010160002010BDD1
:10232000000001400004004000080040000C004094
:1023300000040140004001400018004070B5044610
:102340000D460068002201F0A6F82068036A41F2F9
:1023500011110B4240F2444206D1036A134203D1E9
:10236000436C23F4004343642068036A0B4206D1A4
:10237000016A114203D1016821F0010101600120CD
:102380003DB1042D08D0082D09D084F84500002067
:1023900070BD84F84200FAE784F84300F7E784F858
:1023A0004400F4E710B5040003D094F83D0010B1E8
:1023B00007E0012010BD002084F83C00204600F01A
:1023C0001FF8022084F83D00211D206800F0EEFF78
:1023D000012084F8460084F83E0084F83F0084F829
:1023E000400084F8410084F8420084F8430084F8F7
:1023F000440084F8450084F83D00002010BD000032
:1024000038B5054600681F491F4C88420FD1206827
:1024100040F0100020602068042200F010000090BE
:1024200000213620FFF7FAFB3620FFF7E9FB1749BA
:10243000286888420FD1206840F00800206020689A
:10244000032200F00800009001213220FFF7E6FB94
:102450003220FFF7D5FB0E492868884211D1206849
:1024600040F0040020602068042200F00400009086
:1024700001211E20FFF7D2FBBDE838401E20FFF7E8
:10248000BFBB38BD0010004040380240000C004087
:102490000008004090F83D10012901D0012070474C
:1024A000022180F83D100168CA6842F00102CA604A
:1024B00000681149884214D0B0F1804F11D00F4903
:1024C00088420ED00E4988420BD00E49884208D06F
:1024D0000D49884205D00D49884202D00C498842F6
:1024E00004D1816801F00701062903D0016841F099
:1024F000010101600020704700000140000400401D
:1025000000080040000C0040000401400040014071
:10251000001800400168CA6822F00102CA60016820
:102520000A6A41F211131A4207D10A6A9B101A4231
:1025300003D10A6822F001020A60012180F83D10EF
:10254000002070472DE9F0410D46040003D094F8B7
:102550003D0018B108E00120BDE8F081002084F8BA
:102560003C00204600F040F8022084F83D0020683E
:10257000816844F2070291438160211D206800F0C8
:1025800015FF226890689169166A2B68AF6903434A
:1025900040F20330814341EA0721A868EF6908430C
:1025A0004FF6FC418843E96840EA07200143286967
:1025B0002F6A000140EA0730084369686D6926F018
:1025C000AA0646EA0515294393602268906154F8EB
:1025D000460B0162012004F81F09E0752076E076C1
:1025E0002077A0750020B7E7704770B590F83E607F
:1025F000044690F83F5090F8423090F84320022073
:1026000021B104290ED0012E1BD114E0012E18D1C6
:10261000012B16D184F83E0084F8420001220021EB
:10262000206820E0012D0CD1012A0AD184F83F0056
:1026300084F8430014E0012D03D1012B01D1012ABC
:1026400001D0012070BD84F83E0084F83F0084F87A
:10265000420084F8430001220021206800F00EFFB0
:1026600001220421206800F009FF2068016841F080
:1026700001010160002070BD70472DE9F041044662
:102680000068C66805694FF00007A90713D5B107B0
:1026900011D5F91E0161012020772068806980072B
:1026A000204602D0FFF7E8FF04E000F07EF8204665
:1026B00000F052F92777680716D5700714D52168FE
:1026C0006FF004000861022020772068806910F410
:1026D000407F204602D0FFF7CFFF04E000F065F80E
:1026E000204600F039F92777280715D5300713D58C
:1026F00021686FF008000861042020772068C06915
:102700008007204602D0FFF7B7FF04E000F04DF845
:10271000204600F021F92777E80616D5F00614D5F3
:1027200021686FF010000861082020772068C069D8
:1027300010F4407F204602D0FFF79EFF04E000F037
:1027400034F8204600F008F92777E80708D0F007AA
:1027500006D021686FF001000861204600F0A0F962
:10276000280608D5300606D521686FF0800008617C
:102770002046FFF757FD680608D5700606D5216884
:102780006FF040000861204600F066FAA8060AD5FE
:10279000B00608D521686FF0200008612046BDE82A
:1027A000F041FFF740BDBDE8F081704770B50446C9
:1027B00090F83C0000260D4601280FD0012084F837
:1027C0003C006AB1042A1DD0082A2FD00C2A3FD021
:1027D0000126002084F83C00304670BD022070BD08
:1027E000206800F065FE2068816941F00801816180
:1027F0002068816921F004018161206881692A696A
:10280000114311E0206800F083FE2068816941F4E3
:10281000006181612068816921F4806181612068A3
:1028200081692A6941EA02218161D2E7206800F0CA
:10283000A5FE2068C16941F00801C1612068C16935
:1028400021F00401C1612068C1692A69114311E0C6
:10285000206800F0C7FE2068C16941F40061C161D1
:102860002068C16921F48061C1612068C1692A6959
:1028700041EA0221C161ACE710B5040003D094F82D
:102880003D0010B107E0012010BD002084F83C009D
:10289000204600F01FF8022084F83D00211D20682A
:1028A00000F084FD012084F8460084F83E0084F89E
:1028B0003F0084F8400084F8410084F8420084F826
:1028C000430084F8440084F8450084F83D0000206B
:1028D00010BD00002DE9F04100681C4986B0884217
:1028E00031D114216846FDF7EDFD19480024016837
:1028F00041F001010160006800F0010005901448FA
:102900001430016841F0010101600068022500F007
:10291000010005904FF48070CDE9000502AA03265E
:102920000127DFF8308082E8D00069464046FFF793
:1029300005F8A802CDE9000502AA694682E8D000A0
:102940004046FEF7FBFF06B0BDE8F0810000014005
:1029500030380240000002407047000010B50446C5
:10296000022249B104290ED0082913D094F841005D
:10297000012816D0012010BD94F83E000128F9D19D
:1029800084F83E200FE094F83F000128F2D184F84B
:102990003F2008E094F840000128EBD184F8402063
:1029A00001E084F841200122206800F067FD16490B
:1029B0002068164A884201D0904203D1436C43F408
:1029C000004343642068884213D0B0F1804F10D098
:1029D0000F4988420DD00F4988420AD00E498842DB
:1029E00007D0904205D00D49884202D00C49884258
:1029F00004D1816801F00701062903D0016841F084
:102A000001010160002010BD0000014000040140F0
:102A10000004004000080040000C0040004001405D
:102A20000018004030B504460D460068002200F052
:102A300025FD194B41F2111120688A10984202D0ED
:102A4000164B984209D1036A0B4206D1036A13421E
:102A500003D1436C23F4004343642068036A0B42B0
:102A600006D1016A114203D1016821F00101016020
:102A700001203DB1042D08D0082D09D084F8410073
:102A8000002030BD84F83E00FAE784F83F00F7E705
:102A900084F84000F4E70000000001400004014019
:102AA0002DE9F04700685149514D884278D151488D
:102AB0000078002872D001F085FD4F4C0521206080
:102AC00002F0A4FB206803F041FDDFF830914C4C8C
:102AD0000646C9F800002078012821D149484A4912
:102AE0004A4F006810B101280DD019E0086803F0C2
:102AF0002DFD396803F073FE0146304603F03EFEBB
:102B00000ED802200BE0086803F020FD396803F0BE
:102B1000CBFB0146304603F031FD01D80320207085
:102B2000A8781921B0FBF1F201FB120098BBA8684C
:102B3000374F401CA8602078DFF8D880364E374CDD
:102B4000012805D0364902282BD003282BD020E0BD
:102B5000D9F8000002F068FA3249206000280968BC
:102B600006DB88420BDA64280ADA6420206007E07A
:102B70004942884203DD6FF06301884200DD216035
:102B8000206812E04942884200DC2160206802F09F
:102B900001F80020A870A878401CA870BDE8F08754
:102BA0000FE0086801E00868404203F0CFFC38609D
:102BB000D8F8000001F0B4FD206031688842E4DA02
:102BC000E0E71949884205D12878401CC1B2297034
:102BD00016A007E01A498842E0D16878401CC1B2CB
:102BE000697018A0BDE8F047FDF7C6BB00100040B3
:102BF000D000002004000020440000209C000020A1
:102C000006000020180000203000002050000020A6
:102C1000740000209800002024000020A000002064
:102C20002800002020000020000C004054494D35B1
:102C30002074696D656F75743A2025640D0A000073
:102C40000008004054494D342074696D655F727509
:102C50006E3A2025640D0A007047704770470000E7
:102C6000F8B5016804460868CA684B6910F00F0F90
:102C70004FF000055AD003F0010602F49077374375
:102C800065D0C10705D0D10503D5616C41F00101C4
:102C90006164410705D5D90703D0616C41F0020199
:102CA0006164810705D5D90703D0616C41F0040147
:102CB0006164010707D502F02001314303D0616C44
:102CC00041F008016164616C00293BD0800604D5A5
:102CD000900602D5204600F013FD20684069616C23
:102CE000C0F3801001F00801014320462BD000F012
:102CF000E0FC20684069400621D52068143050E887
:102D0000001F21F0400140E80012002AF5D1E06BDD
:102D1000A8B172490165E06BFEF727FD002811D0CC
:102D2000E06B016D01B0BDE8F040084783060ED5A9
:102D300093060CD52046BDE8F84000F0E1BC2046E3
:102D4000FFF78CFFF8BDFFF789FF6564F8BD266BC0
:102D50002023012E7ED1C6067CD5D6067AD50868FA
:102D60004868009048694FF0020640064DD5E26B76
:102D7000106840684FF480770004000C3AD0A18DB1
:102D8000814237D9E085D069B8422DD020680C3017
:102D900050E8001F21F4807140E80012002AF5D1AC
:102DA0002068143050E8001F21F0010140E80012B3
:102DB000002AF5D12068143050E8001F21F04001AE
:102DC00040E80012002AF5D184F8423025632068DB
:102DD0000C3050E8001F21F0100140E80012002ADA
:102DE000F5D1E06BFEF778FC6663A08DE18D401AAB
:102DF00081B206E0A18D8142A8D1D069B842A5D1A7
:102E000066632046FFF729FFF8BDA08DE18D401ACB
:102E100081B2E08D0028F7D00029F5D020680C3071
:102E200050E8002F22F4907240E80027002FF5D1DF
:102E30002068143050E8002F22F0010240E80027FB
:102E4000002FF5D184F84230256320680C3050E81B
:102E5000002F00E006E022F0100240E80023002BE3
:102E6000F3D1CDE705062BD5150629D594F84100F9
:102E70002128C9D1A068B0F5805F01D12069B0B127
:102E8000206A411C2162216800784860E08C401E65
:102E90000004000CE084B7D12068C16821F08001F3
:102EA000C1602068C16841F04001C160F8BD206A7E
:102EB0000088C0F308004860206A801C2062E5E7B3
:102EC0004006F3D55006F1D5CA68204622F04002EC
:102ED000CA6084F8413000F0D8F8F8BDA536000883
:102EE00070B5040004D094F84100002510B106E04C
:102EF000012070BD84F84050204600F023F82420C3
:102F000084F841002068C16821F40051C160204666
:102F100000F058FC2068016921F4904101612068AB
:102F2000416921F02A0141612068C16841F40051E2
:102F3000C1606564202084F8410084F84200656324
:102F4000002070BD10B586B0044614216846FDF718
:102F5000B9FA1B492068884230D11A48016841F00B
:102F600004010160006800F004000590154810306D
:102F7000016841F4002101600068134C00F4002056
:102F800005904FF480600090022001900120029093
:102F9000032003900820049069462046FEF7CEFCEB
:102FA000E014009069462046FEF7C8FC012200218B
:102FB0003420FEF733FE3420FEF722FE06B010BDAB
:102FC000004C0040303802400008024090F8423087
:102FD000202B01D00220704721B11AB100230363D6
:102FE00000F076BC0120704770472DE9F843044695
:102FF00090F84100984616460D46202802D002203F
:10300000BDE8F88385B17EB100206064212084F89A
:103010004100FEF795FDA6848146E684A06820273E
:10302000B0F5805F02D003E00120E9E7206910B12C
:103030002E4600250EE000260CE08021204600F000
:1030400062FCA8B9C6B116F8010B21684860E08C93
:10305000401EE084E08C4B464FF00002CDF800802B
:103060000028EAD14FF04001204600F04CFC40B16E
:1030700084F841700320C3E735F8020BC0F3080061
:10308000E3E784F841700020BAE77047FEE70000EC
:103090002DE9F04F87B014216846FDF713FA734805
:1030A0000024016841F010010160016801F0100185
:1030B0000591016841F004010160016801F004011B
:1030C0000591016841F020010160016801F02001D3
:1030D0000591016841F080010160016801F0800103
:1030E0000591016841F001010160016801F00101F1
:1030F0000591016841F040010160016801F0400163
:103100000591016841F002010160016801F00201CE
:103110000591016841F0080101600068002200F09B
:103120000800059080215248FEF705FD4FF23F0050
:103130000225CDE9000502AA03264FF00C0882E81B
:10314000500169464B48FEF7F9FB08270720009716
:10315000CDE90360DFF82091CDE901546946484686
:10316000FEF7ECFBC0200090CDE9015469464846CB
:10317000CDE90345FEF7E2FB40F23F60CDE90005F3
:1031800002AA694682E850013C48FEF7D7FB4FF699
:103190008370CDE9000502AA694682E850013848EB
:1031A000FEF7CCFB4FF4406901AA12204FF0040A4D
:1031B000CDF8009082E85104DFF8C8B0694658465F
:1031C000FEF7BCFB4FF47040CDE9000502940520EA
:1031D000CDE9036069465846FEF7B0FB4FF6337001
:1031E000CDE9000502AA694682E850012048FEF7B1
:1031F000A5FB4FF04008CDE9008469461F480294C2
:10320000FEF79CFBCDE9008502AADFF87C8082E80E
:10321000D00069464046FEF791FB02AA694682E863
:10322000D000CDE900954046FEF788FBE802CDE9E5
:10323000000502AA694682E8D0004046FEF77EFB00
:1032400002AA694682E8D000CDE900A50848FEF749
:1032500075FB802000900120CDE9010469460448F7
:103260000394FEF76BFB07B0BDE8F08F30380240E7
:10327000000C02400014024000000240001802400E
:10328000001002400004024000080240FEE7FEE792
:103290007047704730B593B030216846FDF712F99A
:1032A00014210CA8FDF70EF91D480025016841F016
:1032B00080510160006800F0805011901948016849
:1032C00041F4804101600068022400F480401190C4
:1032D00001200090000401908001CDE90640082003
:1032E00008904FF4A870CDE9090407200B906846B8
:1032F000FEF7C2FD00B1FEE70CA90F2081E8310006
:103300004FF4A0500F904FF48050109005210CA85E
:10331000FEF7C8FC002800D0FEE713B030BD000067
:103320004038024000700040FEF710BC70470000BB
:10333000044800680169C943C90701D1891E0161B8
:10334000704700001C0100200148FFF796B90000FB
:10335000140200200148FFF790B90000CC010020C2
:10336000064A054BC2E900310021C2E902101046AD
:103370001161FFF717B8000000080040CC010020E1
:103380000148FFF77AB9000084010020064A054B86
:10339000C2E900310021C2E9021010461161FFF7B5
:1033A00001B80000000C004084010020F0B5026864
:1033B000274B284D284E294F294C4FF0804C9842DE
:1033C00009D0604507D0A84205D0B04203D0B8422A
:1033D00001D0A04204D122F0700E4A6842EA0E02E7
:1033E00098421BD0604519D0A84217D0B04215D0E2
:1033F000B84213D0A04211D01A4DA8420ED01A4D97
:10340000A8420BD0194DA84208D0194DA84205D0AA
:10341000184DA84202D0184DA84203D122F440759D
:10342000CA682A434D6922F080022A438D68C5622A
:103430000D688562984201D0A04201D109690163FB
:10344000016841F004010160012141610260F0BDA9
:10345000000001400004004000080040000C004053
:103460000004014000400140004401400048014088
:1034700000180040001C00400020004010B501F082
:103480001F030121046A99408C430462016A9A4037
:103490001143016210BD10B501F00F030421046A4D
:1034A00099408C430462016A9A401143016210BD45
:1034B000F0B5036A026A22F001020262426884697E
:1034C000124E24F073050C682C4323F002058B6820
:1034D0002B430D4DA84201D0B04205D123F008077F
:1034E000CB683B4323F00403A84201D0B04205D18E
:1034F0004D6922F4407215438A692A43426084610F
:10350000496841630362F0BD0000014000040140CE
:10351000F0B5026A036A23F010030362436884690A
:103520000D6824F4E64444EA05248D6822F0200264
:1035300042EA05120F4D104EA84201D0B04206D10A
:10354000CF6822F0800242EA071222F04002A8422D
:1035500001D0B04207D14D6923F4406343EA8503AB
:103560008D6943EA8503436084614968816302622F
:10357000F0BD00000000014000040140F0B5026A07
:10358000036A23F4807303624368C46922F40072FF
:1035900024F073050C68124E2C438D6842EA052214
:1035A0000E4DA84201D0B04206D1CF6822F400628D
:1035B00042EA072222F48062A84201D0B04207D139
:1035C0004D6923F4405343EA05138D6943EA05131B
:1035D0004360C4614968C1630262F0BD00000140FC
:1035E0000004014030B5046A026A22F4805202628B
:1035F0004268C3690D6823F4E64343EA05238D68F6
:1036000024F4005444EA0534084DA84202D0084D81
:10361000A84204D14D6922F4804242EA85124260F8
:10362000C36149680164046230BD000000000140CC
:103630000004014070B5184800680068C043800667
:103640001CD416480068C2B2154841880B0415D432
:103650004C044FF0000304D50A2A0ED141F4004176
:1036600018E00D2A14D0C1F30D040B4D491C143D74
:1036700089B22A554180132900D943800648FFF7B3
:10368000EFFABDE87040012205490348FFF79EBCF0
:1036900041F480414180F1E71C040020044C0040CB
:1036A000FA00002010B5806B0021C185FFF7D6FA23
:1036B00010BD01680C3151E8002F22F4907241E8EE
:1036C0000023002BF5D10168143151E8002F22F0BE
:1036D000010241E80023002BF5D1016B012909D13A
:1036E00001680C3151E8002F22F0100241E800235C
:1036F000002BF5D1202180F8421000210163704792
:1037000008B590F84210222901D0022008BD826835
:103710004FF480539A4201D1016921B1816A9A42E2
:103720001BD04AB10AE00268816A5268C2F30802FB
:103730000A80816A891C08E0026972B102685268D5
:1037400002F07F020A70816A491C8162C18D491EA4
:103750000904090CC18503D01BE002685268F1E737
:103760000168CA6822F02002CA600168CA6822F4AF
:103770008072CA6001684A6922F001024A61202110
:1037800080F8421000214163026B012A03D0FFF749
:103790002BFC002008BD016301680C3151E8002FAB
:1037A00022F0100241E80023002BF5D101680A68DD
:1037B000D20602D50A6849680091818DFFF74DFA5B
:1037C000E7E7000070B5044600680169E26821F48B
:1037D0004051114301612169A068E26908436169B0
:1037E000114308432168CA6849F20C639A430243B3
:1037F000CA6020684169A26921F4407111434161A6
:1038000031492068884202D03049884202D1FEF70F
:10381000F3FA01E0FEF7E0FAE269002319216425DA
:103820003226B2F5004F626828D0A0FB0101930F49
:103830009200FCF72AFD0146B0FBF5F06FF018028C
:10384000504301EB800006EB0010B0FBF5F000F0F8
:10385000F002B1FBF5F002EB0012B1FBF5F06FF0F6
:103860001803584301EB800006EB0010B0FBF5F0A5
:1038700000F00F0021681044886070BDA0FB0101BA
:1038800092185B41FCF701FD0146B0FBF5F0020127
:10389000B1FBF5F06FF01803584301EB800006EB25
:1038A000C000B0FBF5F000F0F80002EB4002B1FB05
:1038B000F5F0584301EB800006EBC000B0FBF5F0DB
:1038C00000F00700D6E7000000100140001401409E
:1038D00081628285C28500214164222180F84210E4
:1038E000016921B10168CA6842F48072CA60016846
:1038F0004A6942F001024A610068C16841F0200152
:10390000C160002070472DE9F843984617460D46E0
:103910000446089E24E0701C22D0FEF711F9A0EBAB
:103920000800B0421AD8CEB12068C168490717D53F
:10393000802D15D0402D13D00168C94309070FD43D
:1039400001680025406800902046FFF7B2FE08207D
:10395000606484F840500120BDE8F8830320FBE751
:103960002068006835EA000004D00020B842D2D0B8
:103970000020F1E70120F9E770B5144B18688006C4
:103980001AD55868C2B2124801880C0414D44D04E8
:103990004FF0000404D50A2A0DD141F4004113E090
:1039A0000D2A0FD0C1F30D050A4E491C89B272557C
:1039B0000180C72900D90480186810F00E0F00D0CC
:1039C000586870BD41F480410180F5E70010014066
:1039D000F0000020FC020020FEE7490050EAC12070
:1039E00018BF04204A0D18BF40F0010040F2FF72DA
:1039F000B2EB515F08BF40F00200012808BF05206C
:103A000070470907090E002804DB00F1E02080F868
:103A10000014704700F00F0000F1E02080F8141D42
:103A20007047704710B5084C012210212046FEF760
:103A300082F8322000F026FD20460022BDE810402A
:103A40001021FEF778B800000008024010B51E4AA9
:103A500000241C4BC2E9024014615461C2E90031E8
:103A60001046FEF709FF184860211C380022C0E903
:103A7000001484604FF48071C460C0E904414900BF
:103A8000816101461C30FEF791FE002201211920C0
:103A9000FEF7C4F81920FEF7B3F80B48FEF7FAFC5E
:103AA00009484FF400614830C0E900140F21C0E913
:103AB000024104614461C4610146BDE810404838D8
:103AC000FEF7B2BB000001401C01002010B50A4CFB
:103AD000084AC4E900210021C4E9021020462161FE
:103AE000FEF760FC2046FEF7D5FC21686FF0010070
:103AF000086110BD001000408002002010B5802138
:103B00000748FEF713F808B1002010BD05A0FCF728
:103B100033FC01F053F807490120086010BD000094
:103B200000140240323456E696ADE794B5210D0AF2
:103B3000000000001000002070B504460A480D4641
:103B4000007808280ED901F039F8084901200860EA
:103B500007482946046007A0FCF70EFCFFF762FF48
:103B6000012070BD002070BDD0000020100000209A
:103B70002C00002025730D0A00000000012808D049
:103B800002280BD003280ED0042811D0052814D009
:103B900017E0052917D0022915D012E0012912D00B
:103BA000032910D00DE002290DD004290BD008E024
:103BB000032908D0052906D003E0042903D00129F0
:103BC00001D00020704701207047000002480168C2
:103BD00002A0FCF7D1BB00002C000020E68AA5E87B
:103BE000ADA6E4BBA3E7A0813A25640D0A0000005E
:103BF00010B50278542A22D0482A2AD0462A32D038
:103C0000522A36D0562A47D0532A4BD0502A4FD06A
:103C1000452A53D04F2A60D0432A64D0442A6CD01E
:103C2000482A19D0522A27D0542A0BD0522A28D0F9
:103C3000412A6ED04C2A6DD0672A6CD0D4E04278ED
:103C40003A2A03D0417849297FD0CDE000F012FB19
:103C5000C0E042783A2A03D04178412953D0C3E0EA
:103C600000F01CFBB6E042783A2A11D100F0E0FAED
:103C7000B0E042783A2A0CD0417845294CD05429FA
:103C800053D04178492969D0542953D0452946D089
:103C9000AAE000F0AFFA9DE042783A2A13D100F092
:103CA0006DFB97E042783A2A0DD100F045FB91E098
:103CB00042783A2A07D100F005FB8BE042783A2A95
:103CC00002D04C2A03D08FE000F014FB82E0807811
:103CD000452827D100F090F87CE04078502821D189
:103CE00000F020FA76E041784C297DD18078432895
:103CF0007AD14049002008606CE04078302873D1C8
:103D000000F086FE66E080784C286DD100F0C4F9A2
:103D100060E032E040E048E08178442903D08078D8
:103D2000532827D060E000F00DFA8178462906D0AC
:103D3000422907D08078532819D055E005E000F0DB
:103D40003BFA47E000F034FA44E081784D294BD14A
:103D5000C078332848D100F033FB3BE081784E290E
:103D600042D1C07847283FD100F00AFA32E000F093
:103D70002DFA2FE000F0F8F92CE041784C2933D1EE
:103D80008178412930D1C17852292DD100794D282F
:103D90002AD1FFF71BFF1DE04078312824D33528B6
:103DA00022D8303800F05AF914E041786E2906D054
:103DB0006F290AD066290FD06D2912D014E08078BF
:103DC0006E2811D100F030F804E080786F280BD114
:103DD00000F0E0F8012010BD8078662804D10120B1
:103DE00005E080786D2801D0002010BD002000F093
:103DF000BFFB00001000002010B510210448FDF7A3
:103E000095FE0146BDE8104002A0FCF7B5BA0000DF
:103E100000100240E58589E794B5E4BFA1E58FB7BE
:103E20002025640D0A0000002DE9FC5F3E494FF09B
:103E30000008DFF8FCA0A1F800803C493D4881F86B
:103E400000808AF80080FEF725FB3BA13C4DD1E9BC
:103E500000014FF4FA79DFF8ECB0CDE9000150E051
:103E60002868012801D0002406E03248FEF752FB02
:103E70004BE0286801280DD00021012001F04EFB05
:103E800001F09CFF4F46484600F0FCFAB946002678
:103E90002D4F1CE02748FEF73DFB2CE02868012849
:103EA0003DD00021012001F039FB01F087FF484699
:103EB00000F0E8FA2868012831D00121084601F015
:103EC0002DFB01F07BFF484600F0DCFA761C3868D9
:103ED0008642E3DD601C052290FBF2F102FB11013A
:103EE0001AA01DF801201DF804103B68FCF744FAE5
:103EF000641C052CBDDB41461CA0FCF73DFA08F113
:103F00000108DBF800108845AADD0A48FEF702FB2D
:103F10009AF800101BA0FCF72FFABDE8FC9F05489B
:103F2000FEF7F8FAD6E70000F0000020FC020020BF
:103F3000D1000020CC010020010203040500000094
:103F400010000020380000203C00002053746174F1
:103F5000696F6E2025642026202564206C6F6F70A9
:103F600020646F6E653A2025640D0A00E680BBE58B
:103F7000BEAAE78EAFE6ACA1E695B0EFBC9A256489
:103F80000D0A000074696D655F72756E3A202564D4
:103F90000D0A00002DE9F05F00272B4CDFF8ACB0D4
:103FA000DFF8ACA047E02068012848D001F088F88D
:103FB00081460125206801283CD0A94537D000263C
:103FC000DFF890802FE02068012830D001F078F8E9
:103FD00081460146284600F07DFA0146CBF80000F4
:103FE000284601F085F901F0E9FE4FF4FA7000F07F
:103FF00049FA206801281AD02946484600F06AFA92
:104000000146CBF80000484601F072F901F0D6FEF7
:1040100040F6B83000F036FA01F00EFE4FF4FA60C8
:1040200000F030FA761CD8F800008642CBDD6D1C1B
:10403000052DBFDD7F1CDAF800008742B3DD06499D
:1040400000200880BDE8F09F10000020180000202C
:10405000380000203C000020F000002010B504468D
:104060000A48007800280FD101F02AF808490860B2
:104070000146204600F02EFA064908600146204617
:10408000BDE8104001F034B910BD0000060000206A
:104090000C0000201800002010B501F011F81149A3
:1040A0000860014610A0FCF767F9134C2021204658
:1040B000FDF73CFD014611A0FCF75EF940212046CA
:1040C000FDF734FD014610A0FCF756F94FF40051FE
:1040D0001048FDF72BFD0146BDE810400EA0FCF78F
:1040E0004BB900000C00002073746174696F6E3A64
:1040F0002025640D0A0000000010024048414C31A8
:104100003A202564200D0A0048414C323A202564AB
:10411000200D0A000008024048414C333A20256433
:10412000200D0A0010B503A0FCF726F9BDE81040E9
:1041300001F082BDE8BF9BE585A5E68B8DE785A7ED
:104140000D0A0000044C05A02168FCF715F9322087
:1041500000F098F9F7E7000044000020506F733A30
:10416000202564200D0A0000044910B501200860D4
:1041700000F08CFEBDE81040FDF782BD1400002069
:1041800010B504A0FCF7F8F8BDE810400620FDF7D4
:1041900037BD0000E4B88AE58D87E6B2BFE6A380AC
:1041A000E6B58BE6B58BE8AF95EFBC810D0A000054
:1041B0000121084601F0B2B910B50021012001F03B
:1041C000ADF9BDE8104000F035B9000010B5064863
:1041D0000024046000F036F904480460204600F032
:1041E000D9FC0348047010BD50000020A00000203E
:1041F0000600002010B500F0B7FE05490860014632
:1042000004A0FCF7B9F8BDE8104000F03FBE000084
:1042100024000020E69C80E5A4A7E58DA0E7A9BACC
:10422000E6AF94E8AEBEE7BDAE3A25640D0A0000E5
:1042300010B500F099FE05490860014604A0FCF79E
:104240009BF8BDE8104000F021BE000020000020D7
:10425000E8BF90E8A18CE4B8ADE69C80E5A4A7E9AE
:10426000809FE5BAA6E99990E588B63A25640D0ADB
:104270000000000010B500F077FE04490860014618
:10428000BDE8104002A0FCF777B80000380000201D
:104290006C6F6F70313A25640D0A000010B500F0A4
:1042A00063FE044908600146BDE8104002A0FCF727
:1042B00063B800003C0000206C6F6F70323A2564D8
:1042C0000D0A000010B500F04FFE044908600146D9
:1042D000BDE8104002A0FCF74FB8000040000020ED
:1042E000E68B8DE785A7E5AD94E4BD8D3A25640D99
:1042F0000A00000010B500F037FE054908600146CD
:1043000004A0FCF739F8BDE8104000F0BFBD000084
:1043100034000020E58589E794B5E6A380E6B58BF7
:10432000E99990E588B6E88489E586B2E695B03AE1
:1043300025640D0A0000000010B500F015FE0549C7
:104340000860014604A0FCF717F8BDE8104000F033
:104350009DBD000030000020E685A2E9809FE8BFF7
:1043600090E8A18CE8BF9BE5AD94E88489E586B22E
:10437000E695B03A25640D0A0000000010B500F083
:10438000F3FD05490860014604A0FBF7F5FFBDE811
:10439000104000F07BBD000028000020E69C80E576
:1043A000908EE58C80E9809FE8BF9BE5AD94E79A0D
:1043B00084E9809FE5BAA63A25640D0A0000000052
:1043C00010B50848FEF766F841F2883000F05AF858
:1043D0000448FEF79FF804480178BDE8104003A0A8
:1043E000FBF7CABFCC010020D100002074696D65C5
:1043F0005F72756E3A2025640D0A000010B5044600
:1044000000210B48FEF70EFB00210948FDF796FF3F
:104410003CB1012C0BD1BDE8104000210448FDF750
:104420002DBFBDE8104000210148FEF797BA10BD2E
:104430001C010020012211460148FDF77CBB000051
:104440000008024010B500210648FEF7EBFA0021F3
:104450000448FDF773FF0022BDE810400121024827
:10446000FDF769BB1C0100200008024010B504469E
:104470000420FDF7B7FE0249E008086010BD000007
:10448000E400002070B5054600244FF47A7603E07E
:10449000304600F005F8641CAC42F9D370BD000052
:1044A00070B54FF0E024002265690949A3690968E5
:1044B0004843A1699942FCD002D2A3EB010302E078
:1044C000A5EB010633441A440B468242F1D370BD7A
:1044D000E400002010B500230A4A0124884204DDCC
:1044E000A0EB0100022807DC03E008DA081A022822
:1044F00002DD0120146010BD0020136010BD0220F9
:1045000010BD00001800002010B5084C0122082141
:104510002046FDF710FB6420FFF7B4FF2046002281
:10452000BDE810400821FDF706BB0000000802406E
:1045300010B5094C10212046FDF7F8FA38B90A20C9
:10454000FFF7A0FF10212046FDF7F0FA08B1002088
:1045500010BD012010BD00000010024003490A6890
:104560005206FCD5C2B24A607047000000100140FC
:1045700004461148114D124E4FF47A7740F6B83880
:104580004FF4FA6904602146012000F0C7FF01F0F2
:1045900015FC3846FFF776FF00F092FD2860316881
:1045A0008842F0D14046FFF76DFF01F045FB4846D9
:1045B000FFF768FFE7E70000180000200C0000206C
:1045C0004000002030B50D4803685A6A0C4849F68F
:1045D0004045C2600169541A0146EC42496801DA5B
:1045E000491C04E049F64045AC4201DD491E4160EA
:1045F0000261596A808801EB004030BD140200203E
:10460000D00000202DE9F04387B088468146142170
:104610006846FBF757FF29480025016841F0010172
:104620000160006800F00100059024481030016826
:1046300041F002010160006801A900F0020005904C
:10464000C020009002200126032781E8C1000490C9
:1046500069461B48FDF772F91B4C1A480A21C4E948
:104660000008C4E9039504F148000760C0E9015659
:10467000C0E90351C0E90556C0E907510146483871
:10468000FDF760FF00212046FDF7AFFF0421204623
:10469000FDF7ABFF002211461D20FDF7BFFA1D20DC
:1046A000FDF7AEFA2168A81E08612068C16841F0D4
:1046B0000101C16007B0BDE8F0830000303802405E
:1046C00000000240000400401402002010B50A4619
:1046D000FFF754FA38B1114608A0FBF74DFEBDE8CC
:1046E0001040FFF711BF07490920086006A0FBF73B
:1046F00043FEBDE81040FFF795B900005025640D5A
:104700000A0000002C000020E5B7A5E4BD8DE9AA51
:104710008CE8AF81E5A4B1E8B4A5210D0A00000042
:104720002DE9F0471C49096802F059F81B491C4E55
:104730000446086030680121804602F004F92146F1
:1047400002F04DF8174F396801F0AEFD16490968BF
:1047500001F048FF054615482146006801F042FF78
:1047600081464146204602F045F81149096801F0AA
:1047700039FF494601F098FD294601F095FD0D4DA0
:10478000296801F091FD2860C7F800803460BDE819
:10479000F04701F0BFBE0000740000208C00002034
:1047A0009000002094000020880000208400002059
:1047B00080000020780000207C494FF00060002538
:1047C0000860FDF7CBF9FEF765FDA820FFF74EFE68
:1047D0004FF4165001F05AFA754F0024754E3C8084
:1047E00074556D1CC82DFBDB41F2873542F2CF01B9
:1047F0002846FEF7CBFD44F29F112846FEF7B0FD98
:1048000000F0A8FD00214FF6FF70FFF7FBFE5321DB
:1048100040F2E730FFF75AF900F0BCFBFEF738FC36
:104820000A2140F60F60FFF711F94FF4E13001F073
:1048300049FA72B600F016FA5F4D286908B100F027
:1048400025FB0120A8462870DFF870B1DFF870A1C1
:104850005C4DB946DBF810105846C90708D06FF018
:104860000101016198F8000010B15748FEF718F9EE
:10487000286880061AD568684946C2B2B9F80000AF
:10488000030413D4430407D50A2A02D140F400409C
:1048900024E0A9F8004009E00D2A1DD0C0F30D0363
:1048A000401C80B2F2540880C728F2D8BAF8001031
:1048B0000A0408D5CAB2AAF800404FF47A734349F3
:1048C0004348FEF792FBB9F8002011041BD5D7B27C
:1048D000A9F8004000200AE040F48040A9F8000058
:1048E000E4E729684906FCD5315C6960401CB842A0
:1048F000F7DB39462F48FFF77BF9002001E03454FD
:10490000401CB842FBDB40213248FDF70FF9074657
:10491000012807D198F8040020B92FA0FBF72CFD3F
:10492000C8F80C4088F8047080212A48FDF7FEF88A
:10493000070012D198F8050001280ED12EA0FBF730
:104940001BFDFFF77FFD002000F024F988F80240EE
:1049500088F803400120C8F80C0088F8057098F822
:10496000010001287FF476AF98F80300D8B900F071
:10497000A7FBC8F80800072802D10520C8F80800DE
:1049800021495020087098F8080030304870002005
:104990002A685206FCD50A5C6A60401C0228F7DBD4
:1049A0001AA0FBF7E9FC88F8014053E708ED00E0A6
:1049B000F0000020FC020020040000200010004055
:1049C000FC000020001001408002002008040020AC
:1049D0001C04002000140240E5A48DE4BD8DE4BF5A
:1049E000A1E58FB72CE68AA5E8ADA6E6B885E999DA
:1049F000A4210D0A00000000E680A5E5819CE4BF2B
:104A0000A1E58FB7210D0A00F80000200D0A000073
:104A10002DE9F05FDFF814A110215046FDF786F86C
:104A20000127DFF80C81434E434D002438B110219B
:104A30005046FDF77BF801283CD0BDE8F09F3F4889
:104A40000168012915D081460029F6D13078002867
:104A5000F3D100F0CDF84FF0020B85F800B0142030
:104A6000FFF710FD10215046FDF760F8012805D032
:104A70000CE0BDE8F05F32A0FBF77EBC0A20FFF738
:104A800001FD10215046FDF751F8C0B1D9F80000E2
:104A90000128D2D0FFF732F80028E3D0D9F800007F
:104AA0000128CAD04FF4967A5046FFF7EBFCFFF787
:104AB0003FFD48B188F800702C703470BDE728487D
:104AC000046000F0AFF8E9E700F092F885F800B074
:104AD0001420FFF7D7FC00BFFFF72AFD20B12048C4
:104AE000046000F09FF807E0D9F800000128A4D086
:104AF000FFF704F80028EFD0D9F8000001289CD077
:104B00005046FFF7BFFCFFF713FD0028D2D1C9F8CC
:104B1000007014492C7034700820086012A0FBF754
:104B20002BFCBDE8F05FFEF77DBF000000100240E7
:104B300005000020070000200600002010000020D3
:104B4000E794B5E69CBAE5889DE5A78BE58C96E4ED
:104B5000B8AD2CE8AFB7E7A88DE58099210D0A0024
:104B60001C0000202C000020E794B5E69CBAE588E4
:104B70009DE5A78BE58C96E5A4B1E8B4A52CE8AF3C
:104B8000B7E6A380E69FA5E7A1ACE4BBB6210D0A7A
:104B90000000000070B5084D040005D40020FFF7A8
:104BA0002DFC2868446370BD0120FFF727FC2968AD
:104BB0006042486370BD00001C01002010B5FFF783
:104BC00041FC0748002404602046FFF7E3FF054846
:104BD000047005480470BDE810400448FDF79ABC15
:104BE000480000200600002007000020840100206B
:104BF000084910B5002008700748FDF74BFC00F08D
:104C0000C9F9064801240470FFF714FC0448046045
:104C100010BD0000D000002084010020070000200B
:104C20004800002010B5FFF70DFC0948002404607F
:104C30002046FFF7AFFF07490120087006480470BF
:104C400006480470BDE810400548FDF763BC00004D
:104C5000480000200500002006000020070000207A
:104C60008401002070B52F4C25682FA02946FBF742
:104C700083FB40F2DC5136488D4202D8294605605C
:104C800000E0016033A0FBF777FB656839A0294697
:104C9000FBF772FB4048B5F5616F02D2294605600B
:104CA00002E040F6AC5101603CA0FBF765FBA56853
:104CB00042A02946FBF760FB4948B5F57A7F02D848
:104CC0002946056001E0C821016046A0FBF754FBBE
:104CD000E56849A02946FBF74FFB44F620614F48A1
:104CE0008D4202D82946056002E043F2B0610160BE
:104CF0004BA0FBF741FB25694FA02946FBF73CFB86
:104D000049F6580158488D4202D82946056002E00C
:104D100049F27041016055A0FBF72EFB60695A49CA
:104D2000086070BD00000608E4BB8E466C617368C5
:104D3000E8AFBBE58F96E8BF90E8A18CE69C80E5E4
:104D4000A4A7E9809FE5BAA63A2025640D0A0000D1
:104D500020000020E8BF90E8A18CE69C80E5A4A795
:104D6000E9809FE5BAA6E8AEBEE7BDAE463A20258B
:104D7000640D0A00E4BB8E466C617368E8AFBBE566
:104D80008F96E69C80E5A4A7E58DA0E7A9BAE6AFDB
:104D9000943A2025640D0A0024000020E69C80E55A
:104DA000A4A7E58DA0E7A9BAE6AF94E8AEBEE7BD3B
:104DB000AE523A2025640D0A00000000E4BB8E4686
:104DC0006C617368E8AFBBE58F96E8BF9BE5AD9477
:104DD000E9809FE5BAA63A2025640D0A000000008C
:104DE00028000020E8BF9BE5AD94E9809FE5BAA6C6
:104DF000563A2025640D0A00E4BB8E466C61736848
:104E0000E8AFBBE58F96E8BF9BE5AD94E88489E504
:104E100086B2E695B03A2025640D0A0030000020E5
:104E2000E8BF9BE5AD94E88489E586B2E695B0538A
:104E30003A2025640D0A0000E4BB8E466C6173685D
:104E4000E8AFBBE58F96E58589E794B5E88489E509
:104E500086B2E6A380E6B58BE99990E588B63A205C
:104E600025640D0A0000000034000020E58589E774
:104E700094B5E88489E586B2E99990E588B6453A23
:104E80002025640D0A0000001400002010B586B033
:104E9000002423A00594FBF76FFAFCF70DFD072013
:104EA00002900120039002200490009405A9684616
:104EB000FCF76EFC1E4800231E4902680220FCF726
:104EC000BDFC1D481B4900230268091D0220FCF798
:104ED000B5FC1A4817490023026808310220FCF784
:104EE000ADFC17481349002302680C310220FCF77F
:104EF000A5FC14480F490023026810310220FCF77A
:104F00009DFC0C490022134614310220FCF796FC4C
:104F1000FCF78AFC0CA0FBF72FFA06B010BD0000CE
:104F2000E8A7A3E99481464C4153480D0A000000CC
:104F30002000002000000608240000202800002097
:104F40003000002034000020E68980E69C89E58F4F
:104F500082E695B0E5B7B2E4BF9DE5AD98E588B0CF
:104F6000466C6173680D0A002DE9F0410026CD1EE4
:104F700007468C1E09E0204600F052FE0146281B21
:104F800038448078303801FB0066641EF3D2304626
:104F9000BDE8F08112490020144A086011490860F8
:104FA00011491160124A4FF07F5111601149184A9E
:104FB00008601149086011490860114908601149E9
:104FC00008601149086011491160124908601249CE
:104FD0000860124908601249086012490860704769
:104FE000780000207C000020CDCC4C3F80000020C9
:104FF00084000020880000208C0000209000002009
:105000009400002054000020580000200AD7A33C40
:105010005C00002060000020640000206800002088
:105020006C000020700000202DE9F0411A49096849
:1050300001F0D5FB19491A4C054608600146206865
:1050400001F032F917492060884202DC1649884293
:1050500000D92160154F2846396801F0CBFB14496F
:10506000096801F0BFFA064612482168006801F09D
:10507000B9FA044610482946006801F0B3FA2146FF
:1050800001F012F9314601F00FF90C4908603D605A
:10509000BDE8F04101F03EBA500000206800002059
:1050A0005800002000401C4700401CC76C00002036
:1050B00064000020600000205C00002054000020FC
:1050C0002DE9F047274E002510213046FCF72EFD34
:1050D000254F012829D0DFF894904FF40058012281
:1050E0002021304600F072F80446014620A0FBF76C
:1050F00043F902224021304600F068F8044421467A
:105100001EA0FBF739F904224146484600F05EF83C
:10511000044421461CA0FBF72FF9072C11D0601E78
:10512000042810D82046BDE8F0871A4901200860FD
:10513000386019A0FBF720F9FEF774FC4FF0FF3040
:10514000F1E70524EEE73220FFF79CF96D1C022DF4
:10515000C5DB02203860214616A0FBF70DF9FEF7EB
:1051600061FCDFE7001002402C0000200008024034
:1051700068616C31203D2025640D0A0068616C3245
:10518000203D2025640D0A0068616C33203D2025F8
:10519000640D0A0010000020E58589E794B5E4BCA1
:1051A000A0E6849FE599A8E69CAAE8A7A6E58F91CA
:1051B000200D0A00E99C8DE5B094E8AFBBE58F9621
:1051C000E99499E8AFAF3A25640D0A002DE9F04162
:1051D00016460F468046FCF7A9FC05460520FFF75A
:1051E00051F939464046FCF7A1FC04460520FFF77B
:1051F00049F939464046FCF799FC29190844022828
:1052000002DA0020BDE8F0813046FBE72DE9F047E7
:10521000DFF8C480002498F800208A4255D12F4F2F
:10522000064678603968401A01F090F9B86098F83D
:105230000120A7F12805DFF8A89045F82200521CAC
:10524000D2B288F80120C9F80000A2463E600A2ABE
:1052500039D10A2601E000240FE005EB840755F858
:105260002400796801F08AFA05D255F8240079689B
:1052700045F824107860641CE4B2701E8442ECDBB4
:1052800010F0FF06E7D100205FF0020455F824106B
:1052900001F00AF8641CE4B2082CF7D3114901F0BC
:1052A00077F8064610494C46D9F8000001F09AF903
:1052B00005460E49304601F095F9294600F0F4FF05
:1052C000206088F801A088F800A098F80010491C18
:1052D00088F80010BDE8F087E8000020F002002008
:1052E000980000200000C040B81E053F8FC2F53E68
:1052F0002DE9F047104F114D114E8946804600248C
:10530000641C052C15DC386820B1BDE8F0470DA001
:10531000FBF732B84946012000F000F92878002850
:10532000FDD13220FFF7AEF8FFF7CAFE30608045AE
:10533000E6D1BDE8F0870000100000200700002043
:105340000C000020E5A0B5E8BDACE8B685E697B650
:10535000210D0A002DE9F04F6C4C87B00026206823
:1053600040F004002060206800F0040005902068F0
:1053700040F010002060206800F0100005902068C8
:1053800040F020002060206800F020000590206898
:1053900040F010002060206800F0100005902068A8
:1053A00040F010002060206800F010000590206898
:1053B00040F004002060206800F0040005902068A0
:1053C00040F020002060206800F020000590206858
:1053D00040F020002060206800F020000590206848
:1053E00040F020002060206800F020000590206838
:1053F00040F004002060206800F004000590206860
:1054000040F0040020602068012700F004000097AD
:105410000590022511200395CDE90106DFF8F0B0D3
:1054200069465846FCF78AFA002201215846FCF7E3
:1054300082FB4FF01008CDF80080CDE90165DFF860
:10544000D4A0694650460395FCF778FA4FF020093E
:10545000CDF80090CDE90165694650460395FCF70B
:105460006DFA40200090CDE90165694650460395EC
:10547000FCF764FA28030090CDE9016569465846B7
:105480000395FCF75BFA60150090CDE90165DFF844
:1054900088A0694650460395FCF750FAFEF7D2FF04
:1054A000C0200090CDE90165694650460395FCF7A0
:1054B00045FAA0150090CDE901656946504603956F
:1054C000FCF73CFA0820CDE90007CDE90265694602
:1054D0005846FCF733FACDE90265CDE90087694605
:1054E0005846FCF72BFA206840F004002060206842
:1054F000CDE9026500F004000590CDE9009769460A
:105500005846FCF71BFA07B0BDE8F08F3038024070
:105510000008024000100240001402402DE9F84F3C
:105520000D46FFF7CDFDFB4C0746206801280AD049
:10553000012F0DD0022F0BD0032F09D0042F07D03D
:10554000052F05D008E0BDE8F84FF3A0FAF714BF27
:105550003946F8A0FAF710FFFB482168DFF8EC8322
:105560000078084398F8001008437DD1FEF7E0FF6B
:1055700000287AD0F648F74EDFF8DCA3DFF8DCB37A
:10558000EDB3012D70D10560FFF732FBDFF8D0934A
:10559000D9F80000009000F0D9FFCBF80000009887
:1055A000A0F52840C03800F0D1FFEE490860404621
:1055B00005704FF4FA70FEF765FFDFF8ACB300BF7B
:1055C000DBF8000000F0C2FFE449096801F007F9C8
:1055D0008046D9F8000000F0B9FF414600F0CEFF48
:1055E0007ED2FEF7A5FF00287AD0E04900200860AF
:1055F000D9F8000000F0AAFFDFF8608300E01BE0AC
:10560000D8F8001001F0F6F87060FFF70BFB4FF4CC
:10561000FA70FEF737FFD649D8F8000001F0EAF833
:105620008046D9F8000000F091FF414600F0A6FF47
:105630007ED200202060FEE14FF00009C0F800900B
:10564000FFF7D6FAC6480068054600F07FFFCBF8A2
:1056500000004AF2F870284400F078FFC1490125A3
:105660000860BA48057001E0FDE0A6E24FF4FA7068
:10567000FEF708FFDFF8E8B2BB48006800F066FFFD
:10568000B649096800F010FE8046DBF8000000F023
:105690005DFF414601F072F832D2FEF749FF70B368
:1056A000B249C1F80090DBF8000000F04FFFDFF8CE
:1056B000AC82D8F8001001F09DF87060FFF7B2FAE4
:1056C0004FF4FA70FEF7DEFEA949D8F8000000F0AA
:1056D000EBFD8046DBF8000000F038FF414600E0BB
:1056E000F1E001F04BF802D2C4F8009043E003204F
:1056F0002560CAF800009FA0FAF73EFE29E0FFE708
:105700009848A249006800F0CFFD8046DBF8000011
:1057100000F01CFF414601F031F81DD2FFF74EFAB0
:105720000A202560CAF8000099A0FAF725FE00E0DB
:10573000C1E0DBF8000000F009FF8849096801F0CA
:1057400059F8706000F084FD02460B4694A0FAF709
:1057500013FEFEF767F90BE095A10420FEF7ECF9C4
:1057600030B9206801287DD0FEF7C8F9002883D021
:105770002068012877D0FEF7DBFE18B1904805704D
:1057800048465EE1DFF8DC818E49D8F8000001F080
:1057900031F80090DBF8000000F0D8FE009900F02E
:1057A000EDFE34D263A0DBF80010FAF7E5FD6420CB
:1057B000FEF768FEFFF71CFA6449022008706B4987
:1057C000C1F800906848006800F0C0FE63490968AD
:1057D00000F06AFD8046DBF8000000F0B7FE4146AD
:1057E00000F0CCFF06D2FEF7A3FE18B15F49C1F866
:1057F000009030E074A10520FEF79EF9A0BB206860
:105800000128B0D0FEF77AF90028DBD03FE06D49DF
:10581000D8F8000000F048FD8046DBF8000000F0FA
:1058200095FE414600F0AAFF31D242A0DBF80010FD
:10583000FAF7A2FD6420FEF725FEFFF7D9F94349E8
:10584000DFF8288103200870C8F80090FEF770FE8A
:1058500088B1C8F80090DBF8000000F077FE3F49FF
:10586000096802E05DE153E011E000F0C3FF706001
:10587000FFF7D8F90BE054A10620FEF75DF930B927
:1058800020680128BDD0FEF739F90028DED0206855
:1058900001283DD04FF4FA70FEF7F4FDFEF748FE04
:1058A00018B147480570484669E107202560CAF8E5
:1058B000000049A07BE103202560CAF800002DA06C
:1058C000FAF75AFDA3E027483049006800F092FF3C
:1058D0008046D9F8000000F039FE414600F04EFE47
:1058E00017D2FFF76BF90A202560CAF8000040A024
:1058F000FAF742FDD9F8000000F028FE17490968C0
:1059000000F078FF706000F0A3FC02460B467BE0DD
:1059100008E17FE010000020E794B5E69CBAE58836
:105920009DE5A78BE58C96E5A4B1E8B4A5210D0A09
:1059300000000000E5BD93E5898DE4BD8DE7BDAEB7
:105940003A25640D0A000000070000200600002030
:1059500018000020E80000202C0000204C0000204F
:105960004400002050000020340000201C000020D3
:1059700000007A44E58589E794B5E6A380E6B58B17
:10598000E5BC82E5B8B8210D0A00000000409C4546
:10599000E5A0B5E8BDACE8B685E697B6210D0A00EE
:1059A000E88489E586B2E695B0323A25660D0A00AC
:1059B000E794B5E69CBAE8B685E999902100000025
:1059C0000500002000009643E8BF90E8A18CE8B6EF
:1059D00085E697B621000000E5B7A5E4BD8DE58812
:1059E000B0E8BEBEE5A4B1E8B4A5210D0A000000F0
:1059F000E58F8DE8BDACE5A0B5E8BDACE8B685E6C1
:105A000097B6210D0A0000006DA0FAF7B5FCFEF76D
:105A100009F80DE0AFF268010420FEF78DF838B9FF
:105A2000206801287DD0FEF769F800283FF4C8AD52
:105A30002068012876D0FEF77BFD38B164480570F8
:105A4000002064490870644908709FE0DFF8908185
:105A50006249D8F8000000F027FC0090D9F8000057
:105A600000F074FD009900F089FE37D2AFF23C10CF
:105A7000D9F80010FAF780FC6420FEF703FDFFF769
:105A8000B7F854490320087056490020C1F80000B7
:105A9000DBF8000000F05AFD5349096800F09FFE52
:105AA0008046D9F8000000F051FD414600F066FD47
:105AB00006D2FEF73DFD18B14A490020086038E0E3
:105AC000AFF2FC010520FEF737F860BB2068012823
:105AD00064D0FEF713F80028DAD043E03F49D8F845
