:020000040800F2
:100000000814002049020008FB300008F92E0008FF
:10001000F93000085B1500083938000800000000BE
:10002000000000000000000000000000FF30000899
:100030005D15000800000000FD3000089531000843
:1000400063020008630200086302000863020008FC
:1000500063020008630200085F15000863020008DD
:1000600063020008630200086302000863020008DC
:1000700063020008630200086302000863020008CC
:1000800063020008630200086302000863020008BC
:1000900063020008630200086302000863020008AC
:1000A000630200089D310008630200086302000833
:1000B00063020008B5310008C1310008630200087E
:1000C000630200086302000863020008630200087C
:1000D00063020008D93700086302000863020008C1
:1000E000630200086302000863020008630200085C
:1000F000630200086302000863020008630200084C
:100100006302000863020008ED3100086302000882
:1001100095340008630200081932000863020008E1
:10012000630200086302000863020008630200081B
:10013000630200086302000863020008630200080B
:1001400063020008630200086302000863020008FB
:1001500063020008630200086302000863020008EB
:1001600063020008630200086302000863020008DB
:100170006302000863020008630200080000000038
:10018000630200086302000800F002F800F04DF876
:100190000AA090E8000C82448344AAF10107DA45E2
:1001A00001D100F042F8AFF2090EBAE80F0013F0E7
:1001B000010F18BFFB1A43F001031847346D00000C
:1001C000546D0000103A24BF78C878C1FAD852079D
:1001D00024BF30C830C144BF04680C6070470000C1
:1001E0000023002400250026103A28BF78C1FBD840
:1001F000520728BF30C148BF0B607047662906F020
:10020000AE85642900F0EE80732900F0518400204F
:1002100070471FB500F062FC04000020002106F0CA
:100220001BF8E0601FBD10B510BD00F06FFD11465A
:10023000FFF7EFFF04F020FD00F08DFD03B4FFF7A2
:10024000F2FF03BC03F024FB09488047094800473C
:10025000FEE7FEE7FEE7FEE7FEE7FEE7FEE7FEE776
:10026000FEE7FEE704480549054A064B70470000D3
:100270009931000889010008080E002008140020A8
:100280000810002008100020704753EA020C00F00C
:1002900069802DE9F04B4FF00006002B1FBFB3FA29
:1002A00083F503FA05F424FA05F65E4012BF1643FF
:1002B000B2FA82F502FA05F4C5F120051EBF22FA52
:1002C00005FC44EA0C04203556EA044C4FEA144479
:1002D00018BF641C4FF000084FF00009904271EB0A
:1002E000030C39D3002919BFB1FA81F701FA07F6D7
:1002F000B0FA80F700FA07F6C7F120071EBF20FA10
:1003000007FC46EA0C062037B6FBF4FCA7EB050712
:10031000103F07F01F0BCBF120060CFA0BFB2CFA59
:1003200006F644BFB3460026202FA4BF5E464FF01A
:10033000000B5BEA060C08BF4FF0010B19EB0B0931
:10034000ABFB027C48EB0608C01B06FB02CC0BFB98
:1003500003CC71EB0C01C1E70B460246414648460F
:10036000BDE8F08B13B54FF000004FF00001AFF384
:100370000080BDE81C4070470FB4044910B503AAC3
:10038000029800F099FB10BC5DF814FBF800002007
:1003900070B50C460546012A05D02878800600D5A0
:1003A000EA69002302E0012305E05B1C934202D2CC
:1003B000E05C0028F9D1A869E618C01AA861286A8B
:1003C000184428622846AFF3008004E0D5E90121F3
:1003D00014F8010B9047B442F8D32846AFF30080DD
:1003E00070BD00002DE9F041064600241068752913
:1003F000314616A510D0AFF30080002802DA404243
:1004000013A507E031688A0701D512A502E0490764
:1004100004D511A5012401E0AFF3008000210A22D8
:1004200006F1240709E0B0FBF2FCB0FBF2F302FB9B
:100430001C00303078541846491C0028F3D123465C
:100440002A463046BDE8F04100F0BAB8000000008E
:100450002D0000002B000000200000002DE9F047D7
:100460004FF0000A89460446C0F820A02046E16803
:100470008847002876D0252806D0D4E90121904766
:10048000206A401C2062F1E7E16820460025884789
:10049000C4F81CA006460027C4F818A02A2E09D0CC
:1004A000304603F0EEF938B304EB8708303EC8F865
:1004B000186019E059F8041B204604EB870291618B
:1004C000E1688847012F064618D1E069002820DA44
:1004D00025F020051DE0D8F8180000EB800006EBA1
:1004E00040003038C8F818002046E16888470646C2
:1004F00003F0C7F90028EED1012F0AD02E2E08D123
:100500002046E16888477F1C0646022F45F02005FB
:10051000C4DBA069002803DA404245F00105A06170
:10052000E80701D025F01005B6B1A6F14100192861
:1005300002D8203645F400654A46314620462560FB
:100540004D46FFF75BFE58B1012806D0ED1D25F0A2
:10055000070000F1080989E704E005F1040985E7CF
:1005600030468AE7206ABDE8F0874FF0000200B508
:10057000134694469646203922BFA0E80C50A0E8C6
:100580000C50B1F12001BFF4F7AF090728BFA0E874
:100590000C5048BF0CC05DF804EB890028BF40F840
:1005A000042B08BF704748BF20F8022B11F0804F82
:1005B00018BF00F8012B70477047704770477047AD
:1005C0002DE9F0470D4699469246044600F124086D
:1005D0000168880604D5E06921F01001216000E07F
:1005E0000120A84201DD471B00E00027A1697A191C
:1005F00002EB0900081AA0612078C00602D4204648
:10060000AFF30080002608E0D4E901211AF80600C3
:100610009047206A401C761C20624E45F4DB20780F
:10062000C0060AD52046AFF3008006E0D4E90121D8
:1006300030209047206A401C2062381EA7F1010735
:10064000F4DC07E0D4E9012118F805009047206A9E
:10065000401C2062281EA5F10105F3DC2046AFF303
:1006600000802078000602D50220BDE8F087012036
:10067000FBE770472DE9FF4F0C461E464FF0FF3752
:100680008BB0D2E90001DDF860800A908A46C1F3A0
:100690000A5505B93D46002108464FF00000BAF161
:1006A000000F00F4400005DA00EB80004FF4400139
:1006B00001EA50004FEA9059B9F1010F00DDB94647
:1006C0000A9850EA4A000ED044F61050A5F2FF35C1
:1006D00045432F14B8F1000F1ED07542291E1EDDB0
:1006E000C9F100021CE0B8F1010F4FF0000001D089
:1006F000302103E0F24305E02154401CB042FBDB13
:1007000030460022002121540B99C1F80880C1E92C
:1007100000200FB0BDE8F08FBD1B6D1CDEE74A4620
:1007200000DA694206A800F07BFA06AB93E80700FE
:1007300003AB83E8070050460A9900F053FB8DE8AD
:100740000700A0F500501F3800900398002D09DD28
:1007500042F21F014A46084403A90390684600F08C
:10076000B2FD08E0A0F500504A461F3803A90390E7
:10077000684600F0BCFD8DE807000004000C03D0C3
:100780004FF0FF30410800E01046B8F1000F03D0F1
:100790000022009215461EE0751E05D400F0A2F955
:1007A000303262556D1EF9D5B3460122084302D09E
:1007B00000227F1C04E02078302801D100227F1E17
:1007C000002A099786D01DE0112D07DA00F08AF97A
:1007D000303262556D1C50EA0102F5D1084302D057
:1007E0000098C8B10EE00021681E05E0235C625C41
:1007F00063542254401E491C8142F7DBAB46A81BC0
:10080000401E0990002004F80B000B98099AC0F8CC
:100810000880C0E9002B7CE711264FF0000859E75B
:100820002DE9F04F88460446D21D22F0070191B011
:10083000D1E90001CDE90A0102F0FFFF02460B9861
:10084000C00F01D02D2007E02068810701D52B20A3
:1008500002E0202101EAC000032A099001D0072A02
:1008600005DB03464146204600F09AF90BE120786B
:10087000800601D5E06900E00620B8F1650F8146E9
:1008800006D0B8F1660F18D0B8F1670F70D131E01B
:100890000020B9F1110F009001DB112301E009F1F3
:1008A00001030AAA01A90CA8FFF7E4FEDDE90C7018
:1008B000002609F10105834647E001204B460090E0
:1008C0004FF000470AAA01A90CA8FFF7D3FEDDE903
:1008D0000DB00C995D46002610B909F101000D1804
:1008E000B9EB050003D4C0F1FF3609F10105A5EB12
:1008F00009002BE0B9F1010F01DA4FF001090020E6
:10090000B9F1110F0090484601DD112300E00346C4
:100910000AAA01A90CA8FFF7ADFEDDE90C704D464F
:1009200000268346207800070AD4AB4500DA5D46EE
:1009300001A8012D04DD411911F8011C302907D04F
:100940004F4502DA17F1040F04DA012082460FE066
:100950006D1EEEE7002F02DCED1B3E4403E0781C29
:10096000A84200DD7D1CB81B00F1010A4FF00047D2
:100970002078000703D4AA4501DB4FF0FF3A00219D
:10098000B7F1004F0DF143088DF8431024D0022039
:100990002B23002F01DA7F422D230A21021EA0F112
:1009A000010000DC5FB197FBF1FC97FBF1F201FB6A
:1009B0001C7C17460CF1300C08F801CDEEE7A8F1CD
:1009C000010003702188090501D5452100E065215A
:1009D000A0F1010800F8011C09980FA9A1EB080774
:1009E000FF1D00B10120411901EBEA70A1693844F3
:1009F000081A401EA0612078C00602D42046AFF33A
:100A00000080099828B1D4E901219047206A401C50
:100A100020622078C00622D52046AFF300801EE079
:100A2000002E04DBB34502DD01A8805D00E030202C
:100A3000D4E901219047206A401C2062761CAAF16B
:100A400001005FEA000A0AD100F048F8C0680168B6
:100A5000405CD4E901219047206A401C2062281E96
:100A6000A5F10105DCDC07E0D4E9012118F8010B50
:100A70009047206A401C2062381EA7F10107F3DC72
:100A80002046AFF30080032011B043E610B5436960
:100A900013B1AFF3008001E0FFF77AFC012010BD35
:100AA000127800F124010A7000224A700122EDE759
:100AB00011684FF0FF32E9E7074B70B50D467B44F4
:100AC00000F05BF80446284600F018F910B14FF02A
:100AD000FF3070BD204670BD4F3F0000004870479A
:100AE000C80D002030B5B0F10A024FEA900E71F146
:100AF00000034EEA817EB0EB0E0061EB91014FEAFC
:100B0000101E4EEA017E10EB0E0041EB11114FEA70
:100B1000102E4EEA016E10EB0E0041EB11214FEA50
:100B2000104E4EEA014E10EB0E0041EB1141401801
:100B300041F100014FEAD00040EA41704FEAD10193
:100B400010EB80054FEA810444EA907444EB010401
:100B50006D1944EB0404521BA3414FF0000348BF3E
:100B60000A3200D530BD401C41F1000130BD00000B
:100B700001694A1C02610878704700B58FB0CDE961
:100B800001310021059105497944CDE90310114651
:100B90006846FFF763FC0FB000BD0000E5FFFFFFF4
:100BA0002DE9F0411F46044603260168072A01F497
:100BB000006004DB08B116A505E016A503E008B146
:100BC00015A500E015A521F010002060A069C01E49
:100BD000A0610FB1401EA0612046AFF300804FB16D
:100BE000D4E9012138469047206A401C2062C01C8D
:100BF000206206E0206AFAE7D4E9012115F8010B2A
:100C00009047761EF8D22046AFF30080BDE8F08111
:100C10004E414E006E616E00494E4600696E6600A0
:100C20002DE9F047814616468AB0334878440DC80E
:100C30008DE80D0030487844801C03AC0DC884E872
:100C40000D0041F69B300844372190FBF1F290FBF8
:100C5000F1F5A5F1800501FB12041B3C02D56442AD
:100C6000012000E00020DFF890A080460027FA4431
:100C7000AAF1BE0A0DE0E00709D03246684607EB4C
:100C800047010AEB810100F032FB8DE80700641098
:100C90007F1C002CEFD1184F7F44AC3F18E0E807D1
:100CA00014D007EB04100DF1180A90E80E008AE842
:100CB0000E00C068F04201D198190890324606A98A
:100CC00003A800F014FB03AB83E807006D10641C5D
:100CD000002DE4D132466946B8F1000F03A802D0D6
:100CE00000F0F1FA01E000F002FBC9E90001C9F8E7
:100CF00008200AB0BDE8F087A8620000007B00F081
:100D00008000704700487047A80D00207546FFF727
:100D1000F9FFAE4605006946534620F007008546B8
:100D200018B020B5FFF79EFABDE820404FF000064E
:100D30004FF000074FF000084FF0000B21F00701C3
:100D4000AC46ACE8C009ACE8C009ACE8C009ACE806
:100D5000C0098D4670470446AFF300802046FFF778
:100D60006DFA00004FF0013C50F8042B51F8043BA1
:100D70009A4221D1A2EB0C03934313EACC1317D16F
:100D800050F8042B51F8043B9A4215D1A2EB0C0306
:100D9000934313EACC130BD150F8042B51F8043BC6
:100DA0009A4209D1A2EB0C03934313EACC13DBD094
:100DB0004FF00000704700BFD01A01BAB1FA81F1BC
:100DC00001F0180122FA01F0CB40C1F12001DBB2A1
:100DD000C0B2C01A2CFA01F3D11A914311EAC3111F
:100DE000E6D170475FEA400C08BF91F0000F4FEA70
:100DF0008C234FEAC12243EA51514FEA1C5018BFDD
:100E000000F5F0404FEA300018BF41F000415FEAC2
:100E10006C5C00F02980BCF1FF3F08BF40F08040CF
:100E20007047130C06BF12044FF0100C4FF0000C6B
:100E3000130E04BF12020CF1080C130F04BF1201B1
:100E40000CF1040C930F04BF92000CF1020CD30FB1
:100E500004BF52000CF1010C11464FF00002A0F14A
:100E60001F00A0EB0C00704711F0004F08BF704747
:100E700031F000413FF4D5AF0B0C06BF09044FF031
:100E8000100C4FF0000C0B0E04BF09020CF1080C03
:100E90000B0F04BF09010CF1040C8B0F04BF890078
:100EA0000CF1020CCB0F04BF49000CF1010CCCF18A
:100EB0002003A0EB0C0022FA03F302FA0CF241EA41
:100EC000030100F10100704720F07F4C80EA03002D
:100ED00023F07F47ACEB070303F57C5300F00040A1
:100EE00003F1FF032DE980494FEA154B09B44FEA9E
:100EF000144325EA0B4E24EA03480FF2042606EBBE
:100F0000132749083E785FEA320203FB0667C7F5FC
:100F1000000707FB06F64FEA54374FEAD64606F1BC
:100F2000020607FB066CCCF1005C4FEA1C472CEA7A
:100F3000074C07FB06F40CFB06F504EB15464FEADD
:100F4000961634BF00204FF000404FEAD13706FB21
:100F500007FC4FEA1C4C0CFB0BF7D21B03FB0CF7F6
:100F600061EB07010CFB0EF7B0EB074072EB174289
:100F70000CFB08F734BFA2EB0742B2EB074261EB70
:100F800017414FEA0C444FEA910706FB07FC4FEA72
:100F90001C4C0CFB0BF7B0EBC74072EB573203FB5A
:100FA0000CF734BFA2EBC742B2EBC74261EB57313B
:100FB0000CFB0EF7B0EBC70072EB57720CFB08F797
:100FC00034BFA2EBC702B2EBC70261EB5771039FBC
:100FD0004FEA816141EA921104EBCC044FEAD13728
:100FE0004FEA826206FB07FC42EA90124FEA8060F9
:100FF0004FEA1C4C0CFB0BF7D21B03FB0CF761EB0D
:1010000007010CFB0EF7B0EB074072EB17420CFB2D
:1010100008F734BFA2EB0742B2EB074261EB17417E
:101020004FEA8C554FEA910704EB9C2406FB07FC22
:101030004FEA1C4C0CFB0BF7B0EBC74072EB57327E
:1010400003FB0CF734BFA2EBC742B2EBC74261EB24
:1010500057310CFB0EF7B0EBC70072EB57720CFB6D
:1010600008F734BFA2EBC702B2EBC70261EB5771BE
:1010700015EB4C254FEA816141EA92114FEA8262F9
:101080004FEAD13742EA901206FB07FC44F1000414
:101090004FEA80604FEA1C4C0CFB0BF7D21B03FBA2
:1010A0000CF761EB07010CFB0EF7B0EB074072EB9E
:1010B00017420CFB08F734BFA2EB0742B2EB074222
:1010C00061EB174115EB1C154FEA813141EA924162
:1010D0004FEA823242EA90424FEA80304FEA0C7681
:1010E00044F1000448EA03434EEA0B484FF0000E77
:1010F000B2EB080C71EB030724BF624639464EEB96
:101100000E0E4FF0000B0018524149414BEB0B0BF8
:10111000B2EB080C71EB03077BF1000B24BF6246B6
:1011200039464EEB0E0E4FF0000B0018524149416C
:101130004BEB0B0BB2EB080C71EB03077BF1000BD5
:1011400024BF624639464EEB0E0E51EA020718BF25
:1011500046F0010616EB0E7655F1000254F100013F
:1011600003D5BDE88901BDE80088BDE88901BDE877
:101170000048B619524141EB0101A3F10103704748
:1011800080807F7E7D7C7B7A7978777676757473C4
:10119000727171706F6E6E6D6C6C6B6A6A69686883
:1011A000676666656464636362616160605F5F5E19
:1011B0005E5D5D5C5C5B5B5A5A595958585757568F
:1011C00056555555545453535252525151505050F4
:1011D0004F4F4F4E4E4D4D4D4C4C4C4B4B4B4A4A46
:1011E0004A4949494848484747474746464645458A
:1011F00045444444444343434342424242414141C3
:10120000002B26D4770021D01CB54FEA370703B452
:101210004FF010004FF010014FF000000FBCBDE880
:1012200010400BF1010BBBF1010F08BF5FEA17077C
:1012300022BF12F1010211F101014FF0004143F10F
:10124000000300F0004043EA00007047F9D357085C
:10125000DAE746EA064613F1400F4FEA16461FDD6D
:1012600013F1200FDFBF16430A46002120335B42F3
:10127000C8D0C3F1200746EA064602FA07F74FEA4C
:10128000164646EA0706C3F1200722FA03F201FADE
:1012900007F721FA03F14FF0000342EA0702B1E732
:1012A00046EA020646EA06464FEA164646EA0106BE
:1012B000BCBF46EA0646360C4FF000034FF0000272
:1012C0004FF000019EE72DE9C048934630B491E805
:1012D000380007C831EA400C48BF34EA430C03D554
:1012E000FFF7F2FDFFF78CFFF0BCBDE800882DE9A9
:1012F000C048934630B491E8380007C810F0804FDA
:1013000008BF13F0804F03D100F005F8FFF778FF16
:10131000F0BCBDE8008820F07F4780EA030023F09E
:101320007F4C07EB0C03A3F57C5300F00040A3F1C6
:10133000FE0392F0000F00F0B38095F0000F00F074
:1013400077802DE901494FEA11404FEA144621EA1E
:10135000004800FB06FC24EA064708FB06F607FBEC
:1013600008F800FB07F718EB06484CEB164C4FEA61
:10137000124B18EB07484FEA15464CEB174022EA90
:101380000B4E0BFB06FC25EA06470EFB06F607FB99
:101390000EFE0BFB07F71EEB064E4CEB164C4FF008
:1013A00000061EEB074E4CEB174B18EB0B0840F1F9
:1013B000000018EB0E0B58EB000840F100008F1AEC
:1013C0004FF000013CBFC943661B14BFB5EB040CD2
:1013D00000213CBFC943F61B4FEA17444EEA8E0E6C
:1013E00027EA04454FEA1C4704FB07622CEA074C36
:1013F00005FB07F70CFB05F604FB0CFC16EB074698
:1014000042EB174216EB0C4642EB1C421BEB060666
:1014100058EB0202414146EA9E0601D5BDE801892A
:10142000B619524141EB0101A3F10103BDE8018965
:101430004FEA14454FEA114724EA054621EA074CD2
:1014400005FB07F406FB07F70CFB06F105FB0CFC9C
:1014500011EB074144EB17444FEA124711EB0C41E3
:1014600044EB1C4422EA074C05FB07F206FB07F796
:101470000CFB06F605FB0CFC16EB074642EB17428D
:1014800016EB0C4642EB1C456A1854F1000148BFAC
:101490007047B619524141EB0101A3F101037047B6
:1014A00095F0000F37D04FEA11424FEA144721EA76
:1014B000024624EA074C02FB07F106FB07F70CFB88
:1014C00006F402FB0CFC14EB074441EB17414FEA16
:1014D000154714EB0C4441EB1C4125EA074C02FB79
:1014E00007F506FB07F70CFB06F602FB0CFC16EBF8
:1014F000074645EB174516EB0C4645EB1C42121907
:1015000051F1000148BF7047B619524141EB01014A
:10151000A3F1010370474FEA14454FEA114724EA4B
:10152000054621EA074C05FB07F106FB07F70CFB14
:1015300006F24FF0000605FB0CFC12EB074241EBF4
:10154000174112EB0C4251EB1C4148BF70479218F7
:1015500041EB0101A3F101037047FEE77047012051
:1015600000F032BA002229B101291AD002291BD079
:101570004FF440720E490B6823F440730B600B6804
:1015800013430B600A6822F078020A600A6802239B
:1015900003EBC00002430A60086840F48030086032
:1015A00070474FF48072E5E74FF40072E2E7000005
:1015B000103C02401348016889050FD5016821F4E9
:1015C00000710160016841F400610160016821F46B
:1015D00000610160016841F4007101600168490522
:1015E0000FD5016821F480610160016841F48051E8
:1015F0000160016821F480510160016841F480615B
:1016000001607047003C024008490A6822F44072B9
:101610000A600A6842F004020A600A684FF48033E4
:1016200043EA002002430A6070470000103C024079
:10163000064A136823F44073136013681360136839
:1016400043F001031360017070470000103C02403A
:10165000094910B50C6824F440740C600C6844F41B
:1016600040740C600C6844F001040C600260BFF32D
:101670006F8F436010BD0000103C0240074A1368A2
:1016800023F440731360136843F48073136013688A
:1016900043F001031360018070470000103C0240DA
:1016A000074A136823F440731360136843F400730C
:1016B0001360136843F0010313600160704700007A
:1016C000103C024017490868C206174805D5C26990
:1016D00042F01002C26110220A600A68920605D523
:1016E000C26942F00802C26120220A600A685206FA
:1016F00005D5C26942F00402C26140220A600A684C
:10170000120605D5C26942F00202C26180220A6057
:101710000A68920705D5C26942F02002C261022020
:10172000086070470C3C0240A400002070B51149CD
:1017300004460020C86100F055FA06460E4D09E047
:10174000601C07D024B100F04DFA801BA04201D9E3
:10175000032070BD2868C003F2D42868C00701D0F8
:1017600001202860286810F0F200F2D0FFF7AAFFED
:10177000012070BDA40000200C3C02402DE9F04186
:101780000446876D00F02EFA064694F835000025D1
:10179000022806D08020606584F834500120BDE81E
:1017A000F0812068016821F016010160206841691C
:1017B00021F080014161206C08B9A06C20B1206843
:1017C000016821F0080101602068016821F0010131
:1017D00001600CE000F006FA801B052807D92020E4
:1017E0006065032084F8350084F83450D7E720681A
:1017F0000068C007EED194F85C103F208840B860C4
:10180000012084F8350084F834500020C7E790F8B0
:101810003510022903D08021416501207047052140
:1018200080F835100068016821F001010160002096
:10183000704700002DE9F047044622480F46017E1C
:1018400001290AD00121804601764CF250394846E0
:10185000FFF76CFF020003D02FE00220BDE8F08705
:101860004FF0FF3038602068174D012801D0A6687E
:101870001CE0207C6168FFF7C7FE4846FFF756FF73
:101880000246286820F00400286014E0217C3046DD
:10189000FFF768FE4846FFF749FF0200286820F07E
:1018A0007A00286001D03E6005E0761CD4E9021081
:1018B0000844B042EAD8FFF77DFE002188F81810EE
:1018C0001046CBE7A4000020103C0240034801680A
:1018D00041F000410160002070470000103C0240D0
:1018E0002DE9F0471B4E05461446307E1F468946BB
:1018F000012808D0012030764CF250384046FFF7DE
:1019000015FF18B114E00220BDE8F0879DB1012D4C
:1019100016D0022D19D022463B464846FFF798FEC6
:101920004046FFF703FF0C490A6822F001020A60F3
:1019300000213176E8E7E1B24846FFF779FEEFE7AC
:10194000A1B24846FFF79AFEEAE721464846FFF76C
:10195000A7FEE5E7A4000020103C02400749002054
:101960000A68002A09DA054A054B0C3A1360054B50
:1019700013600968002900DA01207047103C02401A
:1019800023016745AB89EFCD10B504460A2002F06C
:10199000DBFF012C07D1044901200860BDE810409D
:1019A00002A0FEF7E9BC10BD1C000020EFBFBDEF98
:1019B000BFBDEFBFBDEFBFBDEFBFBDD8BCEFBFBD6B
:1019C000EFBFBD0D0A000000044910B50A680242CD
:1019D00002D00860FFF7D8FF10BD0000143C0140A2
:1019E0002DE9F84FDFF8BCA10022012503264FF0B6
:1019F0000F090AF1040BAAF1040E00BF0B6805FAE7
:101A000002F42340A34270D10F7907F00307012F9E
:101A100001D0022F16D187684FEA420806FA08FC67
:101A200027EA0C07D1F80CC00CFA08FC4CEA070CAA
:101A3000C0F808C04768A7430C79C4F30014944069
:101A40003C4344600C79E443A4070AD0C4684FEADD
:101A5000420C06FA0CF7BC438F6807FA0CF72743D1
:101A6000C7600C7904F00304022C12D1D40800EBF7
:101A7000840CDCF820405707FF0E09FA07F824EA27
:101A80000804D1F8108008FA07F848EA0408CCF8EE
:101A9000208004684FEA420C06FA0CF7BC430F7929
:101AA00007F0030707FA0CF7274307604C6814F4A4
:101AB000403F70D03C4C276847F48047276024683B
:101AC00022F0030704F480440094384C07EB040C24
:101AD000DCF8084897074FEA177809FA08F7BC437B
:101AE000334FB84202D1002724E054E0314FB842CE
:101AF00001D101271EE0304FB84201D1022719E081
:101B00002E4FB84201D1032714E02D4FB84201D126
:101B100004270FE02B4FB84201D105270AE02A4FD6
:101B2000B84201D1062705E0284FB84201D1072766
:101B300000E0082707FA08F72743CCF80878DAF816
:101B400000405746D1F804C09C435FEACC2C00D536
:101B50001C433C60DBF800405F46D1F804C09C4366
:101B60005FEA8C2C00D51C433C60DEF800407746D1
:101B7000D1F804C09C435FEA8C3C00D51C433C6018
:101B8000084F083F3C68D1F804C09C435FEACC3C56
:101B900000D51C433C60521C102AFFF42FAFBDE857
:101BA000F88F0000083C01404438024000300140FA
:101BB000000002400004024000080240000C024005
:101BC000001002400014024000180240001C0240B5
:101BD0000069084000D0012070470AB18161704758
:101BE0000904FBE70148806870470000C40000203A
:101BF000024881680278114481607047C400002067
:101C00000B4810B5016841F400710160016841F4AE
:101C100080610160016841F480710160032000F07F
:101C20006FF80F2000F006F800F024F8002010BD37
:101C3000003C024070B50D4D04464FF47A7128788F
:101C4000B1FBF0F00A490968B1FBF0F000F028FBA5
:101C500048B9102C07D200222146501E00F030F85F
:101C600000206C6070BD012070BD0000C400002029
:101C7000000000200A4808B5016841F48041016075
:101C8000006800F4804000900548001F016841F0A2
:101C900080510160006800F08050009008BD000095
:101CA00044380240002809DB00F01F020121914066
:101CB0004009800000F1E020C0F8001170470000EA
:101CC000F0B40E4B1B680C46C3F30223C3F10705A7
:101CD000042D00D90425191D072901D2002300E095
:101CE000DB1E012606FA05F1491E214099409E405F
:101CF000761E16403143F0BC01F0B3BD0CED00E0A0
:101D0000064900F0070208684FF6FF03184040EA52
:101D10000220034A10430860704700000CED00E009
:101D20000000FA05BFF34F8F05480168054A01F42A
:101D3000E06111430160BFF34F8F00BFFDE700007A
:101D40000CED00E00400FA052DE9F0470E46050011
:101D500065D0DFF81481D8F80000F7B200F0070072
:101D6000B04207D288F80070D8F8000000F00700F1
:101D7000B04254D128683D4C810712D5400703D5A5
:101D8000206840F4E05020602878000703D52068E0
:101D900040F4604020602068A96820F0F00008430B
:101DA00020602878C0072DD030496868083901289C
:101DB00012D0022813D0032811D0096889070029FE
:101DC0002DDA216821F0030101432160FFF70AFFAA
:101DD000814641F2883A0EE009688903EFE7096815
:101DE0008901ECE7FFF7FEFEA0EB0901514502D99E
:101DF0000320BDE8F0872068696800F00C00B0EBB4
:101E0000810FEFD1D8F80010404601F00701B14230
:101E100007D90770006800F00700B04201D0012028
:101E2000E7E72878400705D52068E96820F4E05006
:101E3000084320602878000706D52068296920F427
:101E4000604040EAC100206000F038F82168084A8C
:101E5000C1F30311515CC840064908600648006898
:101E6000FFF7E8FE0020C4E7003C024008380240CB
:101E7000426E000800000020C80000200448054908
:101E800000680968044AC1F38221515CC840704768
:101E90000000002008380240526E0008044805493E
:101EA00000680968044AC1F34231515CC840704778
:101EB0000000002008380240526E0008154810B596
:101EC000006810F00C02144813D04110042A0FD0FF
:101ED000082A0ED10F4C241F2268236802F03F020B
:101EE0005B0207D52068C0F38810A0FB010106E063
:101EF000084610BD2168C1F38811A1FB0001002331
:101F0000FEF7C3F92168C1F30141491C4900B0FB48
:101F1000F1F010BD083802400024F4002DE9F84F1C
:101F200004006ED02078DFF84C93C007A9F10405B7
:101F30004AD009F104000168C1F38101012908D0E8
:101F40000068C0F3810002280AD1D9F800004002DD
:101F500006D52868800337D560680028E1D033E0D3
:101F60006068B0F5803F10D0B0F5A02F286810D081
:101F700020F480302860286820F480202860606881
:101F8000A8B1FFF72FFE06460DE0286840F4803028
:101F9000F4E740F480202860F7E700BFFFF722FE57
:101FA000801B642873D828688003F7D50CE0FFF7FE
:101FB00019FE064605E000BFFFF714FE801B6428EB
:101FC000F0D828688003F7D42078DFF8AC82800747
:101FD0004FF0000A3ED5A748001D016811F00C0F14
:101FE00008D00068C0F3810002280BD1D9F80000A6
:101FF000400207D42868800716D5E068012800D180
:1020000012E033E1E068B8B10120C8F80000FFF742
:10201000E9FD064605E000BFFFF7E4FD801B02284E
:10202000C0D828688007F7D52868216920F0F80013
:1020300040EAC10028600DE0C8F800A0FFF7D2FD1B
:10204000064604E0FFF7CEFD801B02281FD8286853
:102050008007F7D42078000722D5864F874861692A
:10206000703771B101210160FFF7BCFD064604E045
:10207000FFF7B8FD801B022809D838688007F7D51C
:102080000EE0C0F800A0FFF7ADFD064605E082E0D7
:10209000FFF7A8FD801B02287DD838688007F7D499
:1020A0002078400768D5DFF8CCB100270BF13C0B56
:1020B000DBF80000C0000BD4DBF8001041F08051C9
:1020C000CBF80010DBF80000012700F080500090F2
:1020D0006B4E3068C00510D4306840F480703060BA
:1020E000FFF780FD009005E0FFF77CFD0099401AA6
:1020F000022850D83068C005F6D55E4EA0686C3610
:1021000001280FD00528306810D020F00100306081
:10211000306820F004003060A068B8B1FFF762FDBD
:1021200000900FE0306840F00100F4E740F0040058
:102130003060F7E7FFF756FD0099411A41F2883009
:10214000814266D830688007F4D50EE0FFF74AFD7B
:10215000009007E0FFF746FD0099411A41F28830F0
:10216000814256D830688007F4D42FB1DBF80010D4
:1021700021F08051CBF80010A069C8B33D49091D7A
:102180000968C1F3810102294AD00228504607D0CC
:10219000C8F8600000E03CE0FFF724FD04463BE0A7
:1021A0004746C8F86000FFF71DFD064605E000BF82
:1021B000FFF718FD801B02282BD828688001F7D470
:1021C000D4E907010843A16A2E4A490802EB0141FC
:1021D000626A41EA8211084394F82C1040EA0161D6
:1021E000C9F8001001203866FFF7FCFC044606E041
:1021F0003EE000BFFFF7F6FC001B022809D8286864
:102200008001F7D534E000BFFFF7ECFC001B02288B
:1022100002D90320BDE8F88F28688001F4D427E0B4
:102220000128F7D0D9F80000E26900F4800191425A
:102230001CD1226A00F03F01914217D147F6C071CC
:10224000626A0140B1EB821F10D1A26A4FF0FF33E6
:1022500000F4403103EB5202B1EB024F06D194F887
:102260002C1000F07060B0EB016F01D00120D1E7BD
:102270000020CFE70438024000004742800E47426A
:10228000007000400000FFFF4FF0E02104280869C3
:1022900003D020F004000861704740F00400FAE722
:1022A00010B5401EB0F1807F01D3012010BD4FF06A
:1022B000E02460610F21601701F0D3FA0020A061D3
:1022C00007202061002010BD7047704710B5040042
:1022D00003D094F83D0010B107E0012010BD0020AC
:1022E00084F83C00204600F01FF8022084F83D00EE
:1022F000211D206800F096FF012084F8460084F834
:102300003E0084F83F0084F8400084F8410084F8DF
:10231000420084F8430084F8440084F8450084F8BF
:102320003D00002010BD000038B5054600681F497B
:102330001F4C88420FD1206840F0100020602068B8
:10234000042200F01000009000213620FFF7B8FCB6
:102350003620FFF7A7FC1749286888420FD120686C
:1023600040F0080020602068032200F00800009080
:1023700001213220FFF7A4FC3220FFF793FC0E4925
:102380002868884211D1206840F00400206020684D
:10239000042200F00400009001211E20FFF790FCB1
:1023A000BDE838401E20FFF77DBC38BD001000405E
:1023B00040380240000C00400008004090F83D10FA
:1023C000012901D001207047022180F83D100168E9
:1023D000CA6842F00102CA6000681149884214D0FC
:1023E000B0F1804F11D00F4988420ED00E4988427B
:1023F0000BD00E49884208D00D49884205D00D49BE
:10240000884202D00C49884204D1816801F007015A
:10241000062903D0016841F00101016000207047E6
:10242000000001400004004000080040000C004093
:102430000004014000400140001800400168CA68E3
:1024400022F00102CA6001680A6A41F211131A42BD
:1024500007D10A6A9B101A4203D10A6822F00102CE
:102460000A60012180F83D10002070472DE9F041FD
:102470000D46040003D094F83D0018B108E0012097
:10248000BDE8F081002084F83C00204600F040F8D0
:10249000022084F83D002068816844F207029143DD
:1024A0008160211D206800F0BDFE2268906891695E
:1024B000166A2B68AF69034340F20330814341EA57
:1024C0000721A868EF6908434FF6FC418843E96893
:1024D00040EA0720014328692F6A000140EA0730DB
:1024E000084369686D6926F0AA0646EA051529437E
:1024F00093602268906154F8460B0162012004F851
:102500001F09E0752076E0762077A0750020B7E7F8
:10251000704770B590F83E60044690F83F5090F8D0
:10252000423090F84320022021B104290ED0012E20
:102530001BD114E0012E18D1012B16D184F83E00D6
:1025400084F8420001220021206820E0012D0CD1F6
:10255000012A0AD184F83F0084F8430014E0012DD9
:1025600003D1012B01D1012A01D0012070BD84F8D3
:102570003E0084F83F0084F8420084F843000122C2
:102580000021206800F0B6FE01220421206800F03E
:10259000B1FE2068016841F001010160002070BDBA
:1025A00070472DE9F04104460068C66805694FF0A0
:1025B0000007A90713D5B10711D5F91E0161012044
:1025C0002077206880698007204602D0FFF7E8FF67
:1025D00004E000F07EF8204600F052F92777680703
:1025E00016D5700714D521686FF004000861022029
:1025F00020772068806910F4407F204602D0FFF7E2
:10260000CFFF04E000F065F8204600F039F92777A5
:10261000280715D5300713D521686FF00800086129
:10262000042020772068C0698007204602D0FFF789
:10263000B7FF04E000F04DF8204600F021F92777BD
:10264000E80616D5F00614D521686FF01000086171
:10265000082020772068C06910F4407F204602D00F
:10266000FFF79EFF04E000F034F8204600F008F980
:102670002777E80708D0F00706D021686FF001003F
:102680000861204600F062F9280608D5300606D514
:1026900021686FF0800008612046FFF715FE68068C
:1026A00008D5700606D521686FF040000861204605
:1026B00000F008FAA8060AD5B00608D521686FF020
:1026C000200008612046BDE8F041FFF7FEBDBDE8EF
:1026D000F081704770B5044690F83C0000260D4626
:1026E00001280FD0012084F83C006AB1042A1DD0D3
:1026F000082A2FD00C2A3FD00126002084F83C0065
:10270000304670BD022070BD206800F001FE2068D8
:10271000816941F0080181612068816921F004012B
:102720008161206881692A69114311E0206800F005
:102730001FFE2068816941F4006181612068816920
:1027400021F480618161206881692A6941EA02215E
:102750008161D2E7206800F041FE2068C16941F044
:102760000801C1612068C16921F00401C1612068CC
:10277000C1692A69114311E0206800F063FE2068F6
:10278000C16941F40061C1612068C16921F48061BF
:10279000C1612068C1692A6941EA0221C161ACE7CF
:1027A00010B5040003D094F83D0010B107E00120FB
:1027B00010BD002084F83C00204600F01FF80220E5
:1027C00084F83D00211D206800F02CFD012084F8D4
:1027D000460084F83E0084F83F0084F8400084F806
:1027E000410084F8420084F8430084F8440084F8EF
:1027F000450084F83D00002010BD00002DE9F041A7
:1028000000681C4986B0884231D114216846FDF722
:10281000ACFE19480024016841F001010160006824
:1028200000F00100059014481430016841F00101E6
:1028300001600068022500F0010005904FF48070EF
:10284000CDE9000502AA03260127DFF8308082E8DF
:10285000D00069464046FFF7C3F8A802CDE900055D
:1028600002AA694682E8D0004046FFF7B9F806B0F0
:10287000BDE8F08100000140303802400000024015
:102880007047000010B50446022249B104290ED059
:10289000082913D094F84100012816D0012010BD5A
:1028A00094F83E000128F9D184F83E200FE094F816
:1028B0003F000128F2D184F83F2008E094F840005E
:1028C0000128EBD184F8402001E084F84120012266
:1028D000206800F00FFD16492068164A884201D092
:1028E000904203D1436C43F4004343642068884220
:1028F00013D0B0F1804F10D00F4988420DD00F494E
:1029000088420AD00E49884207D0904205D00D492E
:10291000884202D00C49884204D1816801F0070145
:10292000062903D0016841F001010160002010BDBB
:102930000000014000040140000400400008004085
:10294000000C004000400140001800402DE9F04715
:1029500000684C494C4D884274D102F093F84B4CBE
:102960000521206002F086FE206804F02FF8DFF8D1
:102970002091484C0646C9F800002078012821D152
:1029800045484649464F006810B101280DD019E06E
:10299000086804F01BF8396804F061F90146304614
:1029A00004F02CF90ED802200BE0086804F00EF8B1
:1029B000396803F0B9FE0146304604F01FF801D82B
:1029C00003202070A8781921B0FBF1F201FB12005E
:1029D00098BBA868334F401CA8602078DFF8C880F7
:1029E000324E334C012805D0324902282BD003281F
:1029F0002BD020E0D9F8000002F064FD2E492060C1
:102A00000028096806DB88420BDA64280ADA6420A9
:102A1000206007E04942884203DD6FF0630188428D
:102A200000DD2160206812E04942884200DC21601C
:102A3000206802F0F7FA0020A870A878401CA8705F
:102A4000BDE8F0870FE0086801E00868404203F045
:102A5000BDFF3860D8F8000002F0C2F8206031688D
:102A60008842E4DAE0E71549884203D12878401C1F
:102A70002870E5E712498842E2D16878401C687006
:102A8000DEE7000000100040D000002044000020DD
:102A90009C000020050000201800002030000020CD
:102AA0005000002074000020980000202400002026
:102AB000A00000202800002020000020000C004082
:102AC000000800407047704770470000F8B5016883
:102AD00004460868CA684B6910F00F0F4FF00005F4
:102AE0005AD003F0010602F49077374365D0C1074E
:102AF00005D0D10503D5616C41F001016164410746
:102B000005D5D90703D0616C41F0020161648107EA
:102B100005D5D90703D0616C41F004016164010758
:102B200007D502F02001314303D0616C41F0080168
:102B30006164616C00293BD0800604D5900602D503
:102B4000204600F00DFD20684069616CC0F38010E4
:102B500001F00801014320462BD000F0DAFC206888
:102B60004069400621D52068143050E8001F21F04C
:102B7000400140E80012002AF5D1E06BA8B172498B
:102B80000165E06BFEF743FE002811D0E06B016D9C
:102B900001B0BDE8F040084783060ED593060CD57A
:102BA0002046BDE8F84000F0DBBC2046FFF78CFF74
:102BB000F8BDFFF789FF6564F8BD266B2023012E61
:102BC0007ED1C6067CD5D6067AD5086848680090BE
:102BD00048694FF0020640064DD5E26B1068406828
:102BE0004FF480770004000C3AD0A18D814237D990
:102BF000E085D069B8422DD020680C3050E8001F25
:102C000021F4807140E80012002AF5D120681430C8
:102C100050E8001F21F0010140E80012002AF5D120
:102C20002068143050E8001F21F0400140E80012F5
:102C3000002AF5D184F84230256320680C3050E832
:102C4000001F21F0100140E80012002AF5D1E06BCE
:102C5000FEF794FD6663A08DE18D401A81B206E017
:102C6000A18D8142A8D1D069B842A5D16663204622
:102C7000FFF729FFF8BDA08DE18D401A81B2E08DEC
:102C80000028F7D00029F5D020680C3050E8002F3C
:102C900022F4907240E80027002FF5D1206814300C
:102CA00050E8002F22F0010240E80027002FF5D164
:102CB00084F84230256320680C3050E8002F00E093
:102CC00006E022F0100240E80023002BF3D1CDE70C
:102CD00005062BD5150629D594F841002128C9D120
:102CE000A068B0F5805F01D12069B0B1206A411CB5
:102CF0002162216800784860E08C401E0004000CCE
:102D0000E084B7D12068C16821F08001C1602068EB
:102D1000C16841F04001C160F8BD206A0088C0F37D
:102D200008004860206A801C2062E5E74006F3D571
:102D30005006F1D5CA68204622F04002CA6084F8E5
:102D4000413000F0D8F8F8BD0535000870B5040032
:102D500004D094F84100002510B106E0012070BDB8
:102D600084F84050204600F023F8242084F84100E5
:102D70002068C16821F40051C160204600F052FC77
:102D80002068016921F4904101612068416921F0C6
:102D90002A0141612068C16841F40051C160656445
:102DA000202084F8410084F842006563002070BD53
:102DB00010B586B0044614216846FDF7D6FB1B49C2
:102DC0002068884230D11A48016841F0040101604E
:102DD000006800F00400059015481030016841F4C7
:102DE000002101600068134C00F4002005904FF4AE
:102DF0008060009002200190012002900320039047
:102E00000820049069462046FEF7EAFDE014009091
:102E100069462046FEF7E4FD012200213420FEF73A
:102E20004FFF3420FEF73EFF06B010BD004C0040BF
:102E3000303802400008024090F84230202B01D088
:102E40000220704721B11AB10023036300F070BC67
:102E50000120704770472DE9F843044690F841007F
:102E6000984616460D46202802D00220BDE8F88379
:102E700085B17EB100206064212084F84100FEF716
:102E8000B1FEA6848146E684A0682027B0F5805F65
:102E900002D003E00120E9E7206910B12E460025A9
:102EA0000EE000260CE08021204600F05CFCA8B972
:102EB000C6B116F8010B21684860E08C401EE08422
:102EC000E08C4B464FF00002CDF800800028EAD19C
:102ED0004FF04001204600F046FC40B184F84170BC
:102EE0000320C3E735F8020BC0F30800E3E784F8DA
:102EF00041700020BAE77047FEE700002DE9F04F6F
:102F000087B014216846FDF730FB73480024016840
:102F100041F010010160016801F0100105910168A4
:102F200041F004010160016801F0040105910168AC
:102F300041F020010160016801F020010591016864
:102F400041F080010160016801F080010591016894
:102F500041F001010160016801F001010591016882
:102F600041F040010160016801F0400105910168F4
:102F700041F002010160016801F002010591016860
:102F800041F0080101600068002200F0080005908F
:102F900080215248FEF721FE4FF23F000225CDE985
:102FA000000502AA03264FF00C0882E8500169468A
:102FB0004B48FEF715FD082707200097CDE9036071
:102FC000DFF82091CDE9015469464846FEF708FD37
:102FD000C0200090CDE9015469464846CDE903453B
:102FE000FEF7FEFC40F23F60CDE9000502AA69460B
:102FF00082E850013C48FEF7F3FC4FF68370CDE9C0
:10300000000502AA694682E850013848FEF7E8FC4C
:103010004FF4406901AA12204FF0040ACDF8009045
:1030200082E85104DFF8C8B069465846FEF7D8FC7C
:103030004FF47040CDE9000502940520CDE903600E
:1030400069465846FEF7CCFC4FF63370CDE90005D3
:1030500002AA694682E850012048FEF7C1FC4FF001
:103060004008CDE9008469461F480294FEF7B8FC89
:10307000CDE9008502AADFF87C8082E8D0006946AD
:103080004046FEF7ADFC02AA694682E8D000CDE9D1
:1030900000954046FEF7A4FCE802CDE9000502AA2F
:1030A000694682E8D0004046FEF79AFC02AA6946CB
:1030B00082E8D000CDE900A50848FEF791FC802009
:1030C00000900120CDE90104694604480394FEF70D
:1030D00087FC07B0BDE8F08F30380240000C02409A
:1030E000001402400000024000180240001002409C
:1030F0000004024000080240FEE7FEE77047704708
:1031000030B593B030216846FDF72FFA14210CA892
:10311000FDF72BFA1D480025016841F08051016040
:10312000006800F0805011901948016841F4804116
:1031300001600068022400F480401190012000909A
:10314000000401908001CDE90640082008904FF46A
:10315000A870CDE9090407200B906846FEF7DEFE53
:1031600000B1FEE70CA90F2081E831004FF4A05018
:103170000F904FF48050109005210CA8FEF7E4FD4D
:10318000002800D0FEE713B030BD000040380240F8
:1031900000700040FEF72CBD704700000448006836
:1031A0000169C943C90701D1891E01617047000047
:1031B000200100200148FFF7F4B90000F8010020C9
:1031C0000148FFF7EEB90000B0010020064A054BA8
:1031D000C2E900310021C2E9021010461161FFF777
:1031E00075B8000000080040B00100200148FFF75A
:1031F000D8B9000068010020064A054BC2E9003139
:103200000021C2E9021010461161FFF75FB800000B
:10321000000C0040680100200148FFF7C2B900001F
:1032200064020020F0B50268274B284D284E294F34
:10323000294C4FF0804C984209D0604507D0A842F5
:1032400005D0B04203D0B84201D0A04204D122F050
:10325000700E4A6842EA0E0298421BD0604519D0AF
:10326000A84217D0B04215D0B84213D0A04211D016
:103270001A4DA8420ED01A4DA8420BD0194DA842A3
:1032800008D0194DA84205D0184DA84202D0184DBB
:10329000A84203D122F44075CA682A434D6922F03E
:1032A00080022A438D68C5620D688562984201D00C
:1032B000A04201D109690163016841F00401016084
:1032C000012141610260F0BD0000014000040040A6
:1032D00000080040000C0040000401400040014094
:1032E000004401400048014000180040001C00401C
:1032F0000020004010B501F01F030121046A99402D
:103300008C430462016A9A401143016210BD0000BF
:10331000F0B5036A026A22F001020262426884691F
:10332000124E24F073050C682C4323F002058B68C1
:103330002B430D4DA84201D0B04205D123F0080720
:10334000CB683B4323F00403A84201D0B04205D12F
:103350004D6922F4407215438A692A4342608461B0
:10336000496841630362F0BD000001400004014070
:10337000F0B5026A036A23F01003036243688469AC
:103380000D6824F4E64444EA05248D6822F0200206
:1033900042EA05120F4D104EA84201D0B04206D1AC
:1033A000CF6822F0800242EA071222F04002A842CF
:1033B00001D0B04207D14D6923F4406343EA85034D
:1033C0008D6943EA850343608461496881630262D1
:1033D000F0BD00000000014000040140F0B5026AA9
:1033E000036A23F4807303624368C46922F40072A1
:1033F00024F073050C68124E2C438D6842EA0522B6
:103400000E4DA84201D0B04206D1CF6822F400622E
:1034100042EA072222F48062A84201D0B04207D1DA
:103420004D6923F4405343EA05138D6943EA0513BC
:103430004360C4614968C1630262F0BD000001409D
:103440000004014030B5046A026A22F4805202622C
:103450004268C3690D6823F4E64343EA05238D6897
:1034600024F4005444EA0534084DA84202D0084D23
:10347000A84204D14D6922F4804242EA851242609A
:10348000C36149680164046230BD0000000001406E
:103490000004014070B5184800680068C043800609
:1034A0001CD416480068C2B2154841880B0415D4D4
:1034B0004C044FF0000304D50A2A0ED141F4004118
:1034C00018E00D2A14D0C1F30D040B4D491C143D16
:1034D00089B22A554180132900D943800648FFF755
:1034E000F5FABDE87040012205490348FFF7A4BC86
:1034F00041F480414180F1E7600D0020044C004020
:10350000FE00002010B5806B0021C185FFF7DCFABA
:1035100010BD01680C3151E8002F22F4907241E88F
:103520000023002BF5D10168143151E8002F22F05F
:10353000010241E80023002BF5D1016B012909D1DB
:1035400001680C3151E8002F22F0100241E80023FD
:10355000002BF5D1202180F8421000210163704733
:1035600008B590F84210222901D0022008BD8268D7
:103570004FF480539A4201D1016921B1816A9A4284
:103580001BD04AB10AE00268816A5268C2F308029D
:103590000A80816A891C08E0026972B10268526877
:1035A00002F07F020A70816A491C8162C18D491E46
:1035B0000904090CC18503D01BE002685268F1E7D9
:1035C0000168CA6822F02002CA600168CA6822F451
:1035D0008072CA6001684A6922F001024A612021B2
:1035E00080F8421000214163026B012A03D0FFF7EB
:1035F00031FC002008BD016301680C3151E8002F47
:1036000022F0100241E80023002BF5D101680A687E
:10361000D20602D50A6849680091818DFFF753FAF6
:10362000E7E7000070B5044600680169E26821F42C
:103630004051114301612169A068E2690843616951
:10364000114308432168CA6849F20C639A43024354
:10365000CA6020684169A26921F440711143416147
:1036600031492068884202D03049884202D1FEF7B1
:1036700015FC01E0FEF702FCE26900231921642534
:103680003226B2F5004F626828D0A0FB0101930FEB
:103690009200FCF7FAFD0146B0FBF5F06FF018025E
:1036A000504301EB800006EB0010B0FBF5F000F09A
:1036B000F002B1FBF5F002EB0012B1FBF5F06FF098
:1036C0001803584301EB800006EB0010B0FBF5F047
:1036D00000F00F0021681044886070BDA0FB01015C
:1036E00092185B41FCF7D1FD0146B0FBF5F00201F9
:1036F000B1FBF5F06FF01803584301EB800006EBC7
:10370000C000B0FBF5F000F0F80002EB4002B1FBA6
:10371000F5F0584301EB800006EBC000B0FBF5F07C
:1037200000F00700D6E7000000100140001401403F
:1037300081628285C28500214164222180F8421085
:10374000016921B10168CA6842F48072CA600168E7
:103750004A6942F001024A610068C16841F02001F3
:10376000C160002070472DE9F843984617460D4682
:103770000446089E24E0701C22D0FEF733FAA0EB2A
:103780000800B0421AD8CEB12068C168490717D5E1
:10379000802D15D0402D13D00168C94309070FD4DF
:1037A00001680025406800902046FFF7B2FE08201F
:1037B000606484F840500120BDE8F8830320FBE7F3
:1037C0002068006835EA000004D00020B842D2D05A
:1037D0000020F1E70120F9E770B5144B1868800666
:1037E0001AD55868C2B2124801880C0414D44D048A
:1037F0004FF0000404D50A2A0DD141F4004113E032
:103800000D2A0FD0C1F30D050A4E491C89B272551D
:103810000180C72900D90480186810F00E0F00D06D
:10382000586870BD41F480410180F5E70010014007
:10383000F4000020400C0020FEE7490050EAC120BF
:1038400018BF04204A0D18BF40F0010040F2FF727B
:10385000B2EB515F08BF40F00200012808BF05200D
:1038600070470907090E002804DB00F1E02080F80A
:103870000014704700F00F0000F1E02080F8141DE4
:10388000704730380A2801D2012070470020704765
:103890007047000010B5084C012210212046FEF7A9
:1038A0009CF9322001F050F820460022BDE810407B
:1038B0001021FEF792B900000008024010B5164A28
:1038C0000024144BC2E9024014615461C2E9003182
:1038D0001046FEF765FF104860211C380022C0E941
:1038E00000148460014604611C30FEF7F3FE0A49AF
:1038F0000C221C390848FEF7EDFE00220121192098
:10390000FEF7DEF91920FEF7CDF9BDE810400248B8
:10391000FEF754BD000001402001002010B50A4C04
:10392000084AC4E900210021C4E9021020462161AF
:10393000FEF7CCFC2046FEF741FD21686FF0010048
:10394000086110BD001000406402002010B5802105
:103950000748FEF73DF908B1002010BD05A0FCF7AF
:103960000BFD01F06FFB07490120086010BD00004E
:1039700000140240323456E696ADE794B5210D0AA4
:10398000000000001000002070B504460A480D46F3
:10399000007808280ED901F055FB0849012008607D
:1039A00007482946046007A0FCF7E6FCFFF772FF12
:1039B000012070BD002070BDD0000020100000204C
:1039C0002C00002025730D0A00000000012808D0FB
:1039D00002280BD003280ED0042811D0052814D0BB
:1039E00017E0052917D0022915D012E0012912D0BD
:1039F000032910D00DE002290DD004290BD008E0D6
:103A0000032908D0052906D003E0042903D00129A1
:103A100001D0002070470120704700000248016873
:103A200002A0FCF7A9BC00002C000020E68AA5E853
:103A3000ADA6E4BBA3E7A0813A25640D0A0000000F
:103A40002DE9FC4110A0FCF797FC15A0FCF794FCB5
:103A5000174E0024A6F59667164D0CE056F8240084
:103A600002F036FECDE9000157F82420214612A0CD
:103A7000FCF782FC641C28688442EFDBBDE8FC4153
:103A800010A0FCF779BC00003D3D3D20444247209A
:103A900044415441202843535629203D3D3D0A00CE
:103AA0006964782C706F732C73706565640A00000C
:103AB0005C070020E400002025642C25642C252EC2
:103AC00030660A003D3D3D2044424720454E44209B
:103AD0003D3D3D0A000000002DE9F05F4FF4967A6D
:103AE00051462BA0FCF748FC354D364C0027364E8E
:103AF0002F602770377000F075FFDFF8D090E8B3C3
:103B00003078D8BB2868C8BB2078B8BB3049B846E5
:103B10000F6001F0B1FA2F4F3868834602F056FF6C
:103B20002D49086049F620110BEB010002F04EFF11
:103B30002A49DFF8ACB0086001202070C9F8008085
:103B4000D0464C46BA4602E02068B8420CDA2068FB
:103B50002449DAF800204BF820200A682249474619
:103B600041F82020401C2060192000F0EDFE307844
:103B700010B128680028E7D0C82000E001E000F07C
:103B8000E3FED9F80010BDE8F05F18A0FCF7F4BB25
:103B900044424720E5BC80E5A78BE98787E99B86FF
:103BA000283235306D73E997B4E99A942C20E69C5D
:103BB00080E5A49A2564E782B9292E2E2E0D0A00ED
:103BC000100000200500002006000020E400002076
:103BD00018000020440000204C000020500000206D
:103BE000AC020020980000205C07002044424720DF
:103BF000E98787E99B86E7BB93E69D9F2C20E585B7
:103C0000B12564E4B8AAE782B90D0A0010B50278BC
:103C1000542A26D0482A3AD0462A42D0522A46D0A0
:103C2000562A57D0532A5BD0502A5FD0452A67D0F6
:103C30004F2A77D0432A7FD0442A6CD0482A29D0F3
:103C4000522A37D0542A0FD0522A38D0412A6FD066
:103C5000502A4ED04C2A6CD0672A6BD0442A78D098
:103C60001FE142783A2A0FD04178492977D031298B
:103C700076D0322975D0332974D0342973D03529C0
:103C800072D0362971D00CE100F064FB0DE142786E
:103C90003A2A03D0417841296CD002E100F06EFB52
:103CA00003E142783A2A11D100F032FBFDE042787C
:103CB0003A2A0CD04178452962D0542969D04178FC
:103CC00049296FD0542969D045295CD0E9E000F03A
:103CD00001FBEAE042783A2A0ED100F0BFFBE4E0B3
:103CE00042783A2A08D100F097FBDEE042783A2A7F
:103CF00003D0417841296FD0D3E000F053FBD4E0EA
:103D000042783A2A02D04C2A06D0CAE000F062FB80
:103D1000CBE007E010E019E0807845281ED100F0E4
:103D2000C9F8C2E04078502818D100F06BFABCE026
:103D300067E07EE088E00CE041784C290ED1807885
:103D400043280BD15A4900200860AEE04178302961
:103D50000DD04178422975D0552974D0A1E028E0D2
:103D600030E031E034E035E037E038E002E001F007
:103D700097F89AE080784C2808D100F0FDF994E09B
:103D80008178442903D08078532837D089E000F027
:103D900049FA8178462906D0422907D080785328ED
:103DA00029D07EE01EE000F077FA7EE000F070FAA5
:103DB0007BE081784D2974D1C078332871D100F02F
:103DC0003BFD72E0012000E0022000F065FC6CE0A9
:103DD0000320FAE70420F8E722E00520F5E700F0E9
:103DE00049FD62E081784E295BD1C078472858D1DF
:103DF00000F036FA59E000F059FA56E000F024FAE3
:103E000053E041784C294CD18178412949D1C1787E
:103E1000522946D100794D2843D1FFF7FFFD44E0F8
:103E2000817852293DD1C07841283AD100F038FB41
:103E30003BE04078312834D3352832D8303800F090
:103E40006BF932E021E026E041786E2906D06F2937
:103E50000AD066290ED06D2911D022E080786E2814
:103E60001FD100F03FF820E080786F2819D100F0D2
:103E7000EFF81AE08078662813D1012003E08078FB
:103E80006D280ED1002000F0D3FD8078472808D19E
:103E9000FFF722FE09E081784D2902D1C078502831
:103EA00001D0002010BDFFF7CBFD012010BD0000A8
:103EB0001000002010B510210448FDF789FE0146CE
:103EC000BDE8104002A0FCF757BA00000010024005
:103ED000E58589E794B5E4BFA1E58FB72025640D9A
:103EE0000A0000002DE9FC5F3E494FF00008DFF8B2
:103EF000FCA0A1F800803C493D4881F800808AF888
:103F00000080FEF75BFA3BA13C4DD1E900014FF484
:103F1000FA79DFF8ECB0CDE9000150E0286801281B
:103F200001D0002406E03248FEF788FA4BE028680A
:103F300001280DD00021012001F022FD02F07EF9C0
:103F40004F46484600F000FDB94600262D4F1CE0C4
:103F50002748FEF773FA2CE0286801283DD000219D
:103F6000012001F00DFD02F069F9484600F0ECFC7B
:103F70002868012831D00121084601F001FD02F036
:103F80005DF9484600F0E0FC761C38688642E3DDC7
:103F9000601C052290FBF2F102FB11011AA01DF832
:103FA00001201DF804103B68FCF7E6F9641C052CA1
:103FB000BDDB41461CA0FCF7DFF908F10108DBF886
:103FC00000108845AADD0A48FEF738FA9AF8001072
:103FD0001BA0FCF7D1F9BDE8FC9F0548FEF72EFABF
:103FE000D6E70000F4000020400C0020D1000020A3
:103FF000B0010020010203040500000010000020B1
:10400000380000203C00002053746174696F6E20FA
:1040100025642026202564206C6F6F7020646F6EED
:10402000653A2025640D0A00E680BBE5BEAAE78E4E
:10403000AFE6ACA1E695B0EFBC9A25640D0A00008E
:1040400074696D655F72756E3A2025640D0A000013
:104050002DE9F05F00272B4CDFF8ACB0DFF8ACA007
:1040600047E02068012848D001F078FA8146012510
:10407000206801283CD0A94537D00026DFF8908081
:104080002FE02068012830D001F068FA814601460F
:10409000284600F081FC0146CBF80000284601F0DC
:1040A0005BFB02F0CBF84FF4FA7000F04DFC206897
:1040B00001281AD02946484600F06EFC0146CBF88C
:1040C0000000484601F048FB02F0B8F840F6B8306E
:1040D00000F03AFC01F0E2FF4FF4FA6000F034FC2B
:1040E000761CD8F800008642CBDD6D1C052DBFDDA7
:1040F0007F1CDAF800008742B3DD06490020088003
:10410000BDE8F09F100000201800002038000020BB
:104110003C000020F400002010B504460E48007852
:10412000002817D101F01AFA0C49A0420860014694
:1041300005D12146BDE8104009A0FCF71DB9204675
:1041400000F02AFC0B49086001462046BDE81040FB
:1041500001F002BB10BD0000050000200C00002093
:10416000E5B7B2E59CA8E5B7A5E4BD8D25640D0AC9
:10417000000000001800002010B501F0EFF911490F
:104180000860014610A0FCF7F7F8134C20212046E8
:10419000FDF71EFD014611A0FCF7EEF84021204678
:1041A000FDF716FD014610A0FCF7E6F84FF40051AC
:1041B0001048FDF70DFD0146BDE810400EA0FCF7CC
:1041C000DBB800000C00002073746174696F6E3AF4
:1041D0002025640D0A0000000010024048414C31C7
:1041E0003A202564200D0A0048414C323A202564CB
:1041F000200D0A000008024048414C333A20256453
:10420000200D0A0010B503A0FCF7B6F8BDE8104079
:1042100001F044BFE8BF9BE585A5E68B8DE785A748
:104220000D0A0000044C05A02168FCF7A5F8322017
:1042300000F08AFBF7E7000044000020506F733A5B
:10424000202564200D0A0000044910B501200860F3
:1042500001F06AF8BDE81040FDF764BD14000020CD
:1042600010B504A0FCF788F8BDE810400620FDF763
:1042700019BD0000E4B88AE58D87E6B2BFE6A380E9
:10428000E6B58BE6B58BE8AF95EFBC810D0A000073
:104290000121084601F074BB10B50021012001F096
:1042A0006FFBBDE8104000F02BBB000010B50648C6
:1042B0000024046000F02CFB04480460204600F059
:1042C000B1FE0348047010BD50000020A000002083
:1042D0000500002010B501F095F805490860014679
:1042E00004A0FCF749F8BDE8104001F01DB800003B
:1042F00024000020E69C80E5A4A7E58DA0E7A9BAEC
:10430000E6AF94E8AEBEE7BDAE3A25640D0A000004
:1043100010B501F077F805490860014604A0FCF7E4
:104320002BF8BDE8104000F0FFBF00002000002087
:10433000E8BF90E8A18CE4B8ADE69C80E5A4A7E9CD
:10434000809FE5BAA6E99990E588B63A25640D0AFA
:104350000000000010B501F055F80449086001465E
:10436000BDE8104002A0FCF707B8000038000020AC
:104370006C6F6F70313A25640D0A000010B501F0C2
:1043800041F8044908600146BDE8104002A0FBF76F
:10439000F3BF00003C0000206C6F6F70323A256460
:1043A0000D0A000010B501F02DF80449086001461F
:1043B000BDE8104002A0FBF7DFBF00004000002076
:1043C000E68B8DE785A7E5AD94E4BD8D3A25640DB8
:1043D0000A00000010B501F015F805490860014613
:1043E00004A0FBF7C9FFBDE8104000F09DBF00002E
:1043F00034000020E58589E794B5E6A380E6B58B17
:10440000E99990E588B6E88489E586B2E695B03A00
:1044100025640D0A0000000010B500F0F3FF054907
:104420000860014604A0FBF7A7FFBDE8104000F0BC
:104430007BBF000030000020E685A2E9809FE8BF36
:1044400090E8A18CE8BF9BE5AD94E88489E586B24D
:10445000E695B03A25640D0A0000000010B500F0A2
:10446000D1FF05490860014604A0FBF785FFBDE8C0
:10447000104000F059BF000028000020E69C80E5B5
:10448000908EE58C80E9809FE8BF9BE5AD94E79A2C
:1044900084E9809FE5BAA63A25640D0A0000000071
:1044A00010B51FA0FBF768FF2548016825A0FBF7A2
:1044B00063FF2A4801682AA0FBF75EFF2F480168C6
:1044C0002FA0FBF759FF3548016835A0FBF754FFD3
:1044D0003B4801683BA0FBF74FFF4148016841A002
:1044E000FBF74AFF4548016845A0FBF745FF4B48ED
:1044F00001684BA0FBF740FF50A0FBF73DFF55487C
:1045000002685548016855A0FBF736FF5948027804
:1045100059480168BDE8104058A0FBF72DBF0000C6
:104520003D3D3D3D3D3D20E5BD93E5898DE58F82D7
:10453000E695B0203D3D3D3D3D3D0D0A00000000AB
:10454000200000204628E69C80E5A4A7E9809FE59E
:10455000BAA6293A2025640D0A0000002400002094
:104560005228E69C80E5A4A7E58DA0E7A9BAE6AFAE
:1045700094293A2025640D0A00000000280000203C
:104580005628E58C80E9809FE8BF9BE5AD94E980E3
:104590009FE5BAA6293A2025640D0A0030000020C4
:1045A0005328E685A2E9809FE8BF9BE5AD94E884A7
:1045B00089E586B2E695B0293A2025640D0A000007
:1045C000340000204528E58589E794B5E6A380E618
:1045D000B58BE99990E588B6293A2025640D0A0043
:1045E000400000205028E68B8DE785A7E5AD94E4D8
:1045F000BD8D293A2025640D0A00000038000020F6
:104600005428E5A4A7E5BEAAE78EAFE6ACA1E695DF
:10461000B0293A2025640D0A000000003C0000206B
:104620004828E5B08FE5BEAAE78EAFE6ACA1E695D7
:10463000B0293A2025640D0A000000003D3D3D3DB3
:104640003D3D3D3D3D3D3D3D3D3D3D3D3D3D3D3D9A
:104650000D0A0000100000202C000020416C617247
:104660006D3A20256420204572726F723A202564CD
:104670000D0A00000500002044000020456E636F15
:1046800064653A202564202052756E466C61673A55
:104690002025640D0A0000002DE9F047064601467A
:1046A00036A0FBF769FE3D4F3D480021396001709F
:1046B0003C48017000F052FF3B4C0146B042206084
:1046C0000DD0324639A0FBF757FE3046216800F086
:1046D00063F90146304601F03FF801F0AFFDDFF825
:1046E000F880012542F21079B5423DD03868D0B942
:1046F00029463AA0FBF740FE00F030FF411E206043
:1047000005291ED20146284600F046F90146C8F8A0
:104710000000284601F020F801F090FD484600F026
:1047200013F9386818B131A0FBF726FE1FE03146B7
:1047300032A0FBF721FE00F011FF411E2060052989
:1047400001D332A0F0E70146304600F025F90146DA
:10475000C8F80000304600F0FFFF01F06FFD052DA6
:1047600002DA484600F0F0F86D1C052DBCDD31463C
:10477000BDE8F04728A0FBF7FFBD0000E5B7A5E4C2
:10478000BD8D2564E5BE80E8BF94E6B58BE8AF95A6
:10479000E5BC80E5A78B0D0A00000000100000209A
:1047A00005000020060000200C000020E5BD93E578
:1047B000898DE4BD8DE7BDAE3A25642C20E99C804F
:1047C000E8A681E58588E59B9EE588B0E5B7A5E488
:1047D000BD8D25640D0A000018000020E28692209D
:1047E000E5B7A5E4BD8D25640A000000E587BAE9B8
:1047F0009499E5819CE6ADA20D0A0000E286902026
:10480000E5B7A5E4BD8D25640A00000048414CE9E8
:104810009499E8AFAF0D0A00E5B7A5E4BD8D256416
:10482000E5BE80E8BF94E6B58BE8AF95E7BB93E6BD
:104830009D9F0D0A0000000010B50848FDF7BEFD61
:1048400041F2883000F080F80448FDF7F7FD044895
:104850000178BDE8104003A0FBF78EBDB001002039
:10486000D100002074696D655F72756E3A20256411
:104870000D0A000070B508A0FBF77EFD134C4FF445
:10488000FA60256800F060F82068411BBDE87040C0
:104890000FA0FBF771BD000054494D36E6B58BE81B
:1048A000AF952032E7A79228316D73E4B8ADE69654
:1048B000AD2C20504944E6AF8F32356D73E5BEAA6A
:1048C000E78EAF292E2E2E0D0A000000D800002002
:1048D0006B5F6C6F6F70E5A29EE9878F3D2564204A
:1048E00028E69C9FE69C9B7E38302C2032356D73E9
:1048F000C39738303D323030306D73290D0A0000D7
:10490000012202210148FDF768B9000000080240B9
:1049100010B500210648FDF7B5FF0C210448FDF74E
:10492000B1FF03480021026851630068016410BDB3
:104930002001002010B504460420FDF7A5FC014825
:10494000046010BDE800002070B5054600244FF457
:104950007A7603E0304600F005F8641CAC42F9D3E7
:1049600070BD000070B54FF0E02400226569094970
:10497000A36909684843A1699942FCD002D2A3EB1C
:10498000010302E0A5EB010633441A440B468242C0
:10499000F1D370BDE8000020401A0521401D90FBB6
:1049A000F1F201FB12000449022802DC0020086039
:1049B00070470120086070471800002010B5084CAF
:1049C000012208212046FDF708F96420FFF7BCFF0B
:1049D00020460022BDE810400821FDF7FEB8000087
:1049E0000008024010B5094C10212046FDF7F0F8F0
:1049F00038B90A20FFF7A8FF10212046FDF7E8F894
:104A000008B1002010BD012010BD000000100240C0
:104A10000549064A01E0491E02D013685B06FAD533
:104A2000C1B251607047000020A107000010014092
:104A300004461148114D124E4FF47A7740F6B838BB
:104A40004FF4FA6904602146012000F099FF01F05B
:104A5000F5FB3846FFF778FF00F080FD28603168ED
:104A60008842F0D14046FFF76FFF01F017FB484640
:104A7000FFF76AFFE7E70000180000200C000020A5
:104A80004000002030B50D4803685A6A0C4849F6CA
:104A90004045C2600169541A0146EC42496801DA96
:104AA000491C04E049F64045AC4201DD491E416025
:104AB0000261596A808801EB004030BDF801002096
:104AC000D00000202DE9F04387B0884681461421AC
:104AD0006846FBF74AFD29480025016841F00101BD
:104AE0000160006800F00100059024481030016862
:104AF00041F002010160006801A900F00200059088
:104B0000C020009002200126032781E8C100049004
:104B100069461B48FCF764FF1B4C1A480A21C4E98C
:104B20000008C4E9039504F148000760C0E9015694
:104B3000C0E90351C0E90556C0E9075101464838AC
:104B4000FDF794FC00212046FDF7E3FC04212046FC
:104B5000FDF7DFFC002211461D20FDF7B1F81D20F6
:104B6000FDF7A0F82168A81E08612068C16841F01F
:104B70000101C16007B0BDE8F08300003038024099
:104B80000000024000040040F801002010B50A4671
:104B9000FEF71CFF38B1114608A0FBF7EDFBBDE89E
:104BA0001040FFF70BBF07490920086006A0FBF77C
:104BB000E3FBBDE81040FEF76DBE00005025640D1C
:104BC0000A0000002C000020E5B7A5E4BD8DE9AA8D
:104BD0008CE8AF81E5A4B1E8B4A5210D0A0000007E
:104BE0002DE9F0471C49096802F039F81B491C4EB1
:104BF0000446086030680121804602F0E4F821464E
:104C000002F02DF8174F396801F08EFD164909683A
:104C100001F028FF054615482146006801F022FFF3
:104C200081464146204602F025F81149096801F005
:104C300019FF494601F078FD294601F075FD0D4D3B
:104C4000296801F071FD2860C7F800803460BDE874
:104C5000F04701F09FBE0000740000208C0000208F
:104C60009000002094000020880000208400002094
:104C70008000002078000020002467484FF0006189
:104C80000160FCF7BDFFFEF73BFAA820FFF752FEDC
:104C90004FF4165001F02CFA604E0025604F35801D
:104CA0003D55641CC82CFBDB41F2873442F2CF0136
:104CB0002046FEF7A1FA44F29F112046FEF786FA3D
:104CC00000F07CFD00214FF6FF70FFF7FBFE532143
:104CD00040F2E730FEF722FE00F0AAFBFEF70EF9E5
:104CE0000A2140F60F60FEF7E9FD4FF4E13001F0D4
:104CF0001BFA62B6358000F003FA4A4C206908B10D
:104D000000F012FBFFF704FEDFF81CA1DFF81C81A6
:104D1000DFF81CB1B146E078FF280AD140214646B1
:104D20004046FCF755FFE07080213046FCF750FF0D
:104D30002071BAF800100A0408D5CAB2AAF80050C7
:104D40004FF47A733B493C48FEF785F8B9F80010F8
:104D50000A0413D5CEB2A9F8005038A0FBF70CFB1B
:104D60002F493CA0FBF708FB31462D48FEF74EFFCC
:104D7000002001E03D54401CB042FBDB4021404696
:104D8000FCF726FF0646012805D1E07818B936A0C1
:104D9000FBF7F2FAE560E67080214046FCF718FF69
:104DA00006000ED1207901280BD137A0FBF7E4FAD9
:104DB000FFF7AEFD002000F035F96570A570012009
:104DC000E060267120780128A5D1A07808BB00F00A
:104DD000C5FBA060072801D10520A06050208BF8FA
:104DE0000000207ADFF8B0C030308BF801002B4B88
:104DF0005A460020614601E0491E02D01E68760630
:104E0000FAD5115C5960401C0228F3DB15A0FBF7B2
:104E1000B3FA25707FE7000008ED00E0F400002001
:104E2000400C00200400002000010020001402407B
:104E3000FC0000204C0D0020600D00206265666FB4
:104E4000726520636D645F64697370617463680D7B
:104E50000A00000055534152545F52585F42554674
:104E60003A2025730D0A0000E5A48DE4BD8DE4BF52
:104E7000A1E58FB72CE68AA5E8ADA6E6B885E99945
:104E8000A4210D0A00000000E680A5E5819CE4BF96
:104E9000A1E58FB7210D0A0020A1070000100140F5
:104EA0002DE9F05FDFF814A110215046FCF790FEC9
:104EB0000127DFF80C81434E434D002438B1102107
:104EC0005046FCF785FE01283CD0BDE8F09F3F48E6
:104ED0000168012915D081460029F6D130780028D3
:104EE000F3D100F0C9F84FF0020B85F800B01420A0
:104EF000FFF72AFD10215046FCF76AFE012805D075
:104F00000CE0BDE8F05F32A0FBF736BA0A20FFF7ED
:104F10001BFD10215046FCF75BFEC0B1D9F8000024
:104F20000128D2D0FEF712FD0028E3D0D9F8000006
:104F30000128CAD04FF4967A5046FFF705FDFFF7D7
:104F400051FD48B188F800702C703470BDE72848D6
:104F5000046000F0B5F8E9E700F08EF885F800B0DD
:104F60001420FFF7F1FC00BFFFF73CFD20B1204803
:104F7000046000F0A5F807E0D9F800000128A4D0EB
:104F8000FEF7E4FC0028EFD0D9F8000001289CD0FF
:104F90005046FFF7D9FCFFF725FD0028D2D1C9F80C
:104FA000007014492C7034700820086012A0FBF7C0
:104FB000E3F9BDE8F05FFEF76DBC000000100240B1
:104FC0000400002006000020050000201000002042
:104FD000E794B5E69CBAE5889DE5A78BE58C96E459
:104FE000B8AD2CE8AFB7E7A88DE58099210D0A0090
:104FF0001C0000202C000020E794B5E69CBAE58850
:105000009DE5A78BE58C96E5A4B1E8B4A52CE8AFA7
:10501000B7E6A380E69FA5E7A1ACE4BBB6210D0AE5
:10502000000000000649002300280A6803DB5063E3
:105030000868036470474042536309680864704716
:105040002001002010B5FFF763FC0748002404602E
:105050002046FFF7E7FF0548047005480470BDE8E7
:1050600010400448FDF7EAB9480000200500002080
:1050700006000020680100200C4910B500200870CF
:105080000B48FDF79BF900F0D3F90A4801240021F1
:1050900004700948FDF7F6FB0C210748FDF7F2FB09
:1050A000FFF72EFC0548046010BD0000D000002072
:1050B0006801002006000020200100204800002098
:1050C00010B5FFF725FC0948002404602046FFF7CF
:1050D000A9FF0749012008700648047006480470BB
:1050E000BDE810400548FDF7A9B9000048000020C0
:1050F00004000020050000200600002068010020B8
:1051000070B52F4C25682FA02946FBF735F940F2E2
:10511000DC5136488D4202D82946056000E0016026
:1051200033A0FBF729F9656839A02946FBF724F974
:105130004048B5F5616F02D22946056002E040F6AD
:10514000AC5101603CA0FBF717F9A56842A02946C5
:10515000FBF712F94948B5F57A7F02D82946056070
:1051600001E0C821016046A0FBF706F9E56849A007
:105170002946FBF701F944F620614F488D4202D8D9
:105180002946056002E043F2B06101604BA0FBF7E5
:10519000F3F825694FA02946FBF7EEF849F65801C8
:1051A00058488D4202D82946056002E049F2704114
:1051B000016055A0FBF7E0F860695A49086070BDCE
:1051C00000000608E4BB8E466C617368E8AFBBE57F
:1051D0008F96E8BF90E8A18CE69C80E5A4A7E980C3
:1051E0009FE5BAA63A2025640D0A000020000020A1
:1051F000E8BF90E8A18CE69C80E5A4A7E9809FE544
:10520000BAA6E8AEBEE7BDAE463A2025640D0A0058
:10521000E4BB8E466C617368E8AFBBE58F96E69C95
:1052200080E5A4A7E58DA0E7A9BAE6AF943A2025CA
:10523000640D0A0024000020E69C80E5A4A7E58D0B
:10524000A0E7A9BAE6AF94E8AEBEE7BDAE523A20F9
:1052500025640D0A00000000E4BB8E466C61736893
:10526000E8AFBBE58F96E8BF9BE5AD94E9809FE58D
:10527000BAA63A2025640D0A00000000280000208C
:10528000E8BF9BE5AD94E9809FE5BAA6563A202594
:10529000640D0A00E4BB8E466C617368E8AFBBE541
:1052A0008F96E8BF9BE5AD94E88489E586B2E695E4
:1052B000B03A2025640D0A0030000020E8BF9BE5CD
:1052C000AD94E88489E586B2E695B0533A2025642A
:1052D0000D0A0000E4BB8E466C617368E8AFBBE565
:1052E0008F96E58589E794B5E88489E586B2E6A3DB
:1052F00080E6B58BE99990E588B63A2025640D0AD9
:105300000000000034000020E58589E794B5E884BA
:1053100089E586B2E99990E588B6453A2025640D7D
:105320000A0000001400002010B586B0002423A05D
:105330000594FBF721F8FCF711FB072002900120F0
:10534000039002200490009405A96846FCF772FAC5
:105350001E4800231E4902680220FCF7C1FA1D48BE
:105360001B4900230268091D0220FCF7B9FA1A48FC
:1053700017490023026808310220FCF7B1FA1748E8
:105380001349002302680C310220FCF7A9FA1448E3
:105390000F490023026810310220FCF7A1FA0C49E2
:1053A0000022134614310220FCF79AFAFCF78EFA19
:1053B0000CA0FAF7E1FF06B010BD0000E8A7A3E9D2
:1053C0009481464C4153480D0A0000002000002003
:1053D00000000608240000202800002030000020E3
:1053E00034000020E68980E69C89E58F82E695B04E
:1053F000E5B7B2E4BF9DE5AD98E588B0466C617352
:10540000680D0A002DE9F0410026CD1E07468C1ECE
:1054100009E0204600F036FE0146281B384480781B
:10542000303801FB0066641EF3D23046BDE8F081DF
:1054300012490020144A086011490860114911609E
:10544000124A4FF07F5111601149184A0860114902
:105450000860114908601149086011490860114944
:105460000860114911601249086012490860124928
:1054700008601249086012490860704778000020EF
:105480007C000020CDCC4C3F800000208400002018
:10549000880000208C000020900000209400002054
:1054A00054000020580000200AD7A33C5C000020D4
:1054B0006000002064000020680000206C000020D4
:1054C000700000202DE9F0411A49096801F0C7FB7E
:1054D00019491A4C054608600146206801F024F974
:1054E00017492060884202DC1649884200D92160B1
:1054F000154F2846396801F0BDFB1449096801F0D1
:10550000B1FA064612482168006801F0ABFA044679
:1055100010482946006801F0A5FA214601F004F977
:10552000314601F001F90C4908603D60BDE8F041E9
:1055300001F030BA50000020680000205800002020
:1055400000401C4700401CC76C0000206400002085
:10555000600000205C000020540000202DE9F0478E
:10556000264E002510213046FCF732FB244F01283F
:105570001CD0DFF890904FF40058012220213046D3
:1055800000F05EF8044602224021304600F058F850
:10559000044404224146484600F052F80444062CD4
:1055A0001BD2DFE804F01018121614181649012057
:1055B0000860386015A0FAF7DFFEFEF76BF94FF0D0
:1055C000FF30BDE8F0870420FBE70120F9E7022067
:1055D000F7E70320F5E70520F3E73220FFF7B4F9FA
:1055E0006D1C022DC9DB0220386021460EA0FAF79F
:1055F000C3FEFEF74FF92046E3E70000001002402B
:105600002C0000200008024010000020E58589E7FA
:1056100094B5E4BCA0E6849FE599A8E69CAAE8A717
:10562000A6E58F91200D0A00E99C8DE5B094E8AFC6
:10563000BBE58F96E99499E8AFAF3A25640D0A006F
:105640002DE9F041002516460F4680462C46394686
:105650004046FCF7BDFA05440A20FFF775F9641CC3
:10566000052CF4DB032D02DB3046BDE8F081002081
:10567000FBE700002DE9F047DFF8C480002498F82C
:1056800000208A4255D12F4F064678603968401A6B
:1056900001F09CF9B86098F80120A7F12805DFF81F
:1056A000A89045F82200521CD2B288F80120C9F80F
:1056B0000000A2463E600A2A39D10A2601E00024F1
:1056C0000FE005EB840755F82400796801F096FA9D
:1056D00005D255F82400796845F824107860641CD8
:1056E000E4B2701E8442ECDB10F0FF06E7D100202C
:1056F0005FF0020455F8241001F016F8641CE4B2BF
:10570000082CF7D3114901F083F8064610494C469E
:10571000D9F8000001F0A6F905460E49304601F01F
:10572000A1F9294601F000F8206088F801A088F866
:1057300000A098F80010491C88F80010BDE8F08718
:10574000EC000020340C0020980000200000C04035
:10575000B81E053F8FC2F53E2DE9F047104F114DA1
:10576000114E894680460024641C052C15DC3868DF
:1057700020B1BDE8F0470DA0FAF7FEBD4946012073
:1057800000F0FEF828780028FDD13220FFF7DCF881
:10579000FFF7E4FE30608045E6D1BDE8F087000009
:1057A00010000020060000200C000020E5A0B5E855
:1057B000BDACE8B685E697B6210D0A002DE9F047A5
:1057C0006B4C86B00026206840F004002060206802
:1057D00000F004000590206840F010002060206870
:1057E00000F010000590206840F020002060206844
:1057F00000F020000590206840F010002060206834
:1058000000F010000590206840F010002060206833
:1058100000F010000590206840F00400206020682F
:1058200000F004000590206840F02000206020680F
:1058300000F020000590206840F0200020602068E3
:1058400000F020000590206840F0200020602068D3
:1058500000F020000590206840F0040020602068DF
:1058600000F004000590206840F0040020602068EB
:10587000022500F0040005901120CDE90050DFF86A
:10588000F4A0CDE9026569465046FCF7A9F800226C
:1058900002215046FCF7A1F94FF01008CDF8008026
:1058A000CDE90165344F694638460395FCF798F811
:1058B0004FF02009CDF80090CDE9016569463846E2
:1058C0000395FCF78DF840200090CDE9016569460D
:1058D00038460395FCF784F82803CDE90006CDE9A6
:1058E000026569465046FCF77BF860150090CDE9EB
:1058F0000165224F694638460395FCF771F8FFF7BA
:1059000007F8C0200090CDE9016569463846039547
:10591000FCF766F8A0150090CDE9016569463846A8
:105920000395FCF75DF808200127CDE90007CDE9D4
:10593000026569465046FCF753F8CDE90265CDE9AA
:10594000008769465046FCF74BF8206840F0040099
:1059500020602068CDE9026500F004000590CDE9E3
:10596000009769465046FCF73BF806B0BDE8F08763
:10597000303802400008024000100240001402408B
:105980002DE9F84F0D46FFF7E9FDFB4C074620686F
:1059900001280AD0012F0DD0022F0BD0032F09D0E0
:1059A000042F07D0052F05D008E0BDE8F84FF3A07D
:1059B000FAF7E2BC3946F8A0FAF7DEFCFB482168AA
:1059C000DFF8EC830078084398F8001008437DD195
:1059D000FFF708F800287AD0F648F74EDFF8DCA386
:1059E000DFF8DCB3EDB3012D70D10560FFF744FBA8
:1059F000DFF8D093D9F80000009000F0E7FFCBF873
:105A000000000098A0F51940203800F0DFFFEE49B3
:105A10000860404605704FF4FA70FEF795FFDFF816
:105A2000ACB300BFDBF8000000F0D0FFE449096828
:105A300001F015F98046D9F8000000F0C7FF414693
:105A400000F0DCFF7ED2FEF7CDFF00287AD0E049DF
:105A500000200860D9F8000000F0B8FFDFF860838C
:105A600000E01BE0D8F8001001F004F97060FFF7C7
:105A700027FB4FF4FA70FEF767FFD649D8F800000D
:105A800001F0F8F88046D9F8000000F09FFF414689
:105A900000F0B4FF7ED200202060FEE14FF000094C
:105AA000C0F80090FFF7E8FAC6480068054600F025
:105AB0008DFFCBF8000049F62010284400F086FF47
:105AC000C14901250860BA48057001E0FDE0A6E281
:105AD0004FF4FA70FEF738FFDFF8E8B2BB48006811
