:020000040800F2
:10000000381400207D020008D7390008D5370008D1
:10001000D5390008D31D0008154100080000000074
:10002000000000000000000000000000DB390008B4
:10003000D51D000800000000D9390008713A0008F9
:10004000970200089702000897020008970200082C
:100050009702000897020008D71D000897020008C1
:10006000970200089702000897020008970200080C
:1000700097020008970200089702000897020008FC
:1000800097020008970200089702000897020008EC
:1000900097020008970200089702000897020008DC
:1000A00097020008793A00089702000897020008B2
:1000B00097020008913A00089D3A0008970200084C
:1000C00097020008970200089702000897020008AC
:1000D000970200089702000897020008970200089C
:1000E000970200089702000897020008970200088C
:1000F000970200089702000897020008970200087C
:100100009702000897020008C93A00089702000801
:10011000713D0008E13D0008F53A0008970200082B
:10012000970200089702000897020008970200084B
:10013000970200089702000897020008970200083B
:10014000970200089702000897020008970200082B
:10015000970200089702000897020008970200081B
:10016000970200089702000897020008970200080B
:10017000970200089702000897020008000000009C
:10018000970200089702000800F002F800F066F8F5
:100190000AA090E8000C82448344AAF10107DA45E2
:1001A00001D100F05BF8AFF2090EBAE80F0013F0CE
:1001B000010F18BFFB1A43F0010318475C830000CE
:1001C0007C8300000A4410F8014B14F00F0508BFAF
:1001D00010F8015B240908BF10F8014B6D1E05D013
:1001E00010F8013B6D1E01F8013BF9D1641E03D0EC
:1001F000641E01F8015BFBD19142E4D3704700001B
:100200000023002400250026103A28BF78C1FBD81F
:10021000520728BF30C148BF0B607047662908F0FD
:100220005680642900F03881752900F035817329E2
:1002300000F08386002070471FB500F0D9FE04004F
:100240000020002107F0A0FA401C6060002000217F
:1002500007F084FAE0601FBD10B510BD01F08AF907
:100260001146FFF7E9FF05F02FFC01F0B1F903B4E7
:10027000FFF7F2FF03BC03F079FF00000948804755
:1002800009480047FEE7FEE7FEE7FEE7FEE7FEE778
:10029000FEE7FEE7FEE7FEE704480549054A064B90
:1002A00070470000753A000889010008380E0020E8
:1002B000381400203810002038100020704753EA0E
:1002C000020C00F069802DE9F04B4FF00006002B86
:1002D0001FBFB3FA83F503FA05F424FA05F65E406E
:1002E00012BF1643B2FA82F502FA05F4C5F12005F1
:1002F0001EBF22FA05FC44EA0C04203556EA044CE1
:100300004FEA144418BF641C4FF000084FF0000976
:10031000904271EB030C39D3002919BFB1FA81F770
:1003200001FA07F6B0FA80F700FA07F6C7F12007DE
:100330001EBF20FA07FC46EA0C062037B6FBF4FC89
:10034000A7EB0507103F07F01F0BCBF120060CFAB7
:100350000BFB2CFA06F644BFB3460026202FA4BFA1
:100360005E464FF0000B5BEA060C08BF4FF0010B36
:1003700019EB0B09ABFB027C48EB0608C01B06FB24
:1003800002CC0BFB03CC71EB0C01C1E70B46024620
:1003900041464846BDE8F08B13B54FF000004FF0E2
:1003A0000001AFF30080BDE81C4070470FB4044962
:1003B00010B503AA029800F0C5FD10BC5DF814FB4F
:1003C000200100200FB41CB50C0007AA009001D03A
:1003D0002044401E074B7B4469460190069800F07C
:1003E0007AFD002C03D06946002000F087FD1CBC7C
:1003F0005DF814FB2D0B000070B50446856900689C
:10040000C10601D5302600E02026C00707D070BD08
:10041000D4E9012130469047206A401C20626D1EBD
:10042000F6D570BD70B5044685690078C00707D160
:1004300070BDD4E9012120209047206A401C206231
:100440006D1EF6D570BD70B50C460546012A05D067
:100450002878800600D5EA69002302E0012305E040
:100460005B1C934202D2E05C0028F9D1A869E6182F
:10047000C01AA861286A184428622846FFF7BCFF02
:1004800004E0D5E9012114F8010B9047B442F8D3F8
:100490002846FFF7C7FF70BD2DE9F041064600244E
:1004A00010687529314616A510D0AFF300800028DA
:1004B00002DA404213A507E031688A0701D512A588
:1004C00002E0490704D511A5012401E0AFF3008043
:1004D00000210A2206F1240709E0B0FBF2FCB0FB80
:1004E000F2F302FB1C00303078541846491C0028F7
:1004F000F3D123462A463046BDE8F04100F080BAE9
:10050000000000002D0000002B0000002000000073
:100510002DE9F05F894604464FF0000ADFF824B168
:10052000FB44C0F820A02046E168884700287DD021
:10053000252806D0D4E901219047206A401C20627A
:10054000F1E700255F462046E168884720280646F7
:1005500007DB312E05D2B81910F8200C08B105437D
:10056000F1E7A80701D525F00405C4F81CA0002771
:10057000C4F818A02A2E09D0304603F0F0FD38B395
:1005800004EB8708303EC8F8186019E059F8041BDE
:10059000204604EB87029161E1688847012F0646F7
:1005A00018D1E069002820DA25F020051DE0D8F8F0
:1005B000180000EB800006EB40003038C8F8180047
:1005C0002046E1688847064603F0C9FD0028EED1C1
:1005D000012F0AD02E2E08D12046E16888477F1CC3
:1005E0000646022F45F02005C4DBA069002803DA87
:1005F000404245F00105A061E80701D025F0100553
:10060000A6B1A6F14100192802D8203645F40065AC
:100610004A463146204625604D46FFF7FFFD60B152
:10062000012807D0ED1D25F0070000E007E000F1EC
:10063000080978E705F1040975E730467AE7206A8A
:10064000BDE8F09FD87E00000FB400B58DB010A9B2
:10065000099000910B904FF0FF300A9000200C9011
:10066000064878440690064878446A4607900F99F1
:1006700009A800F08DFC0DB05DF814FB4B090000DB
:10068000630900002DE9FF5F1D464FF0FF3B9146D7
:100690004FF000085F46D5E90146A96901987F1C23
:1006A0008847296A824688470028F6D1BAF1FF3F79
:1006B0000CD0002E24F4C06419DD600614D5BAF104
:1006C0002B0F09D0BAF12D0F0ED103E0584604B01C
:1006D000BDE8F09F44F48064A96901987F1C8847B5
:1006E000761E8246002E02DDBAF1300F03D0B9F13A
:1006F000000F26D032E0A969761E01987F1C44F4D1
:1007000000748847002E824605DDBAF1780F06D0C6
:10071000BAF1580F03D0B9F1000F10D01EE0B9F1B3
:10072000000F02D0B9F1100F18D1A969761E0198F7
:100730007F1C24F4007488478246102002E00820C1
:1007400000E00A20814609E0A96908FB0908761E35
:1007500001987F1C44F4007488478246002E05DD12
:100760004946504600F000FC0028EDDAE96901989E
:100770008847A00502D46FF00100A8E7E00725D163
:10078000600613D5600502D5C8F1000000E04046C0
:1007900029680A1D2A600968220501D5087015E03C
:1007A000220701D5088011E008600FE02868011DCC
:1007B00029600068210502D580F8008006E0210745
:1007C00002D5A0F8008001E0C0F8008038467EE73E
:1007D0002DE9FF5F4FF0000899461446464691699F
:1007E000D2E901A7DDF838B001988847054659EAF3
:1007F0000B0005D009E0A1690198761C88470546E1
:10080000216A284688470028F5D1681C03D05FEA92
:10081000CA7005D015E04FF0FF3004B0BDE8F09F7E
:100820002068011D2160D0F800800AE05FEACA70EC
:1008300001D108F8015BA169761C01987F1E8847E9
:100840000546002F1ADD681C18D0B9F1000F0DD035
:10085000E81705EBD060421120F01F0059F8221074
:100860002A1A012090400142E0D107E0BBF1000FBD
:10087000DCD12846216A88470028D7D0E169019851
:100880008847BBF1000F07D1002E05DD5FEACA7073
:1008900002D1002188F80010A068B84203DDBBF146
:1008A000000F03D017B16FF00100B6E73046B4E790
:1008B00040EA010370B59B072ED14FF00136042AA0
:1008C0002AD308C810C99D1B9D43121F15EAC615DF
:1008D00017D0D8B2E1B2401A50EA056110D198B2EF
:1008E000A1B2401A50EA05410AD123F07F4024F01A
:1008F0007F41401A50EA052102D1180EA0EB146086
:1009000070BDA342DBD018BA21BA884201D90120B8
:1009100070BD4FF0FF3070BD0AB9002070BD10F8F7
:10092000013B11F8014B63B1A3420AD1521E08D01A
:1009300010F8013B11F8014B1BB1A34201D1521E2B
:10094000EDD1181B70BD10B5203AC0F00B80B1E896
:100950001850203AA0E81850B1E81850A0E81850F4
:10096000BFF4F5AF5FEA027C24BFB1E81850A0E8FD
:10097000185044BF18C918C0BDE810405FEA827C17
:1009800024BF51F8043B40F8043B08BF7047D2072E
:1009900028BF31F8023B48BF11F8012B28BF20F8CF
:1009A000023B48BF00F8012B70474FF0000200B532
:1009B000134694469646203922BFA0E80C50A0E882
:1009C0000C50B1F12001BFF4F7AF090728BFA0E830
:1009D0000C5048BF0CC05DF804EB890028BF40F8FC
:1009E000042B08BF704748BF20F8022B11F0804F3E
:1009F00018BF00F8012B7047704770477047704769
:100A00002DE9F0470D4699469246044600F1240828
:100A10000168880604D5E06921F01001216000E03A
:100A20000120A84201DD471B00E00027A1697A19D7
:100A300002EB0900081AA0612078C00602D4204603
:100A4000FFF7DAFC002608E0D4E901211AF80600D5
:100A50009047206A401C761C20624E45F4DB2078CB
:100A6000C0060AD52046FFF7C7FC06E0D4E90121FD
:100A700030209047206A401C2062381EA7F10107F1
:100A8000F4DC07E0D4E9012118F805009047206A5A
:100A9000401C2062281EA5F10105F3DC2046FFF76B
:100AA000C1FC2078000602D50220BDE8F0870120B5
:100AB000FBE770472DE9FF4F0C461E464FF0FF370E
:100AC0008BB0D2E90001DDF860800A908A46C1F35C
:100AD0000A5505B93D46002108464FF00000BAF11D
:100AE000000F00F4400005DA00EB80004FF44001F5
:100AF00001EA50004FEA9059B9F1010F00DDB94603
:100B00000A9850EA4A000ED044F61050A5F2FF357C
:100B100045432F14B8F1000F1ED07542291E1EDD6B
:100B2000C9F100021CE0B8F1010F4FF0000001D044
:100B3000302103E0F24305E02154401CB042FBDBCE
:100B400030460022002121540B99C1F80880C1E9E8
:100B500000200FB0BDE8F08FBD1B6D1CDEE74A46DC
:100B600000DA694206A800F08FFC06AB93E80700A4
:100B700003AB83E8070050460A9900F06FFD8DE84B
:100B80000700A0F500501F3800900398002D09DDE4
:100B900042F21F014A46084403A90390684600F048
:100BA000CEFF08E0A0F500504A461F3803A9039085
:100BB000684600F0D8FF8DE807000004000C03D061
:100BC0004FF0FF30410800E01046B8F1000F03D0AD
:100BD0000022009215461EE0751E05D400F00CFAA6
:100BE000303262556D1EF9D5B3460122084302D05A
:100BF00000227F1C04E02078302801D100227F1ED3
:100C0000002A099786D01DE0112D07DA00F0F4F9CB
:100C1000303262556D1C50EA0102F5D1084302D012
:100C20000098C8B10EE00021681E05E0235C625CFC
:100C300063542254401E491C8142F7DBAB46A81B7B
:100C4000401E0990002004F80B000B98099AC0F888
:100C50000880C0E9002B7CE711264FF0000859E717
:100C60002DE9F04F88460446D21D22F0070191B0CD
:100C7000D1E90001CDE90A0103F04DFA02460B98D3
:100C8000C00F01D02D2007E02068810701D52B205F
:100C900002E0202101EAC000032A099001D0072ABE
:100CA00005DB03464146204600F0F4F90BE12078CD
:100CB000800601D5E06900E00620B8F1650F8146A5
:100CC00006D0B8F1660F18D0B8F1670F70D131E0D7
:100CD0000020B9F1110F009001DB112301E009F1AF
:100CE00001030AAA01A90CA8FFF7E4FEDDE90C70D4
:100CF000002609F10105834647E001204B4600909C
:100D00004FF000470AAA01A90CA8FFF7D3FEDDE9BE
:100D10000DB00C995D46002610B909F101000D18BF
:100D2000B9EB050003D4C0F1FF3609F10105A5EBCD
:100D300009002BE0B9F1010F01DA4FF001090020A1
:100D4000B9F1110F0090484601DD112300E0034680
:100D50000AAA01A90CA8FFF7ADFEDDE90C704D460B
:100D600000268346207800070AD4AB4500DA5D46AA
:100D700001A8012D04DD411911F8011C302907D00B
:100D80004F4502DA17F1040F04DA012082460FE022
:100D90006D1EEEE7002F02DCED1B3E4403E0781CE5
:100DA000A84200DD7D1CB81B00F1010A4FF000478E
:100DB0002078000703D4AA4501DB4FF0FF3A002159
:100DC000B7F1004F0DF143088DF8431024D00220F5
:100DD0002B23002F01DA7F422D230A21021EA0F1CE
:100DE000010000DC5FB197FBF1FC97FBF1F201FB26
:100DF0001C7C17460CF1300C08F801CDEEE7A8F189
:100E0000010003702188090501D5452100E0652115
:100E1000A0F1010800F8011C09980FA9A1EB08072F
:100E2000FF1D00B10120411901EBEA70A1693844AE
:100E3000081A401EA0612078C00602D42046FFF7A1
:100E4000DBFA099828B1D4E901219047206A401CB7
:100E500020622078C00622D52046FFF7CDFA1EE09A
:100E6000002E04DBB34502DD01A8805D00E03020E8
:100E7000D4E901219047206A401C2062761CAAF127
:100E800001005FEA000A0AD100F0B2F8C068016808
:100E9000405CD4E901219047206A401C2062281E52
:100EA000A5F10105DCDC07E0D4E9012118F8010B0C
:100EB0009047206A401C2062381EA7F10107F3DC2E
:100EC0002046FFF7AFFA032011B043E601694A1C40
:100ED00002610878704700B58FB0CDE9013100217B
:100EE000059105497944CDE9031011466846FFF79D
:100EF0000FFB0FB000BD0000E5FFFFFF0A6802F81E
:100F0000010B0A607047D1E900239A4202D2531CB8
:100F10000B601070704710B5436913B1AFF30080D8
:100F200001E0FFF790FA012010BD127800F12401D2
:100F30000A7000224A700122EDE711684FF0FF327B
:100F4000E9E70000074B70B50D467B44FFF7C3FF90
:100F50000446284600F006FB10B14FF0FF3070BD8C
:100F6000204670BDEF4800003A2800D2303820F00B
:100F70002002412A01D3A2F13700884201D34FF069
:100F8000FF307047026811441378016018467047BB
:100F9000D1600549794451610449794411620021C5
:100FA0001161114600F0B6B8EDFFFFFFE50000004B
:100FB000426842B1016811F8013B23B1521EC0E9F9
:100FC0000012184670470121C160881E70474268B0
:100FD0005AB1C368016843B983688B4205D0491E82
:100FE000521CC0E90012002070474FF0FF307047DC
:100FF00000487047F40D002030B5B0F10A024FEA06
:10100000900E71F100034EEA817EB0EB0E0061EBB1
:1010100091014FEA101E4EEA017E10EB0E0041EBEB
:1010200011114FEA102E4EEA016E10EB0E0041EB4B
:1010300011214FEA104E4EEA014E10EB0E0041EB2B
:101040001141401841F100014FEAD00040EA4170DF
:101050004FEAD10110EB80054FEA810444EA907415
:1010600044EB01046D1944EB0404521BA3414FF0FF
:10107000000348BF0A3200D530BD401C41F10001D9
:1010800030BD10B5044600F09BFA0068005D00F02A
:10109000010010BD2DE9F0411F46044603260168FA
:1010A000072A01F4006004DB08B116A505E016A5C7
:1010B00003E008B115A500E015A521F0100020609F
:1010C000A069C01EA0610FB1401EA0612046FFF7BD
:1010D00093F94FB1D4E9012138469047206A401C6A
:1010E0002062C01C206206E0206AFAE7D4E90121F0
:1010F00015F8010B9047761EF8D22046FFF792F9BB
:10110000BDE8F0814E414E006E616E00494E4600D2
:10111000696E66002DE9F34F4FF0000A0C46564603
:101120008DB001200C9001F10C000B9062690B98BE
:101130000121904705002DD0252D2CD0216A88470C
:10114000C0B162690B9801219047216A8847002845
:10115000F7D16269411E0B98904700E0761CA169A7
:101160000D988847216A88470028F7D1E1690D98D2
:101170008847DBE7A1690D988847A842074601D157
:10118000761CD3E7E1690D9888477F1C02D1BAF13C
:10119000000F6FD06BE162690B9800273D4639461E
:1011A00090472A2804D162690B98012190470125B4
:1011B000DFF8D08262690B9801219047A0F13001DD
:1011C0000A290AD24745E5DC07EB870100EB410716
:1011D000303FDFD445F01005ECE7E90601D46FF0AD
:1011E00000476C280AD04C2814D0682815D06A28EB
:1011F0000DD074281CD07A281AD01DE062690B9893
:10120000012190476C2802D045F0040514E045F018
:1012100002050DE045F020050AE062690B98012106
:101220009047682802D045F0080505E045F40065C0
:1012300062690B9801219047C4E9015765283DD0A8
:1012400019DC58287AD00CDC452837D004DC252856
:1012500026D041289ED131E046282FD0472899D169
:101260002CE05B2877D0612828D063287CD06428C4
:1012700023D15AE0F6E06F2848D008DC66281DD05C
:1012800067281BD0692821D06E2816D127E0702846
:1012900045D0732868D0752847D078280DD14DE007
:1012A000A1690D988847252805463FF469AFE16993
:1012B0000D9888476D1C3FF46AAFD8E00D9923461E
:1012C0006A466FF00100AFF30080C5E045F04000D2
:1012D00023464FF000026060A80736D43EE0E807DE
:1012E0007FF447AF2068011D21600068290501D502
:1012F00006701BE7290701D5068017E7A90703D564
:10130000F117C0E9006111E706600FE745F0400002
:1013100023464FF008026060A80716D41EE040F68E
:101320000E0125EA0100606016E045F0400023460A
:101330004FF00A026060A80707D40FE045F04000B4
:101340006060A80708D5234610220D996FF00100B0
:10135000AFF3008080E007E0102223460D996FF084
:101360000100FFF78FF977E04FF0000963284F463F
:10137000C8464B46CB4602D05B2806D038E0E8068C
:1013800001D40120A060012732E06269D4F80CB0DA
:101390000B98012190475E2807D14FF0010949467B
:1013A0006269D4F80CB00B989047216939B90021D3
:1013B0000A4603AB43F82120491C0829FADBD8B3BD
:1013C000216949B308F1010862690B98012190472E
:1013D0005D28F4D1B9F1000F09D0002003A951F81C
:1013E0002020D24341F82020401C0828F7DB03AB23
:1013F0002069002820794FEA40701ED05B462246C3
:10140000CDF80080CDE901970D9900286FF001001B
:1014100020DAAFF300801FE0C11703AA00EBD1610F
:101420004B1121F01F0102EB8302411A13680120C6
:10143000884003431360C7E719E00D99224600284E
:101440006FF00100009702DAAFF3008004E0FFF7CD
:10145000BFF901E0AFF3008000280ADA401C06D192
:101460000C9820B14FF0FF300FB0BDE8F08F504620
:10147000FAE7E90701D10AF1010A064400200C90BD
:1014800054E60000CCCCCC0C2DE9F0478146164642
:101490008AB0334878440DC88DE80D003048784450
:1014A000801C03AC0DC884E80D0041F69B30084455
:1014B000372190FBF1F290FBF1F5A5F1800501FBDE
:1014C00012041B3C02D56442012000E00020DFF83A
:1014D00090A080460027FA44AAF1BE0A0DE0E0077A
:1014E00009D03246684607EB47010AEB810100F05C
:1014F0003AFB8DE8070064107F1C002CEFD1184FD9
:101500007F44AC3F18E0E80714D007EB04100DF15E
:10151000180A90E80E008AE80E00C068F04201D177
:1015200098190890324606A903A800F01CFB03ABEB
:1015300083E807006D10641C002DE4D13246694633
:10154000B8F1000F03A802D000F0F9FA01E000F0B2
:101550000AFBC9E90001C9F808200AB0BDE8F08714
:10156000F46F0000007B00F0800070470048704777
:10157000D40D00207546FFF7F9FFAE460500694619
:10158000534620F00700854618B020B5FEF784FECC
:10159000BDE820404FF000064FF000074FF0000874
:1015A0004FF0000B21F00701AC46ACE8C009ACE8F5
:1015B000C009ACE8C009ACE8C0098D46704700001E
:1015C00010B5FFF715FD001D10BD00BFBD61000087
:1015D0000446AFF300802046FEF749FE4FF0013C81
:1015E00050F8042B51F8043B9A4221D1A2EB0C0392
:1015F000934313EACC1317D150F8042B51F8043B52
:101600009A4215D1A2EB0C03934313EACC130BD1EE
:1016100050F8042B51F8043B9A4209D1A2EB0C0379
:10162000934313EACC13DBD04FF00000704700BFA8
:10163000D01A01BAB1FA81F101F0180122FA01F0D1
:10164000CB40C1F12001DBB2C0B2C01A2CFA01F3C9
:10165000D11A914311EAC311E6D170475FEA400CF9
:1016600008BF91F0000F4FEA8C234FEAC12243EAF2
:1016700051514FEA1C5018BF00F5F0404FEA3000BE
:1016800018BF41F000415FEA6C5C00F02980BCF1BA
:10169000FF3F08BF40F080407047130C06BF1204A4
:1016A0004FF0100C4FF0000C130E04BF12020CF19F
:1016B000080C130F04BF12010CF1040C930F04BFAC
:1016C00092000CF1020CD30F04BF52000CF1010C7C
:1016D00011464FF00002A0F11F00A0EB0C00704774
:1016E00011F0004F08BF704731F000413FF4D5AF13
:1016F0000B0C06BF09044FF0100C4FF0000C0B0E42
:1017000004BF09020CF1080C0B0F04BF09010CF116
:10171000040C8B0F04BF89000CF1020CCB0F04BF2B
:1017200049000CF1010CCCF12003A0EB0C0022FAD3
:1017300003F302FA0CF241EA030100F101007047E1
:1017400020F07F4C80EA030023F07F47ACEB0703D7
:1017500003F57C5300F0004003F1FF032DE98049BD
:101760004FEA154B09B44FEA144325EA0B4E24EA1D
:1017700003480FF2042606EB132749083E785FEA78
:10178000320203FB0667C7F5000707FB06F64FEAC0
:1017900054374FEAD64606F1020607FB066CCCF139
:1017A000005C4FEA1C472CEA074C07FB06F40CFBD5
:1017B00006F504EB15464FEA961634BF00204FF0AD
:1017C00000404FEAD13706FB07FC4FEA1C4C0CFBEC
:1017D0000BF7D21B03FB0CF761EB07010CFB0EF7B9
:1017E000B0EB074072EB17420CFB08F734BFA2EBDB
:1017F0000742B2EB074261EB17414FEA0C444FEA54
:10180000910706FB07FC4FEA1C4C0CFB0BF7B0EBF7
:10181000C74072EB573203FB0CF734BFA2EBC74251
:10182000B2EBC74261EB57310CFB0EF7B0EBC700D0
:1018300072EB57720CFB08F734BFA2EBC702B2EB96
:10184000C70261EB5771039F4FEA816141EA921130
:1018500004EBCC044FEAD1374FEA826206FB07FC67
:1018600042EA90124FEA80604FEA1C4C0CFB0BF7E7
:10187000D21B03FB0CF761EB07010CFB0EF7B0EB7F
:10188000074072EB17420CFB08F734BFA2EB07428C
:10189000B2EB074261EB17414FEA8C554FEA9107D3
:1018A00004EB9C2406FB07FC4FEA1C4C0CFB0BF7DB
:1018B000B0EBC74072EB573203FB0CF734BFA2EB1F
:1018C000C742B2EBC74261EB57310CFB0EF7B0EBEE
:1018D000C70072EB57720CFB08F734BFA2EBC702CC
:1018E000B2EBC70261EB577115EB4C254FEA8161F2
:1018F00041EA92114FEA82624FEAD13742EA9012EE
:1019000006FB07FC44F100044FEA80604FEA1C4CE0
:101910000CFB0BF7D21B03FB0CF761EB07010CFB75
:101920000EF7B0EB074072EB17420CFB08F734BF21
:10193000A2EB0742B2EB074261EB174115EB1C1516
:101940004FEA813141EA92414FEA823242EA9042C3
:101950004FEA80304FEA0C7644F1000448EA034332
:101960004EEA0B484FF0000EB2EB080C71EB030788
:1019700024BF624639464EEB0E0E4FF0000B0018A6
:10198000524149414BEB0B0BB2EB080C71EB0307D7
:101990007BF1000B24BF624639464EEB0E0E4FF032
:1019A000000B0018524149414BEB0B0BB2EB080CFA
:1019B00071EB03077BF1000B24BF624639464EEB07
:1019C0000E0E51EA020718BF46F0010616EB0E761E
:1019D00055F1000254F1000103D5BDE88901BDE8CD
:1019E0000088BDE88901BDE80048B619524141EBC5
:1019F0000101A3F10103704780807F7E7D7C7B7AAB
:101A00007978777676757473727171706F6E6E6DAA
:101A10006C6C6B6A6A696868676666656464636350
:101A200062616160605F5F5E5E5D5D5C5C5B5B5AD6
:101A30005A59595858575756565555555454535343
:101A400052525251515050504F4F4F4E4E4D4D4D9E
:101A50004C4C4C4B4B4B4A4A4A49494948484847E9
:101A60004747474646464545454444444443434327
:101A70004342424242414141002B26D4770021D0CB
:101A80001CB54FEA370703B44FF010004FF01001B8
:101A90004FF000000FBCBDE810400BF1010BBBF193
:101AA000010F08BF5FEA170722BF12F1010211F10F
:101AB00001014FF0004143F1000300F0004043EA10
:101AC00000007047F9D35708DAE746EA064613F1F3
:101AD000400F4FEA16461FDD13F1200FDFBF1643FC
:101AE0000A46002120335B42C8D0C3F1200746EAF2
:101AF000064602FA07F74FEA164646EA0706C3F11A
:101B0000200722FA03F201FA07F721FA03F14FF056
:101B1000000342EA0702B1E746EA020646EA064641
:101B20004FEA164646EA0106BCBF46EA0646360CB0
:101B30004FF000034FF000024FF000019EE72DE947
:101B4000C048934630B491E8380007C831EA400CE9
:101B500048BF34EA430C03D5FFF7F2FDFFF78CFFD3
:101B6000F0BCBDE800882DE9C048934630B491E848
:101B7000380007C810F0804F08BF13F0804F03D122
:101B800000F005F8FFF778FFF0BCBDE8008820F012
:101B90007F4780EA030023F07F4C07EB0C03A3F59B
:101BA0007C5300F00040A3F1FE0392F0000F00F020
:101BB000B38095F0000F00F077802DE901494FEADE
:101BC00011404FEA144621EA004800FB06FC24EAD3
:101BD000064708FB06F607FB08F800FB07F718EBBB
:101BE00006484CEB164C4FEA124B18EB07484FEAED
:101BF00015464CEB174022EA0B4E0BFB06FC25EA80
:101C000006470EFB06F607FB0EFE0BFB07F71EEB67
:101C1000064E4CEB164C4FF000061EEB074E4CEBFD
:101C2000174B18EB0B0840F1000018EB0E0B58EBAC
:101C3000000840F100008F1A4FF000013CBFC9437B
:101C4000661B14BFB5EB040C00213CBFC943F61B57
:101C50004FEA17444EEA8E0E27EA04454FEA1C4726
:101C600004FB07622CEA074C05FB07F70CFB05F6A3
:101C700004FB0CFC16EB074642EB174216EB0C4636
:101C800042EB1C421BEB060658EB0202414146EABE
:101C90009E0601D5BDE80189B619524141EB01010B
:101CA000A3F10103BDE801894FEA14454FEA11474A
:101CB00024EA054621EA074C05FB07F406FB07F773
:101CC0000CFB06F105FB0CFC11EB074144EB174440
:101CD0004FEA124711EB0C4144EB1C4422EA074C3B
:101CE00005FB07F206FB07F70CFB06F605FB0CFCF1
:101CF00016EB074642EB174216EB0C4642EB1C452F
:101D00006A1854F1000148BF7047B619524141EBBF
:101D10000101A3F10103704795F0000F37D04FEA9E
:101D200011424FEA144721EA024624EA074C02FB1B
:101D300007F106FB07F70CFB06F402FB0CFC14EBA7
:101D4000074441EB17414FEA154714EB0C4441EBB4
:101D50001C4125EA074C02FB07F506FB07F70CFBC5
:101D600006F602FB0CFC16EB074645EB174516EB97
:101D70000C4645EB1C42121951F1000148BF704757
:101D8000B619524141EB0101A3F1010370474FEA3B
:101D900014454FEA114724EA054621EA074C05FBA2
:101DA00007F106FB07F70CFB06F24FF0000605FBF8
:101DB0000CFC12EB074241EB174112EB0C4251EBCA
:101DC0001C4148BF7047921841EB0101A3F1010388
:101DD0007047FEE77047012000F020BA002229B1C9
:101DE00001291AD002291BD04FF440720E490B680A
:101DF00023F440730B600B6813430B600A6822F0F6
:101E000078020A600A68022303EBC00002430A60FA
:101E1000086840F48030086070474FF48072E5E74E
:101E20004FF40072E2E70000103C024013480168E2
:101E300089050FD5016821F400710160016841F442
:101E400000610160016821F400610160016841F4F2
:101E500000710160016849050FD5016821F48061B6
:101E60000160016841F480510160016821F48051F2
:101E70000160016841F4806101607047003C0240EC
:101E800008490A6822F440720A600A6842F00402B3
:101E90000A600A684FF4803343EA002002430A6074
:101EA00070470000103C0240064A136823F4407358
:101EB000136013681360136843F00103136001702B
:101EC00070470000103C0240094910B50C6824F42A
:101ED00040740C600C6844F440740C600C6844F06E
:101EE00001040C600260BFF36F8F436010BD0000FF
:101EF000103C0240074A136823F4407313601368D0
:101F000043F480731360136843F00103136001808E
:101F100070470000103C0240074A136823F44073E6
:101F20001360136843F400731360136843F00103F4
:101F30001360016070470000103C024017490868B8
:101F4000C206174805D5C26942F01002C2611022CC
:101F50000A600A68920605D5C26942F00802C261A9
:101F600020220A600A68520605D5C26942F00402BE
:101F7000C26140220A600A68120605D5C26942F0B1
:101F80000202C26180220A600A68920705D5C2690E
:101F900042F02002C2610220086070470C3C0240FF
:101FA000A800002070B5114904460020C86100F067
:101FB00043FA06460E4D09E0601C07D024B100F03C
:101FC0003BFA801BA04201D9032070BD2868C003E2
:101FD000F2D42868C00701D001202860286810F0DA
:101FE000F200F2D0FFF7AAFF012070BDA800002088
:101FF0000C3C02402DE9F0410446876D00F01CFACC
:10200000064694F835000025022806D08020606539
:1020100084F834500120BDE8F0812068016821F087
:10202000160101602068416921F080014161206C46
:1020300008B9A06C20B12068016821F00801016096
:102040002068016821F0010101600CE000F0F4F962
:10205000801B052807D920206065032084F83500FF
:1020600084F83450D7E720680068C007EED194F8B0
:102070005C103F208840B860012084F8350084F867
:1020800034500020C7E790F83510022903D0802192
:10209000416501207047052180F83510006801680E
:1020A00021F0010101600020704700002DE9F04798
:1020B000044622480F46017E01290AD001218046AC
:1020C00001764CF250394846FFF76CFF020003D00E
:1020D0002FE00220BDE8F0874FF0FF303860206825
:1020E000174D012801D0A6681CE0207C6168FFF72D
:1020F000C7FE4846FFF756FF0246286820F0040056
:10210000286014E0217C3046FFF768FE4846FFF760
:1021100049FF0200286820F07A00286001D03E6064
:1021200005E0761CD4E902100844B042EAD8FFF773
:102130007DFE002188F818101046CBE7A80000208B
:10214000103C02400348016841F00041016000205A
:1021500070470000103C02402DE9F0471B4E054639
:102160001446307E1F468946012808D0012030766B
:102170004CF250384046FFF715FF18B114E002202A
:10218000BDE8F0879DB1012D16D0022D19D0224651
:102190003B464846FFF798FE4046FFF703FF0C49D1
:1021A0000A6822F001020A6000213176E8E7E1B214
:1021B0004846FFF779FEEFE7A1B24846FFF79AFEDF
:1021C000EAE721464846FFF7A7FEE5E7A80000201A
:1021D000103C0240074900200A68002A09DA054A33
:1021E000054B0C3A1360054B13600968002900DAAF
:1021F00001207047103C024023016745AB89EFCDB9
:1022000010B504460A2003F0B5FA012C02D10249A8
:102210000120086010BD00001C000020044910B51A
:102220000A68024202D00860FFF7EAFF10BD000012
:10223000143C01402DE9F84FDFF8BCA10022012534
:1022400003264FF00F090AF1040BAAF1040E00BF98
:102250000B6805FA02F42340A34270D10F7907F00E
:102260000307012F01D0022F16D187684FEA4208D9
:1022700006FA08FC27EA0C07D1F80CC00CFA08FC97
:102280004CEA070CC0F808C04768A7430C79C4F3B0
:10229000001494403C4344600C79E443A4070AD002
:1022A000C4684FEA420C06FA0CF7BC438F6807FA81
:1022B0000CF72743C7600C7904F00304022C12D1F9
:1022C000D40800EB840CDCF820405707FF0E09FA15
:1022D00007F824EA0804D1F8108008FA07F848EA59
:1022E0000408CCF8208004684FEA420C06FA0CF788
:1022F000BC430F7907F0030707FA0CF72743076081
:102300004C6814F4403F70D03C4C276847F4804739
:102310002760246822F0030704F480440094384CBA
:1023200007EB040CDCF8084897074FEA177809FA1E
:1023300008F7BC43334FB84202D1002724E054E0F1
:10234000314FB84201D101271EE0304FB84201D1D0
:10235000022719E02E4FB84201D1032714E02D4F78
:10236000B84201D104270FE02B4FB84201D1052715
:102370000AE02A4FB84201D1062705E0284FB842AB
:1023800001D1072700E0082707FA08F72743CCF810
:102390000878DAF800405746D1F804C09C435FEA59
:1023A000CC2C00D51C433C60DBF800405F46D1F8E4
:1023B00004C09C435FEA8C2C00D51C433C60DEF8D3
:1023C00000407746D1F804C09C435FEA8C3C00D5BE
:1023D0001C433C60084F083F3C68D1F804C09C4354
:1023E0005FEACC3C00D51C433C60521C102AFFF431
:1023F0002FAFBDE8F88F0000083C01404438024090
:102400000030014000000240000402400008024089
:10241000000C02400010024000140240001802406C
:10242000001C02400069084000D0012070470AB13A
:10243000816170470904FBE701488068704700002C
:10244000C80000200248816802781144816070470A
:10245000C80000200B4810B5016841F4007101600C
:10246000016841F480610160016841F4807101609C
:10247000032000F06FF80F2000F006F800F024F8B9
:10248000002010BD003C024070B50D4D04464FF4D5
:102490007A712878B1FBF0F00A490968B1FBF0F0D5
:1024A00000F028FB48B9102C07D200222146501E0C
:1024B00000F030F800206C6070BD012070BD00009D
:1024C000C8000020000000200A4808B5016841F457
:1024D00080410160006800F4804000900548001FC2
:1024E000016841F080510160006800F08050009068
:1024F00008BD000044380240002809DB00F01F023C
:10250000012191404009800000F1E020C0F8001155
:1025100070470000F0B40E4B1B680C46C3F3022357
:10252000C3F10705042D00D90425191D072901D27F
:10253000002300E0DB1E012606FA05F1491E2140BA
:1025400099409E40761E16403143F0BC01F0F7BD25
:102550000CED00E0064900F0070208684FF6FF03A3
:10256000184040EA0220034A104308607047000008
:102570000CED00E00000FA05BFF34F8F054801683D
:10258000054A01F4E06111430160BFF34F8F00BFC2
:10259000FDE700000CED00E00400FA052DE9F0472E
:1025A0000E46050065D0DFF81481D8F80000F7B2B8
:1025B00000F00700B04207D288F80070D8F8000099
:1025C00000F00700B04254D128683D4C810712D575
:1025D000400703D5206840F4E050206028780007C9
:1025E00003D5206840F4604020602068A96820F08E
:1025F000F000084320602878C0072DD03049686873
:102600000839012812D0022813D0032811D00968F4
:10261000890700292DDA216821F003010143216097
:10262000FFF70AFF814641F2883A0EE00968890304
:10263000EFE709688901ECE7FFF7FEFEA0EB09016F
:10264000514502D90320BDE8F0872068696800F091
:102650000C00B0EB810FEFD1D8F80010404601F02C
:102660000701B14207D90770006800F00700B042C7
:1026700001D00120E7E72878400705D52068E96800
:1026800020F4E050084320602878000706D5206831
:10269000296920F4604040EAC100206000F038F869
:1026A0002168084AC1F30311515CC840064908601B
:1026B00006480068FFF7E8FE0020C4E7003C02403F
:1026C00008380240B283000800000020CC0000203F
:1026D0000448054900680968044AC1F38221515C35
:1026E000C84070470000002008380240C28300083C
:1026F0000448054900680968044AC1F34231515C45
:10270000C84070470000002008380240C28300081B
:10271000154810B5006810F00C02144813D0411091
:10272000042A0FD0082A0ED10F4C241F22682368D8
:1027300002F03F025B0207D52068C0F38810A0FBBF
:10274000010106E0084610BD2168C1F38811A1FB14
:1027500000010023FDF7B3FD2168C1F30141491CCD
:102760004900B0FBF1F010BD083802400024F4002D
:102770002DE9F84F04006ED02078DFF84C93C007A5
:10278000A9F104054AD009F104000168C1F38101EF
:10279000012908D00068C0F3810002280AD1D9F8C5
:1027A0000000400206D52868800337D560680028FD
:1027B000E1D033E06068B0F5803F10D0B0F5A02FD5
:1027C000286810D020F480302860286820F4802009
:1027D00028606068A8B1FFF72FFE06460DE0286864
:1027E00040F48030F4E740F480202860F7E700BF31
:1027F000FFF722FE801B642873D828688003F7D572
:102800000CE0FFF719FE064605E000BFFFF714FED7
:10281000801B6428F0D828688003F7D42078DFF87C
:10282000AC8280074FF0000A3ED5A748001D016822
:1028300011F00C0F08D00068C0F3810002280BD102
:10284000D9F80000400207D42868800716D5E06850
:10285000012800D112E033E1E068B8B10120C8F8E6
:102860000000FFF7E9FD064605E000BFFFF7E4FDC5
:10287000801B0228C0D828688007F7D528682169FE
:1028800020F0F80040EAC10028600DE0C8F800A080
:10289000FFF7D2FD064604E0FFF7CEFD801B0228BD
:1028A0001FD828688007F7D42078000722D5864FE4
:1028B00087486169703771B101210160FFF7BCFD84
:1028C000064604E0FFF7B8FD801B022809D83868E7
:1028D0008007F7D50EE0C0F800A0FFF7ADFD064673
:1028E00005E082E0FFF7A8FD801B02287DD838684C
:1028F0008007F7D42078400768D5DFF8CCB10027EF
:102900000BF13C0BDBF80000C0000BD4DBF800102F
:1029100041F08051CBF80010DBF80000012700F0F7
:10292000805000906B4E3068C00510D4306840F481
:1029300080703060FFF780FD009005E0FFF77CFDC0
:102940000099401A022850D83068C005F6D55E4E6E
:10295000A0686C3601280FD00528306810D020F010
:1029600001003060306820F004003060A068B8B129
:10297000FFF762FD00900FE0306840F00100F4E7DF
:1029800040F004003060F7E7FFF756FD0099411A68
:1029900041F28830814266D830688007F4D50EE075
:1029A000FFF74AFD009007E0FFF746FD0099411A46
:1029B00041F28830814256D830688007F4D42FB174
:1029C000DBF8001021F08051CBF80010A069C8B3EB
:1029D0003D49091D0968C1F3810102294AD0022835
:1029E000504607D0C8F8600000E03CE0FFF724FD47
:1029F00004463BE04746C8F86000FFF71DFD064669
:102A000005E000BFFFF718FD801B02282BD82868BF
:102A10008001F7D4D4E907010843A16A2E4A490886
:102A200002EB0141626A41EA8211084394F82C10DA
:102A300040EA0161C9F8001001203866FFF7FCFC8C
:102A4000044606E03EE000BFFFF7F6FC001B02284C
:102A500009D828688001F7D534E000BFFFF7ECFC07
:102A6000001B022802D90320BDE8F88F28688001E6
:102A7000F4D427E00128F7D0D9F80000E26900F487
:102A8000800191421CD1226A00F03F01914217D18E
:102A900047F6C071626A0140B1EB821F10D1A26A91
:102AA0004FF0FF3300F4403103EB5202B1EB024F21
:102AB00006D194F82C1000F07060B0EB016F01D0DB
:102AC0000120D1E70020CFE7043802400000474250
:102AD000800E4742007000400000FFFF4FF0E021F1
:102AE0000428086903D020F004000861704740F012
:102AF0000400FAE710B5401EB0F1807F01D3012039
:102B000010BD4FF0E02460610F21601701F017FB4A
:102B10000020A06107202061002010BD7047704791
:102B200010B5040003D094F83D0010B107E0012077
:102B300010BD002084F83C00204600F01FF8022061
:102B400084F83D00211D206800F0DAFF012084F8A0
:102B5000460084F83E0084F83F0084F8400084F882
:102B6000410084F8420084F8430084F8440084F86B
:102B7000450084F83D00002010BD000038B5054632
:102B800000681F491F4C88420FD1206840F0100098
:102B900020602068042200F0100000900021362000
:102BA000FFF7B8FC3620FFF7A7FC174928688842D2
:102BB0000FD1206840F0080020602068032200F058
:102BC0000800009001213220FFF7A4FC3220FFF71B
:102BD00093FC0E492868884211D1206840F0040017
:102BE00020602068042200F00400009001211E20D3
:102BF000FFF790FCBDE838401E20FFF77DBC38BDD4
:102C00000010004040380240000C00400008004026
:102C100090F83D10012901D001207047022180F871
:102C20003D100168CA6842F00102CA60006811499B
:102C3000884214D0B0F1804F11D00F4988420ED095
:102C40000E4988420BD00E49884208D00D4988426F
:102C500005D00D49884202D00C49884204D18168D0
:102C600001F00701062903D0016841F0010101606C
:102C700000207047000001400004004000080040B0
:102C8000000C0040000401400040014000180040DA
:102C90000168CA6822F00102CA6001680A6A41F24A
:102CA00011131A4207D10A6A9B101A4203D10A680B
:102CB00022F001020A60012180F83D1000207047D7
:102CC0002DE9F0410D46040003D094F83D0018B101
:102CD00008E00120BDE8F081002084F83C00204697
:102CE00000F040F8022084F83D002068816844F23A
:102CF000070291438160211D206800F001FF2268D6
:102D000090689169166A2B68AF69034340F20330FB
:102D1000814341EA0721A868EF6908434FF6FC4167
:102D20008843E96840EA0720014328692F6A0001C7
:102D300040EA0730084369686D6926F0AA0646EA4A
:102D40000515294393602268906154F8460B01628F
:102D5000012004F81F09E0752076E0762077A07541
:102D60000020B7E7704770B590F83E60044690F8D1
:102D70003F5090F8423090F84320022021B10429BE
:102D80000ED0012E1BD114E0012E18D1012B16D12B
:102D900084F83E0084F8420001220021206820E0EF
:102DA000012D0CD1012A0AD184F83F0084F8430098
:102DB00014E0012D03D1012B01D1012A01D0012002
:102DC00070BD84F83E0084F83F0084F8420084F827
:102DD000430001220021206800F0FAFE01220421B4
:102DE000206800F0F5FE2068016841F001010160F3
:102DF000002070BD70472DE9F04104460068C668A8
:102E000005694FF00007A90713D5B10711D5F91EC1
:102E1000016101202077206880698007204602D068
:102E2000FFF7E8FF04E000F07EF8204600F052F9DA
:102E30002777680716D5700714D521686FF004004E
:102E40000861022020772068806910F4407F2046C6
:102E500002D0FFF7CFFF04E000F065F8204600F055
:102E600039F92777280715D5300713D521686FF072
:102E700008000861042020772068C0698007204688
:102E800002D0FFF7B7FF04E000F04DF8204600F055
:102E900021F92777E80616D5F00614D521686FF0DA
:102EA00010000861082020772068C06910F4407F76
:102EB000204602D0FFF79EFF04E000F034F82046E1
:102EC00000F008F92777E80708D0F00706D0216856
:102ED0006FF001000861204600F062F9280608D56D
:102EE000300606D521686FF0800008612046FFF7A4
:102EF00015FE680608D5700606D521686FF04000FB
:102F00000861204600F04CFAA8060AD5B00608D59C
:102F100021686FF0200008612046BDE8F041FFF70E
:102F2000FEBDBDE8F081704770B5044690F83C00E6
:102F300000260D4601280FD0012084F83C006AB11C
:102F4000042A1DD0082A2FD00C2A3FD001260020A9
:102F500084F83C00304670BD022070BD206800F04F
:102F600045FE2068816941F008018161206881691E
:102F700021F004018161206881692A69114311E00F
:102F8000206800F063FE2068816941F4006181617E
:102F90002068816921F480618161206881692A69E2
:102FA00041EA02218161D2E7206800F085FE2068B5
:102FB000C16941F00801C1612068C16921F00401C3
:102FC000C1612068C1692A69114311E0206800F0DD
:102FD000A7FE2068C16941F40061C1612068C16930
:102FE00021F48061C1612068C1692A6941EA022136
:102FF000C161ACE710B5040003D094F83D0010B1F6
:1030000007E0012010BD002084F83C00204600F0BD
:103010001FF8022084F83D00211D206800F070FD9B
:10302000012084F8460084F83E0084F83F0084F8CC
:10303000400084F8410084F8420084F8430084F89A
:10304000440084F8450084F83D00002010BD0000D5
:103050002DE9F04100681C4986B0884231D1142125
:103060006846FDF7A2FC19480024016841F00101FF
:103070000160006800F001000590144814300168F8
:1030800041F0010101600068022500F00100059097
:103090004FF48070CDE9000502AA03260127DFF86E
:1030A000308082E8D00069464046FFF7C3F8A802A6
:1030B000CDE9000502AA694682E8D0004046FFF744
:1030C000B9F806B0BDE8F081000001403038024098
:1030D000000002407047000010B50446022249B1CA
:1030E00004290ED0082913D094F84100012816D0E5
:1030F000012010BD94F83E000128F9D184F83E204B
:103100000FE094F83F000128F2D184F83F2008E056
:1031100094F840000128EBD184F8402001E084F8C5
:1031200041200122206800F053FD16492068164A0C
:10313000884201D0904203D1436C43F4004343647E
:103140002068884213D0B0F1804F10D00F498842D8
:103150000DD00F4988420AD00E49884207D09042CC
:1031600005D00D49884202D00C49884204D18168BB
:1031700001F00701062903D0016841F00101016057
:10318000002010BD00000140000401400004004088
:1031900000080040000C00400040014000180040C2
:1031A0002DE9FE4F00686149614C884270D1E068AA
:1031B000401CE06002F07CFBDFF878A10521554659
:1031C000CAF8000003F086FC286804F0B7FEDFF8B8
:1031D00068B15A4D0646CBF800002878012821D165
:1031E00057485849584F006810B101280DD019E0D0
:1031F000086804F0A3FE396804F0E9FF0146304690
:1032000004F0B4FF0ED802200BE0086804F096FE2C
:10321000396804F021FD0146304604F0A7FE01D8CC
:1032200003202870A0784949401CC0B2A0700978DA
:1032300088425CD30021A170A168A146491CA1600D
:10324000A8462878424E434F434D444C012805D0B0
:10325000434902284DD003284DD021E0DBF800007F
:1032600003F094F93F4920600028096806DB884292
:103270000BDA64280ADA6420206007E049428842B9
:1032800003DD6FF06301884200DD2160206834E0D7
:103290003EE04942884200DC2160206802F0B0FD37
:1032A00031480168002922DD98F800005FEA000833
:1032B0001DD0D9F80C204846D9F81830D21A8A42C5
:1032C00015D3C168C9F81810386804F099FC07468E
:1032D0000D46306804F0F6FD0346DAF8000000976A
:1032E000CDE90150414621A02268FDF75FF8BDE815
:1032F000FE8F086801E00868404204F01FFE30605D
:10330000386802F095FB206029688842C4DAC0E77B
:103310002149884203D12078401C2070E7E71F49EB
:103320008842E4D16078401C6070E0E70010004003
:10333000D400002048000020A0000020050000204C
:103340001800002030000020540000201001002050
:10335000780000209C00002024000020A400002011
:103360002800002020000020440000204442477C28
:1033700072663D25647C70776D3D25647C53706476
:10338000533D25647C7370643D252E30667C656EEC
:10339000633D25640D0A0000000C00400008004059
:1033A0007047704770470000F8B501680446086828
:1033B000CA684B6910F00F0F4FF000055AD003F0A8
:1033C000010602F49077374365D0C10705D0D105D7
:1033D00003D5616C41F001016164410705D5D9074E
:1033E00003D0616C41F002016164810705D5D90702
:1033F00003D0616C41F004016164010707D502F05C
:103400002001314303D0616C41F008016164616CBB
:1034100000293BD0800604D5900602D5204600F056
:103420003DFD20684069616CC0F3801001F0080127
:10343000014320462BD000F00AFD20684069400679
:1034400021D52068143050E8001F21F0400140E8E9
:103450000012002AF5D1E06BA8B172490165E06B5A
:10346000FEF711FE002811D0E06B016D01B0BDE840
:10347000F040084783060ED593060CD52046BDE8DC
:10348000F84000F00BBD2046FFF78CFFF8BDFFF7BA
:1034900089FF6564F8BD266B2023012E7ED1C60608
:1034A0007CD5D6067AD508684868009048694FF000
:1034B000020640064DD5E26B106840684FF48077F5
:1034C0000004000C3AD0A18D814237D9E085D06943
:1034D000B8422DD020680C3050E8001F21F48071D4
:1034E00040E80012002AF5D12068143050E8001F8F
:1034F00021F0010140E80012002AF5D120681430C3
:1035000050E8001F21F0400140E80012002AF5D1E8
:1035100084F84230256320680C3050E8001F21F009
:10352000100140E80012002AF5D1E06BFEF762FDC1
:103530006663A08DE18D401A81B206E0A18D8142C3
:10354000A8D1D069B842A5D166632046FFF729FF0C
:10355000F8BDA08DE18D401A81B2E08D0028F7D032
:103560000029F5D020680C3050E8002F22F490722A
:1035700040E80027002FF5D12068143050E8002FD4
:1035800022F0010240E80027002FF5D184F84230F4
:10359000256320680C3050E8002F00E006E022F0A0
:1035A000100240E80023002BF3D1CDE705062BD510
:1035B000150629D594F841002128C9D1A068B0F595
:1035C000805F01D12069B0B1206A411C216221686D
:1035D00000784860E08C401E0004000CE084B7D105
:1035E0002068C16821F08001C1602068C16841F095
:1035F0004001C160F8BD206A0088C0F3080048603F
:10360000206A801C2062E5E74006F3D55006F1D51C
:10361000CA68204622F04002CA6084F8413000F0B7
:10362000D8F8F8BD413E000870B5040004D094F805
:103630004100002510B106E0012070BD84F8405023
:10364000204600F023F8242084F841002068C16857
:1036500021F40051C160204600F082FC206801691D
:1036600021F4904101612068416921F02A01416102
:103670002068C16841F40051C1606564202084F86D
:10368000410084F842006563002070BD10B586B02B
:10369000044614216846FDF788F91B4920688842D2
:1036A00030D11A48016841F004010160006800F05F
:1036B0000400059015481030016841F400210160B4
:1036C0000068134C00F4002005904FF480600090D7
:1036D0000220019001200290032003900820049012
:1036E00069462046FEF7A6FDE01400906946204694
:1036F000FEF7A0FD012200213420FEF70BFF34204D
:10370000FEF7FAFE06B010BD004C00403038024013
:103710000008024090F84230202B01D00220704770
:1037200021B11AB10023036300F0A0BC012070474F
:1037300070472DE9F843044690F841009846164634
:103740000D46202802D00220BDE8F88385B17EB165
:1037500000206064212084F84100FEF76DFEA684FD
:103760008146E684A0682027B0F5805F02D003E0A0
:103770000120E9E7206910B12E4600250EE0002661
:103780000CE08021204600F08CFCA8B9C6B116F8E8
:10379000010B21684860E08C401EE084E08C4B46C1
:1037A0004FF00002CDF800800028EAD14FF0400130
:1037B000204600F076FC40B184F841700320C3E756
:1037C00035F8020BC0F30800E3E784F841700020ED
:1037D000BAE77047FEE700002DE9F04F87B01421EB
:1037E0006846FDF7E2F873480024016841F01001D3
:1037F0000160016801F010010591016841F00401C8
:103800000160016801F004010591016841F02001A7
:103810000160016801F020010591016841F080011B
:103820000160016801F080010591016841F001012A
:103830000160016801F001010591016841F040015A
:103840000160016801F040010591016841F0020149
:103850000160016801F002010591016841F0080171
:1038600001600068002200F00800059080215248A5
:10387000FEF7DDFD4FF23F000225CDE9000502AA6B
:1038800003264FF00C0882E8500169464B48FEF7CA
:10389000D1FC082707200097CDE90360DFF82091CD
:1038A000CDE9015469464846FEF7C4FCC0200090AB
:1038B000CDE9015469464846CDE90345FEF7BAFC17
:1038C00040F23F60CDE9000502AA694682E8500156
:1038D0003C48FEF7AFFC4FF68370CDE9000502AA25
:1038E000694682E850013848FEF7A4FC4FF440696D
:1038F00001AA12204FF0040ACDF8009082E851048A
:10390000DFF8C8B069465846FEF794FC4FF47040A3
:10391000CDE9000502940520CDE9036069465846CB
:10392000FEF788FC4FF63370CDE9000502AA694620
:1039300082E850012048FEF77DFC4FF04008CDE9B9
:10394000008469461F480294FEF774FCCDE90085A7
:1039500002AADFF87C8082E8D00069464046FEF784
:1039600069FC02AA694682E8D000CDE9009540468C
:10397000FEF760FCE802CDE9000502AA694682E88C
:10398000D0004046FEF756FC02AA694682E8D00005
:10399000CDE900A50848FEF74DFC802000900120ED
:1039A000CDE90104694604480394FEF743FC07B0DF
:1039B000BDE8F08F30380240000C02400014024095
:1039C00000000240001802400010024000040240C3
:1039D00000080240FEE7FEE77047704730B593B03D
:1039E00030216846FCF7E1FF14210CA8FCF7DDFF4D
:1039F0001D480025016841F080510160006800F019
:103A0000805011901948016841F4804101600068BC
:103A1000022400F4804011900120009000040190E5
:103A20008001CDE90640082008904FF4A870CDE948
:103A3000090407200B906846FEF79AFE00B1FEE7E6
:103A40000CA90F2081E831004FF4A0500F904FF4E3
:103A50008050109005210CA8FEF7A0FD002800D092
:103A6000FEE713B030BD0000403802400070004057
:103A7000FEF7E8BC70470000044800680169C943CC
:103A8000C90701D1891E016170470000480100206B
:103A90000148FFF7B0B90000200200200148FFF7FD
:103AA000AAB90000D8010020064A054BC2E900313E
:103AB0000021C2E9021010461161FFF731B8000081
:103AC00000080040D80100200148FFF794B9000029
:103AD00090010020064A054BC2E900310021C2E9ED
:103AE000021010461161FFF71BB80000000C0040E7
:103AF000900100200148FFF77EB900008C020020F1
:103B0000F0B50268274B284D284E294F294C4FF01D
:103B1000804C984209D0604507D0A84205D0B042F9
:103B200003D0B84201D0A04204D122F0700E4A68FE
:103B300042EA0E0298421BD0604519D0A84217D025
:103B4000B04215D0B84213D0A04211D01A4DA842AD
:103B50000ED01A4DA8420BD0194DA84208D0194DCD
:103B6000A84205D0184DA84202D0184DA84203D152
:103B700022F44075CA682A434D6922F080022A4324
:103B80008D68C5620D688562984201D0A04201D15E
:103B900009690163016841F004010160012141618B
:103BA0000260F0BD00000140000400400008004039
:103BB000000C00400004014000400140004401406E
:103BC0000048014000180040001C00400020004058
:103BD00010B501F01F030121046A99408C4304626F
:103BE000016A9A401143016210BD0000F0B5036AFA
:103BF000026A22F00102026242688469124E24F0D5
:103C000073050C682C4323F002058B682B430D4D84
:103C1000A84201D0B04205D123F00807CB683B434E
:103C200023F00403A84201D0B04205D14D6922F42B
:103C3000407215438A692A4342608461496841633E
:103C40000362F0BD0000014000040140F0B5026ACB
:103C5000036A23F010030362436884690D6824F447
:103C6000E64444EA05248D6822F0200242EA051267
:103C70000F4D104EA84201D0B04206D1CF6822F0BD
:103C8000800242EA071222F04002A84201D0B0426C
:103C900007D14D6923F4406343EA85038D6943EA04
:103CA000850343608461496881630262F0BD00005E
:103CB0000000014000040140F0B5026A036A23F4E9
:103CC000807303624368C46922F4007224F07305B0
:103CD0000C68124E2C438D6842EA05220E4DA84214
:103CE00001D0B04206D1CF6822F4006242EA072236
:103CF00022F48062A84201D0B04207D14D6923F47A
:103D0000405343EA05138D6943EA05134360C461D8
:103D10004968C1630262F0BD000001400004014037
:103D200030B5046A026A22F4805202624268C369B2
:103D30000D6823F4E64343EA05238D6824F4005418
:103D400044EA0534084DA84202D0084DA84204D1E7
:103D50004D6922F4804242EA85124260C36149689B
:103D60000164046230BD0000000001400004014015
:103D700070B5184800680068C04380061CD4164817
:103D80000068C2B2154841880B0415D44C044FF0AA
:103D9000000304D50A2A0ED141F4004118E00D2A8F
:103DA00014D0C1F30D040B4D491C143D89B22A55A2
:103DB0004180132900D943800648FFF7F5FABDE892
:103DC0007040012205490348FFF7A4BC41F480413B
:103DD0004180F1E78C0D0020044C004024010020BC
:103DE00070B5144B186880061AD55868C2B21248CC
:103DF00001880C0414D44D044FF0000404D50A2AA1
:103E00000DD141F4004113E00D2A0FD0C1F30D058F
:103E10000A4E491C89B272550180C72900D9048015
:103E2000186810F00E0F00D0586870BD41F4804142
:103E30000180F5E7005000401C010020680C0020C4
:103E400010B5806B0021C185FFF7ACFA10BD016889
:103E50000C3151E8002F22F4907241E80023002B2E
:103E6000F5D10168143151E8002F22F0010241E838
:103E70000023002BF5D1016B012909D101680C3118
:103E800051E8002F22F0100241E80023002BF5D169
:103E9000202180F8421000210163704708B590F896
:103EA0004210222901D0022008BD82684FF48053BD
:103EB0009A4201D1016921B1816A9A421BD04AB16B
:103EC0000AE00268816A5268C2F308020A80816AC5
:103ED000891C08E0026972B10268526802F07F0230
:103EE0000A70816A491C8162C18D491E0904090C4E
:103EF000C18503D01BE002685268F1E70168CA6817
:103F000022F02002CA600168CA6822F48072CA6086
:103F100001684A6922F001024A61202180F84210BA
:103F200000214163026B012A03D0FFF701FC00204E
:103F300008BD016301680C3151E8002F22F0100226
:103F400041E80023002BF5D101680A68D20602D5AA
:103F50000A6849680091818DFFF723FAE7E70000BE
:103F600070B5044600680169E26821F440511143CC
:103F700001612169A068E26908436169114308434E
:103F80002168CA6849F20C639A430243CA602068F8
:103F90004169A26921F440711143416131492068AE
:103FA000884202D03049884202D1FEF7A1FB01E0ED
:103FB000FEF78EFBE2690023192164253226B2F553
:103FC000004F626828D0A0FB0101930F9200FCF71C
:103FD00076F90146B0FBF5F06FF01802504301EBA3
:103FE000800006EB0010B0FBF5F000F0F002B1FB32
:103FF000F5F002EB0012B1FBF5F06FF01803584337
:1040000001EB800006EB0010B0FBF5F000F00F00B4
:1040100021681044886070BDA0FB010192185B41CB
:10402000FCF74DF90146B0FBF5F00201B1FBF5F0EC
:104030006FF01803584301EB800006EBC000B0FBA3
:10404000F5F000F0F80002EB4002B1FBF5F0584348
:1040500001EB800006EBC000B0FBF5F000F00700BC
:10406000D6E7000000100140001401408162828503
:10407000C28500214164222180F84210016921B1EA
:104080000168CA6842F48072CA6001684A6942F0F5
:1040900001024A610068C16841F02001C16000204E
:1040A00070472DE9F843984617460D460446089E8A
:1040B00024E0701C22D0FEF7BFF9A0EB0800B0424C
:1040C0001AD8CEB12068C168490717D5802D15D000
:1040D000402D13D00168C94309070FD4016800259A
:1040E000406800902046FFF7B2FE0820606484F824
:1040F00040500120BDE8F8830320FBE720680068FA
:1041000035EA000004D00020B842D2D00020F1E708
:104110000120F9E7FEE7490050EAC12018BF04205A
:104120004A0D18BF40F0010040F2FF72B2EB515F40
:1041300008BF40F00200012808BF052070470907AA
:10414000090E002804DB00F1E02080F8001470471D
:1041500000F00F0000F1E02080F8141D70473038A7
:104160000A2801D2012070470020704770470000E4
:1041700010B5084C012210212046FEF758F93220D4
:1041800001F0F8FA20460022BDE810401021FEF7A9
:104190004EB900000008024010B5164A0024144B26
:1041A000C2E9024014615461C2E900311046FEF7D1
:1041B00021FF104860211C380022C0E900148460EF
:1041C000014604611C30FEF7AFFE0A490C221C397F
:1041D0000848FEF7A9FE002201211920FEF79AF9EE
:1041E0001920FEF789F9BDE810400248FEF710BD1E
:1041F000000001404801002010B50A4C084AC4E9FB
:1042000000210021C4E9021020462161FEF788FC4C
:104210002046FEF7FDFC21686FF00100086110BD2B
:10422000001000408C02002010B580210748FEF7E6
:10423000F9F808B1002010BD05A0FCF7B7F801F0AF
:10424000EFFD07490120086010BD00000014024086
:10425000323456E696ADE794B5210D0A0000000011
:104260000C00002070B504460A480D460078082866
:104270000ED901F0D5FD08490120086007482946FC
:10428000046007A0FCF792F8FFF772FF012070BDF1
:10429000002070BDD40000200C0000202C00002065
:1042A00025730D0A00000000012808D002280BD059
:1042B00003280ED0042811D0052814D017E00529B2
:1042C00017D0022915D012E0012912D0032910D0ED
:1042D0000DE002290DD004290BD008E0032908D0F5
:1042E000052906D003E0042903D0012901D00020CC
:1042F00070470120704700000248016802A0FCF7E7
:1043000055B800002C000020E68AA5E8ADA6E4BB65
:10431000A3E7A0813A25640D0A0000002DE9FC41C5
:1043200010A0FCF743F815A0FCF740F8174E002446
:10433000A6F59667164D0CE056F8240003F060FCD5
:10434000CDE9000157F82420214612A0FCF72EF8F1
:10435000641C28688442EFDBBDE8FC4110A0FCF738
:1043600025B800003D3D3D20444247204441544192
:10437000202843535629203D3D3D0A006964782C8E
:10438000706F732C73706565640A000084070020E9
:10439000F000002025642C25642C252E30660A00B0
:1043A0003D3D3D2044424720454E44203D3D3D0A91
:1043B000000000002DE9F05F4FF4967A51462BA0E3
:1043C000FBF7F4FF354D364C0027364E2F60277033
:1043D000377001F01DFADFF8D090E8B33078D8BB21
:1043E0002868C8BB2078B8BB3049B8460F6001F0D8
:1043F00031FD2F4F3868834603F0A0FD2D4908603A
:1044000049F620110BEB010003F098FD2A49DFF873
:10441000ACB0086001202070C9F80080D0464C463E
:10442000BA4602E02068B8420CDA20682449DAF87B
:1044300000204BF820200A682249474641F82020F6
:10444000401C2060192001F095F9307810B12868DF
:104450000028E7D0C82000E001E001F08BF9D9F88E
:104460000010BDE8F05F18A0FBF7A0BF4442472052
:10447000E5BC80E5A78BE98787E99B862832353044
:104480006D73E997B4E99A942C20E69C80E5A49A90
:104490002564E782B9292E2E2E0D0A000C0000207B
:1044A0000500002006000020F00000201800002079
:1044B000480000205000002054000020D4020020BA
:1044C0009C0000208407002044424720E98787E9B8
:1044D0009B86E7BB93E69D9F2C20E585B12564E490
:1044E000B8AAE782B90D0A0010B50278542A2ED076
:1044F000482A42D0462A4AD0522A4ED0562A5FD065
:10450000532A63D0502A76D0452A6ED04B2A6DD0DC
:10451000532A5ED0502A71D0452A7ED04F2A68D0C7
:10452000432A67D0442A70D0482A29D0522A37D04B
:10453000542A0FD0522A38D0412A67D0502A60D04E
:104540004C2A6ED0672A6DD0442A6CD06FE1427835
:104550003A2A0FD04178492971D0312970D03229B7
:104560006FD033296ED034296DD035296CD03629DF
:104570006BD05CE100F0A6FC5DE142783A2A03D002
:104580004178412974D052E100F0B0FC53E1427807
:104590003A2ADBD100F0D2FB4DE142783A2A0CD026
:1045A0004178452971D0542970D0417849296ED07D
:1045B00054296DD045296CD039E100F0A1FB3AE1D6
:1045C00042783A2A0CD100F0D5FD34E142783A2AFB
:1045D00007D042784B2A4CD0492A50D0442A59D08F
:1045E00025E100F0FDFC26E105E013E01FE005E019
:1045F00013E061E066E042783A2A08D04278432A24
:104600004ED04178412972D011E165E0B8E000F068
:10461000ADFC10E142783A2A06D041784C2945D0C9
:1046200005E1C5E0D0E05AE000F0B8FC03E14278D3
:10463000502A0BD0492A0FD0442A13D0F7E078E053
:1046400080E081E084E085E086E087E082783A2AB5
:104650004CD100F001FCEEE082783A2A46D100F01D
:10466000C5FBE8E082783A2A40D100F089FBE2E01D
:1046700041E082783A2A39D100F044FDDBE08278CB
:104680003A2A33D100F006FDD5E03AE042E068E096
:1046900045E039E082783A2A28D100F0C3FCCAE02C
:1046A00082783A2A22D100F035FCC4E0807845288F
:1046B0001CD100F015F9BEE04078502816D100F06A
:1046C000B7FAB8E041784C2910D1807843280DD151
:1046D0005A4900200860AEE04278302A08D042787B
:1046E000422A6ED0552A6DD0502A6CD09FE056E0F9
:1046F00001F0C4FA9FE080784C2808D100F052FA0B
:1047000099E08178442903D08078532835D08EE011
:1047100000F09EFA8178462905D0422906D080789B
:10472000532827D083E000F0CDFA84E000F0C6FAE9
:1047300081E081784D297AD1C078332877D100F093
:1047400091FF78E0012000E0022000F0BBFE72E063
:104750000320FAE70420F8E70520F6E700F0A0FFC1
:1047600069E081784E2962D1C07847285FD100F096
:104770008DFA60E000F0B0FA5DE000F07BFA5AE0FC
:1047800041784C2953D18178412950D1C17852299F
:104790004DD100794D284AD1FFF7AEFD4BE081782D
:1047A000522944D1C078412841D100F005FD42E0B2
:1047B000407831283BD3352839D8303800F0C2F959
:1047C00039E022E027E02FE041786E2906D06F29FA
:1047D0000AD066290ED06D2911D028E080786E2885
:1047E00025D100F095F826E080786F281FD100F0E1
:1047F00045F920E08078662819D1012003E080780F
:104800006D2814D1002001F029F8807847280ED1B6
:10481000FFF7D0FD0FE081784D2908D1C0785028EE
:1048200005D1FFF77BFD06E082783A2A01D000200F
:1048300010BD00F005F8012010BD00000C000020A4
:1048400038B500246A460DA10094FBF7FDFE0098E0
:10485000002801DA009404E042F21071884200DD81
:104860000091084800990160002903DD06A0FBF7CC
:104870009DFD38BD13A0FBF799FD38BD44503A2586
:104880006400000044000020E8B083E8AF95E689AA
:1048900093E58DB03A20E6AF8F25646D73E8BE9343
:1048A000E587BAE4B880E6ACA120504944E78AB66F
:1048B000E68081202844503A3020E585B3E997AD61
:1048C000290D0A00E8B083E8AF95E68993E58DB03D
:1048D0003A20E5B7B2E585B3E997AD0D0A000000CF
:1048E00010B510210448FDF79DFD0146BDE81040BC
:1048F00002A0FBF75BBD000000100240E58589E7E0
:1049000094B5E4BFA1E58FB72025640D0A0000002F
:104910002DE9FC5F3E494FF00008DFF8FCA0A1F84C
:1049200000803C493D4881F800808AF80080FEF70D
:104930006FF93BA13C4DD1E900014FF4FA79DFF862
:10494000ECB0CDE9000150E02868012801D0002436
:1049500006E03248FEF79CF94BE0286801280DD0AC
:104960000021012002F064FA02F0EAFE4F464846B8
:1049700000F000FFB94600262D4F1CE02748FEF747
:1049800087F92CE0286801283DD00021012002F0A1
:104990004FFA02F0D5FE484600F0ECFE28680128E8
:1049A00031D00121084602F043FA02F0C9FE484620
:1049B00000F0E0FE761C38688642E3DD601C0522CC
:1049C00090FBF2F102FB11011AA01DF801201DF865
:1049D00004103B68FBF7EAFC641C052CBDDB414678
:1049E0001CA0FBF7E3FC08F10108DBF80010884588
:1049F000AADD0A48FEF74CF99AF800101BA0FBF755
:104A0000D5FCBDE8FC9F0548FEF742F9D6E700005B
:104A10001C010020680C0020D5000020D8010020D7
:104A200001020304050000000C00002038000020F3
:104A30003C00002053746174696F6E202564202649
:104A4000202564206C6F6F7020646F6E653A20259E
:104A5000640D0A00E680BBE5BEAAE78EAFE6ACA116
:104A6000E695B0EFBC9A25640D0A000074696D6587
:104A70005F72756E3A2025640D0A00002DE9F05F23
:104A800000272B4CDFF8ACB0DFF8ACA047E0206883
:104A9000012848D001F0D0FD814601252068012879
:104AA0003CD0A94537D00026DFF890802FE0206861
:104AB000012830D001F0C0FD81460146284600F0B3
:104AC00081FE0146CBF80000284602F075F802F09E
:104AD00037FE4FF4FA7000F04DFE206801281AD01E
:104AE0002946484600F06EFE0146CBF800004846D5
:104AF00002F062F802F024FE40F6B83000F03AFE10
:104B000002F03EFD4FF4FA6000F034FE761CD8F857
:104B100000008642CBDD6D1C052DBFDD7F1CDAF861
:104B200000008742B3DD064900200880BDE8F09F01
:104B30000C00002018000020380000203C0000205D
:104B40001C01002010B504460E480078002817D13B
:104B500001F072FD0C49A0420860014605D12146D2
:104B6000BDE8104009A0FBF721BC204600F02AFE5A
:104B70000B49086001462046BDE8104002F01CB811
:104B800010BD00000500002014000020E5B7B2E5CC
:104B90009CA8E5B7A5E4BD8D25640D0A00000000C2
:104BA0001800002010B501F047FD114908600146CA
:104BB00010A0FBF7FBFB134C20212046FDF732FC35
:104BC000014611A0FBF7F2FB40212046FDF72AFC2D
:104BD000014610A0FBF7EAFB4FF400511048FDF727
:104BE00021FC0146BDE810400EA0FBF7DFBB000032
:104BF0001400002073746174696F6E3A2025640D8F
:104C00000A0000000010024048414C313A2025645F
:104C1000200D0A0048414C323A202564200D0A003C
:104C20000008024048414C333A202564200D0A0018
:104C300010B503A0FBF7BAFBBDE8104002F0A0BC22
:104C4000E8BF9BE585A5E68B8DE785A70D0A0000EB
:104C5000044C05A02168FBF7A9FB322000F08AFD77
:104C6000F7E7000048000020506F733A20256420C9
:104C70000D0A0000044910B50120086001F032FB64
:104C8000BDE81040FDF778BC1000002010B504A06E
:104C9000FBF78CFBBDE810400620FDF72DBC0000A3
:104CA000E4B88AE58D87E6B2BFE6A380E6B58BE679
:104CB000B58BE8AF95EFBC810D0A000001210846D5
:104CC00002F0B6B810B50021012002F0B1F8BDE83D
:104CD000104000F02BBD000010B506480024046011
:104CE00000F02CFD04480460204601F089F80348D8
:104CF000047010BD54000020A40000200500002016
:104D000010B501F0E1FB05490860014604A0FBF77E
:104D10004DFBBDE8104001F0E5BA00002400002082
:104D2000E69C80E5A4A7E58DA0E7A9BAE6AF94E8E4
:104D3000AEBEE7BDAE3A25640D0A000010B501F025
:104D4000C3FB05490860014604A0FBF72FFBBDE843
:104D5000104001F0C7BA000020000020E8BF90E832
:104D6000A18CE4B8ADE69C80E5A4A7E9809FE5BAF4
:104D7000A6E99990E588B63A25640D0A000000007E
:104D800038B500246A4610A10094FBF75DFC00983A
:104D9000002801DA009404E04FF47A71884200DDC3
:104DA0000091009803F0CAF8094903F013F9094982
:104DB000086002F025FF02460B4607A0FBF7F6FA53
:104DC00001F090FA38BD00004B443A256400000021
:104DD0006F12833A00010020E4BD8DE7BDAEE78E7F
:104DE000AF4B443A20252E33660D0A0038B5002417
:104DF0006A4610A10094FBF727FC0098002801DA0E
:104E0000009404E04FF47A71884200DD009100982C
:104E100003F094F8094903F0DDF80949086002F04D
:104E2000EFFE02460B4607A0FBF7C0FA01F05AFA64
:104E300038BD00004B493A25640000006F12833AE8
:104E4000FC000020E4BD8DE7BDAEE78EAF4B493AD4
:104E500020252E33660D0A0038B500246A4610A1BD
:104E60000094FBF7F1FB0098002801DA009404E0BD
:104E70004FF47A71884200DD0091009803F05EF8EB
:104E8000094903F0A7F80949086002F0B9FE024693
:104E90000B4607A0FBF78AFA01F024FA38BD0000A0
:104EA0004B503A25640000006F12833AF80000204E
:104EB000E4BD8DE7BDAEE78EAF4B503A20252E33D3
:104EC000660D0A0010B501F0FFFA044908600146BA
:104ED000BDE8104002A0FBF769BA000038000020CE
:104EE0006C6F6F70313A25640D0A000010B501F047
:104EF000EBFA044908600146BDE8104002A0FBF748
:104F000055BA00003C0000206C6F6F70323A256487
:104F10000D0A000008B5002100916A460AA1FBF7BE
:104F200093FB0098052801DA052002E0642801DDE2
:104F30006420009001460648016006A0FBF736FA9F
:104F400001F0D0F908BD000050433A25640000008C
:104F500010010020504944E98787E6A0B7E591A8F1
:104F6000E69C9F3A2025646D730D0A0010B501F090
:104F7000ABFA044908600146BDE8104002A0FBF707
:104F800015BA000040000020E68B8DE785A7E5AD4F
:104F900094E4BD8D3A25640D0A00000010B501F0BF
:104FA00093FA05490860014604A0FBF7FFF9BDE844
:104FB000104001F097B9000034000020E58589E732
:104FC00094B5E6A380E6B58BE99990E588B6E884C8
:104FD00089E586B2E695B03A25640D0A0000000026
:104FE00010B501F071FA05490860014604A0FBF70D
:104FF000DDF9BDE8104001F075B900003000002077
:10500000E685A2E9809FE8BF90E8A18CE8BF9BE518
:10501000AD94E88489E586B2E695B03A25640D0A38
:105020000000000038B500246A4610A10094FBF788
:105030000BFB0098002801DA009404E041F288316B
:10504000884200DD0091009802F078FF094902F0E3
:10505000C1FF0949086002F0D3FD02460B4607A0D4
:10506000FBF7A4F901F03EF938BD000053443A259E
:10507000640000000AD7233C0C010020E9809FE572
:10508000BAA6E78EAF535F4B443A20252E32660D09
:105090000A00000038B500246A4610A10094FBF70E
:1050A000D3FA0098002801DA009404E041F2883134
:1050B000884200DD0091009802F040FF094902F0AB
:1050C00089FF0949086002F09BFD02460B4607A0D4
:1050D000FBF76CF901F006F938BD000053493A2599
:1050E000640000000AD7233C08010020E9809FE506
:1050F000BAA6E78EAF535F4B493A20252E32660D94
:105100000A00000038B500246A4610A10094FBF79D
:105110009BFA0098002801DA009404E041F28831FB
:10512000884200DD0091009802F008FF094902F072
:1051300051FF0949086002F063FD02460B4607A0D3
:10514000FBF734F901F0CEF838BD0000534B3A2597
:10515000640000000AD7233C04010020E9809FE599
:10516000BAA6E78EAF535F4B503A20252E32660D1C
:105170000A00000010B501F0A7F9054908600146D2
:1051800004A0FBF713F9BDE8104001F0ABB8000034
:1051900028000020E69C80E5908EE58C80E9809FC9
:1051A000E8BF9BE5AD94E79A84E9809FE5BAA63A0B
:1051B00025640D0A000000002DE9FF413AA0FBF72D
:1051C000F5F84148016841A0FBF7F0F8454801684F
:1051D00045A0FBF7EBF84B4801684BA0FBF7E6F85E
:1051E0005048016850A0FBF7E1F85748016857A004
:1051F000FBF7DCF85C4801685CA0FBF7D7F8614876
:10520000016861A0FBF7D2F86648016866A0FBF769
:10521000CDF86CA0FBF7CAF86F4801686FA0FBF7E8
:10522000C5F87548006802F0EBFC064673480F4667
:10523000006802F0E5FC044671480D46006802F083
:10524000DFFC8DE8F00002460B466EA0FBF7AEF8DF
:105250007748006802F0D4FC064676480F4600689E
:1052600002F0CEFC044674480D46006802F0C8FC0B
:105270008DE8F00002460B4670A0FBF797F87AA085
:10528000FBF794F87E4802687E4801687EA0FBF731
:105290008DF8834802788348016804B082A0BDE895
:1052A000F041FBF783B800003D3D3D3D3D3D20E52D
:1052B000BD93E5898DE58F82E695B0203D3D3D3D6E
:1052C0003D3D0D0A00000000200000204628E69C1D
:1052D00080E5A4A7E9809FE5BAA6293A2025640DB8
:1052E0000A000000240000205228E69C80E5A4A7C4
:1052F000E58DA0E7A9BAE6AF94293A2025640D0A06
:1053000000000000280000205628E58C80E9809FDE
:10531000E8BF9BE5AD94E9809FE5BAA6293A202530
:10532000640D0A00300000205328E685A2E9809F22
:10533000E8BF9BE5AD94E88489E586B2E695B0299F
:105340003A2025640D0A0000340000204528E58538
:1053500089E794B5E6A380E6B58BE99990E588B630
:10536000293A2025640D0A00400000205028E68BD1
:105370008DE785A7E5AD94E4BD8D293A2025640D20
:105380000A000000380000205428E5A4A7E5BEAAC2
:10539000E78EAFE6ACA1E695B0293A2025640D0A68
:1053A000000000003C0000204828E5B08FE5BEAAC0
:1053B000E78EAFE6ACA1E695B0293A2025640D0A48
:1053C000000000002D2D2D20504944E58F82E695E8
:1053D000B0202D2D2D0D0A0010010020504328E98A
:1053E0008787E6A0B7E591A8E69C9F293A20256427
:1053F0006D730D0A0000000000010020FC00002079
:10540000F80000204B5028E4BD8DE7BDAEE78EAF1D
:1054100050293A20252E336620204B493A20252E4C
:10542000336620204B443A20252E33660D0A0000B7
:105430000C0100200801002004010020534B28E942
:10544000809FE5BAA6E78EAF50293A20252E326616
:10545000202053493A20252E3266202053443A20FA
:10546000252E32660D0A00003D3D3D3D3D3D3D3D52
:105470003D3D3D3D3D3D3D3D3D3D3D3D0D0A000039
:105480000C0000202C000020416C61726D3A202538
:105490006420204572726F723A2025640D0A000064
:1054A0000500002048000020456E636F64653A20C7
:1054B0002564202052756E466C61673A2025640D84
:1054C0000A0000002DE9F0470646014636A0FAF72B
:1054D0006DFF3D4F3D480021396001703C4801702F
:1054E00001F0AAF83B4C0146B04220600DD0324694
:1054F00039A0FAF75BFF3046216800F063F90146F6
:10550000304601F059FB02F01BF9DFF8F880012565
:1055100042F21079B5423DD03868D0B929463AA058
:10552000FAF744FF01F088F8411E206005291ED2D9
:105530000146284600F046F90146C8F80000284612
:1055400001F03AFB02F0FCF8484600F013F9386825
:1055500018B131A0FAF72AFF1FE0314632A0FAF75E
:1055600025FF01F069F8411E2060052901D332A012
:10557000F0E70146304600F025F90146C8F8000082
:10558000304601F019FB02F0DBF8052D02DA48463F
:1055900000F0F0F86D1C052DBCDD3146BDE8F0478C
:1055A00028A0FAF703BF0000E5B7A5E4BD8D256488
:1055B000E5BE80E8BF94E6B58BE8AF95E5BC80E535
:1055C000A78B0D0A000000000C0000200500002041
:1055D0000600002014000020E5BD93E5898DE4BDA0
:1055E0008DE7BDAE3A25642C20E99C80E8A681E5D4
:1055F0008588E59B9EE588B0E5B7A5E4BD8D25646B
:105600000D0A000018000020E2869220E5B7A5E40C
:10561000BD8D25640A000000E587BAE99499E5810B
:105620009CE6ADA20D0A0000E2869020E5B7A5E455
:10563000BD8D25640A00000048414CE99499E8AF0B
:10564000AF0D0A00E5B7A5E4BD8D2564E5BE80E891
:10565000BF94E6B58BE8AF95E7BB93E69D9F0D0A37
:105660000000000010B50848FDF7D2FA41F288307A
:1056700000F080F80448FDF70BFB04480178BDE812
:10568000104003A0FAF792BED8010020D5000020F8
:1056900074696D655F72756E3A2025640D0A0000AD
:1056A00070B508A0FAF782FE134C4FF4FA60256833
:1056B00000F060F82068411BBDE870400FA0FAF7C9
:1056C00075BE000054494D36E6B58BE8AF952032E3
:1056D000E7A79228316D73E4B8ADE696AD2C205063
:1056E0004944E6AF8F32356D73E5BEAAE78EAF2928
:1056F0002E2E2E0D0A000000DC0000206B5F6C6F68
:105700006F70E5A29EE9878F3D25642028E69C9F67
:10571000E69C9B7E38302C2032356D73C397383031
:105720003D323030306D73290D0A00000122022114
:105730000148FCF77CBE00000008024010B50021C3
:105740000648FDF7C9FC0C210448FDF7C5FC0348D9
:105750000021026851630068016410BD4801002007
:1057600010B504460420FDF7B9F90148046010BDE6
:10577000F400002070B5054600244FF47A7603E06B
:10578000304600F005F8641CAC42F9D370BD00004F
:1057900070B54FF0E024002265690949A3690968E2
:1057A0004843A1699942FCD002D2A3EB010302E075
:1057B000A5EB010633441A440B468242F1D370BD77
:1057C000F4000020401A0521401D90FBF1F201FB7E
:1057D00012000449022802DC002008607047012002
:1057E000086070471800002010B5084C01220821FD
:1057F0002046FCF71CFE6420FFF7BCFF2046002279
:10580000BDE810400821FCF712BE0000000802406D
:1058100010B5094C10212046FCF704FE38B90A20C7
:10582000FFF7A8FF10212046FCF7FCFD08B100207F
:1058300010BD012010BD0000001002400549064ABD
:1058400001E0491E02D013685B06FAD5C1B251606F
:105850007047000020A10700005000400446114896
:10586000114D124E4FF47A7740F6B8384FF4FA697A
:1058700004602146012001F0DBFA01F061FF3846A7
:10588000FFF778FF00F0D8FE286031688842F0D139
:105890004046FFF76FFF01F073FE4846FFF76AFFCF
:1058A000E7E700001800002014000020400000205E
:1058B00030B50D4803685A6A0C4849F64045026104
:1058C0004169541A0146EC42496801DA491C04E076
:1058D00049F64045AC4201DD491E41604261596ACA
:1058E000808801EB004030BD20020020D400002061
:1058F0002DE9F04387B08846814614216846FBF7BE
:1059000054F829480025016841F001010160006850
:1059100000F00100059024481030016841F00201B8
:105920000160006801A900F002000590C02000900D
:1059300002200126032781E8C100049069461B4824
:10594000FCF778FC1B4C1A480A21C4E90008C4E99A
:10595000039504F148000760C0E90156C0E903510E
:10596000C0E90556C0E9075101464838FDF7A8F9D6
:1059700000212046FDF7F7F904212046FDF7F3F951
:10598000002211461D20FCF7C5FD1D20FCF7B4FDCB
:105990002168A81E08612068C16841F00101C1604A
:1059A00007B0BDE8F083000030380240000002403C
:1059B000000400402002002010B588B00C46FEF71D
:1059C00073FC60B12021684600F0D6FE224669468D
:1059D00008A0FAF7EBFCFFF707FF08B010BD0D4970
:1059E000092008600CA0FAF7E1FC08B0BDE81040FF
:1059F000FEF7BEBB5B25735D20E5B7B2E7BB8FE862
:105A0000BF90E58AA8E588B0E4BD8DE7BDAE3A2534
:105A1000640D0A002C000020E5B7A5E4BD8DE9AABD
:105A20008CE8AF81E5A4B1E8B4A5210D0A0000001F
:105A30002DE9F0471C49096802F0C9FB1B491C4EBF
:105A40000446086030680121804602F074FC21465B
:105A500002F0BDFB174F396802F0FEF816490968DD
:105A600002F0B8FA054615482146006802F0B2FA7D
:105A700081464146204602F0B5FB1149096802F013
:105A8000A9FA494602F0E8F8294602F0E5F80D4D7A
:105A9000296802F0E1F82860C7F800803460BDE8AA
:105AA000F04702F00FBA00007800002090000020BC
:105AB00094000020980000208C0000208800002026
:105AC000840000207C000020002453494FF0006037
:105AD0000860FCF7BFFCFDF781FFA820FFF740FE40
